{
	"contracts/MyLearningEnv.sol": {
		"ExampleVariables": {
			"abi": [
				{
					"inputs": [
						{
							"internalType": "address",
							"name": "_someAddress",
							"type": "address"
						}
					],
					"stateMutability": "nonpayable",
					"type": "constructor"
				},
				{
					"inputs": [
						{
							"internalType": "string",
							"name": "_myString",
							"type": "string"
						}
					],
					"name": "compareTwoStrings",
					"outputs": [
						{
							"internalType": "bool",
							"name": "",
							"type": "bool"
						}
					],
					"stateMutability": "view",
					"type": "function"
				},
				{
					"inputs": [],
					"name": "decrementUint",
					"outputs": [],
					"stateMutability": "nonpayable",
					"type": "function"
				},
				{
					"inputs": [],
					"name": "decrementUintUnchecked",
					"outputs": [],
					"stateMutability": "nonpayable",
					"type": "function"
				},
				{
					"inputs": [
						{
							"internalType": "uint256",
							"name": "a",
							"type": "uint256"
						},
						{
							"internalType": "uint256",
							"name": "b",
							"type": "uint256"
						}
					],
					"name": "getAddition",
					"outputs": [
						{
							"internalType": "uint256",
							"name": "",
							"type": "uint256"
						}
					],
					"stateMutability": "pure",
					"type": "function"
				},
				{
					"inputs": [],
					"name": "getAddressBalance",
					"outputs": [
						{
							"internalType": "uint256",
							"name": "",
							"type": "uint256"
						}
					],
					"stateMutability": "view",
					"type": "function"
				},
				{
					"inputs": [],
					"name": "getMyStorageVariable",
					"outputs": [
						{
							"internalType": "uint256",
							"name": "",
							"type": "uint256"
						}
					],
					"stateMutability": "view",
					"type": "function"
				},
				{
					"inputs": [],
					"name": "muUint8",
					"outputs": [
						{
							"internalType": "uint8",
							"name": "",
							"type": "uint8"
						}
					],
					"stateMutability": "view",
					"type": "function"
				},
				{
					"inputs": [],
					"name": "myBool",
					"outputs": [
						{
							"internalType": "bool",
							"name": "",
							"type": "bool"
						}
					],
					"stateMutability": "view",
					"type": "function"
				},
				{
					"inputs": [],
					"name": "myEthAddress",
					"outputs": [
						{
							"internalType": "address",
							"name": "",
							"type": "address"
						}
					],
					"stateMutability": "view",
					"type": "function"
				},
				{
					"inputs": [],
					"name": "myStorageVariable",
					"outputs": [
						{
							"internalType": "uint8",
							"name": "",
							"type": "uint8"
						}
					],
					"stateMutability": "view",
					"type": "function"
				},
				{
					"inputs": [],
					"name": "myString",
					"outputs": [
						{
							"internalType": "string",
							"name": "",
							"type": "string"
						}
					],
					"stateMutability": "view",
					"type": "function"
				},
				{
					"inputs": [],
					"name": "myUint",
					"outputs": [
						{
							"internalType": "uint256",
							"name": "",
							"type": "uint256"
						}
					],
					"stateMutability": "view",
					"type": "function"
				},
				{
					"inputs": [
						{
							"internalType": "address",
							"name": "_myAddress",
							"type": "address"
						}
					],
					"name": "setMyAddress",
					"outputs": [],
					"stateMutability": "nonpayable",
					"type": "function"
				},
				{
					"inputs": [
						{
							"internalType": "bool",
							"name": "_myBool",
							"type": "bool"
						}
					],
					"name": "setMyBool",
					"outputs": [],
					"stateMutability": "nonpayable",
					"type": "function"
				},
				{
					"inputs": [
						{
							"internalType": "uint8",
							"name": "_newVar",
							"type": "uint8"
						}
					],
					"name": "setMyStorageVariable",
					"outputs": [
						{
							"internalType": "uint256",
							"name": "",
							"type": "uint256"
						}
					],
					"stateMutability": "nonpayable",
					"type": "function"
				},
				{
					"inputs": [
						{
							"internalType": "string",
							"name": "_myString",
							"type": "string"
						}
					],
					"name": "setMyString",
					"outputs": [],
					"stateMutability": "nonpayable",
					"type": "function"
				},
				{
					"inputs": [
						{
							"internalType": "uint256",
							"name": "_myUint",
							"type": "uint256"
						}
					],
					"name": "setMyUint",
					"outputs": [],
					"stateMutability": "nonpayable",
					"type": "function"
				},
				{
					"inputs": [],
					"name": "someAddress",
					"outputs": [
						{
							"internalType": "address",
							"name": "",
							"type": "address"
						}
					],
					"stateMutability": "view",
					"type": "function"
				},
				{
					"inputs": [],
					"name": "testerAddress",
					"outputs": [
						{
							"internalType": "address",
							"name": "",
							"type": "address"
						}
					],
					"stateMutability": "view",
					"type": "function"
				},
				{
					"inputs": [],
					"name": "updateSomeAddress",
					"outputs": [],
					"stateMutability": "nonpayable",
					"type": "function"
				}
			],
			"devdoc": {
				"kind": "dev",
				"methods": {},
				"version": 1
			},
			"evm": {
				"assembly": "    /* \"contracts/MyLearningEnv.sol\":60:4015  contract ExampleVariables{... */\n  mstore(0x40, 0x80)\n    /* \"contracts/MyLearningEnv.sol\":1537:1576  string public myString = \"Desperado OY\" */\n  mload(0x40)\n  dup1\n  0x40\n  add\n  0x40\n  mstore\n  dup1\n  0x0c\n  dup2\n  mstore\n  0x20\n  add\n  0x44657370657261646f204f590000000000000000000000000000000000000000\n  dup2\n  mstore\n  pop\n  0x03\n  swap1\n  dup2\n  tag_1\n  swap2\n  swap1\n  tag_2\n  jump\t// in\ntag_1:\n  pop\n    /* \"contracts/MyLearningEnv.sol\":3929:4010  constructor(address _someAddress){... */\n  callvalue\n  dup1\n  iszero\n  tag_3\n  jumpi\n  0x00\n  dup1\n  revert\ntag_3:\n  pop\n  mload(0x40)\n  sub(codesize, bytecodeSize)\n  dup1\n  bytecodeSize\n  dup4\n  codecopy\n  dup2\n  dup2\n  add\n  0x40\n  mstore\n  dup2\n  add\n  swap1\n  tag_4\n  swap2\n  swap1\n  tag_5\n  jump\t// in\ntag_4:\n    /* \"contracts/MyLearningEnv.sol\":3990:4002  _someAddress */\n  dup1\n    /* \"contracts/MyLearningEnv.sol\":3973:4002  testerAddress == _someAddress */\n  0xffffffffffffffffffffffffffffffffffffffff\n  and\n    /* \"contracts/MyLearningEnv.sol\":3973:3986  testerAddress */\n  0x06\n  0x00\n  swap1\n  sload\n  swap1\n  0x0100\n  exp\n  swap1\n  pop\n  pop\n    /* \"contracts/MyLearningEnv.sol\":3973:4002  testerAddress == _someAddress */\n  pop\n    /* \"contracts/MyLearningEnv.sol\":3929:4010  constructor(address _someAddress){... */\n  pop\n    /* \"contracts/MyLearningEnv.sol\":60:4015  contract ExampleVariables{... */\n  jump(tag_8)\n    /* \"#utility.yul\":7:106   */\ntag_9:\n    /* \"#utility.yul\":59:65   */\n  0x00\n    /* \"#utility.yul\":93:98   */\n  dup2\n    /* \"#utility.yul\":87:99   */\n  mload\n    /* \"#utility.yul\":77:99   */\n  swap1\n  pop\n    /* \"#utility.yul\":7:106   */\n  swap2\n  swap1\n  pop\n  jump\t// out\n    /* \"#utility.yul\":112:292   */\ntag_10:\n    /* \"#utility.yul\":160:237   */\n  0x4e487b7100000000000000000000000000000000000000000000000000000000\n    /* \"#utility.yul\":157:158   */\n  0x00\n    /* \"#utility.yul\":150:238   */\n  mstore\n    /* \"#utility.yul\":257:261   */\n  0x41\n    /* \"#utility.yul\":254:255   */\n  0x04\n    /* \"#utility.yul\":247:262   */\n  mstore\n    /* \"#utility.yul\":281:285   */\n  0x24\n    /* \"#utility.yul\":278:279   */\n  0x00\n    /* \"#utility.yul\":271:286   */\n  revert\n    /* \"#utility.yul\":298:478   */\ntag_11:\n    /* \"#utility.yul\":346:423   */\n  0x4e487b7100000000000000000000000000000000000000000000000000000000\n    /* \"#utility.yul\":343:344   */\n  0x00\n    /* \"#utility.yul\":336:424   */\n  mstore\n    /* \"#utility.yul\":443:447   */\n  0x22\n    /* \"#utility.yul\":440:441   */\n  0x04\n    /* \"#utility.yul\":433:448   */\n  mstore\n    /* \"#utility.yul\":467:471   */\n  0x24\n    /* \"#utility.yul\":464:465   */\n  0x00\n    /* \"#utility.yul\":457:472   */\n  revert\n    /* \"#utility.yul\":484:804   */\ntag_12:\n    /* \"#utility.yul\":528:534   */\n  0x00\n    /* \"#utility.yul\":565:566   */\n  0x02\n    /* \"#utility.yul\":559:563   */\n  dup3\n    /* \"#utility.yul\":555:567   */\n  div\n    /* \"#utility.yul\":545:567   */\n  swap1\n  pop\n    /* \"#utility.yul\":612:613   */\n  0x01\n    /* \"#utility.yul\":606:610   */\n  dup3\n    /* \"#utility.yul\":602:614   */\n  and\n    /* \"#utility.yul\":633:651   */\n  dup1\n    /* \"#utility.yul\":623:704   */\n  tag_41\n  jumpi\n    /* \"#utility.yul\":689:693   */\n  0x7f\n    /* \"#utility.yul\":681:687   */\n  dup3\n    /* \"#utility.yul\":677:694   */\n  and\n    /* \"#utility.yul\":667:694   */\n  swap2\n  pop\n    /* \"#utility.yul\":623:704   */\ntag_41:\n    /* \"#utility.yul\":751:753   */\n  0x20\n    /* \"#utility.yul\":743:749   */\n  dup3\n    /* \"#utility.yul\":740:754   */\n  lt\n    /* \"#utility.yul\":720:738   */\n  dup2\n    /* \"#utility.yul\":717:755   */\n  sub\n    /* \"#utility.yul\":714:798   */\n  tag_42\n  jumpi\n    /* \"#utility.yul\":770:788   */\n  tag_43\n  tag_11\n  jump\t// in\ntag_43:\n    /* \"#utility.yul\":714:798   */\ntag_42:\n    /* \"#utility.yul\":535:804   */\n  pop\n    /* \"#utility.yul\":484:804   */\n  swap2\n  swap1\n  pop\n  jump\t// out\n    /* \"#utility.yul\":810:951   */\ntag_13:\n    /* \"#utility.yul\":859:863   */\n  0x00\n    /* \"#utility.yul\":882:885   */\n  dup2\n    /* \"#utility.yul\":874:885   */\n  swap1\n  pop\n    /* \"#utility.yul\":905:908   */\n  dup2\n    /* \"#utility.yul\":902:903   */\n  0x00\n    /* \"#utility.yul\":895:909   */\n  mstore\n    /* \"#utility.yul\":939:943   */\n  0x20\n    /* \"#utility.yul\":936:937   */\n  0x00\n    /* \"#utility.yul\":926:944   */\n  keccak256\n    /* \"#utility.yul\":918:944   */\n  swap1\n  pop\n    /* \"#utility.yul\":810:951   */\n  swap2\n  swap1\n  pop\n  jump\t// out\n    /* \"#utility.yul\":957:1050   */\ntag_14:\n    /* \"#utility.yul\":994:1000   */\n  0x00\n    /* \"#utility.yul\":1041:1043   */\n  0x20\n    /* \"#utility.yul\":1036:1038   */\n  0x1f\n    /* \"#utility.yul\":1029:1034   */\n  dup4\n    /* \"#utility.yul\":1025:1039   */\n  add\n    /* \"#utility.yul\":1021:1044   */\n  div\n    /* \"#utility.yul\":1011:1044   */\n  swap1\n  pop\n    /* \"#utility.yul\":957:1050   */\n  swap2\n  swap1\n  pop\n  jump\t// out\n    /* \"#utility.yul\":1056:1163   */\ntag_15:\n    /* \"#utility.yul\":1100:1108   */\n  0x00\n    /* \"#utility.yul\":1150:1155   */\n  dup3\n    /* \"#utility.yul\":1144:1148   */\n  dup3\n    /* \"#utility.yul\":1140:1156   */\n  shl\n    /* \"#utility.yul\":1119:1156   */\n  swap1\n  pop\n    /* \"#utility.yul\":1056:1163   */\n  swap3\n  swap2\n  pop\n  pop\n  jump\t// out\n    /* \"#utility.yul\":1169:1562   */\ntag_16:\n    /* \"#utility.yul\":1238:1244   */\n  0x00\n    /* \"#utility.yul\":1288:1289   */\n  0x08\n    /* \"#utility.yul\":1276:1286   */\n  dup4\n    /* \"#utility.yul\":1272:1290   */\n  mul\n    /* \"#utility.yul\":1311:1408   */\n  tag_48\n    /* \"#utility.yul\":1341:1407   */\n  0xffffffffffffffffffffffffffffffffffffffffffffffffffffffffffffffff\n    /* \"#utility.yul\":1330:1339   */\n  dup3\n    /* \"#utility.yul\":1311:1408   */\n  tag_15\n  jump\t// in\ntag_48:\n    /* \"#utility.yul\":1429:1468   */\n  tag_49\n    /* \"#utility.yul\":1459:1467   */\n  dup7\n    /* \"#utility.yul\":1448:1457   */\n  dup4\n    /* \"#utility.yul\":1429:1468   */\n  tag_15\n  jump\t// in\ntag_49:\n    /* \"#utility.yul\":1417:1468   */\n  swap6\n  pop\n    /* \"#utility.yul\":1501:1505   */\n  dup1\n    /* \"#utility.yul\":1497:1506   */\n  not\n    /* \"#utility.yul\":1490:1495   */\n  dup5\n    /* \"#utility.yul\":1486:1507   */\n  and\n    /* \"#utility.yul\":1477:1507   */\n  swap4\n  pop\n    /* \"#utility.yul\":1550:1554   */\n  dup1\n    /* \"#utility.yul\":1540:1548   */\n  dup7\n    /* \"#utility.yul\":1536:1555   */\n  and\n    /* \"#utility.yul\":1529:1534   */\n  dup5\n    /* \"#utility.yul\":1526:1556   */\n  or\n    /* \"#utility.yul\":1516:1556   */\n  swap3\n  pop\n    /* \"#utility.yul\":1245:1562   */\n  pop\n  pop\n    /* \"#utility.yul\":1169:1562   */\n  swap4\n  swap3\n  pop\n  pop\n  pop\n  jump\t// out\n    /* \"#utility.yul\":1568:1645   */\ntag_17:\n    /* \"#utility.yul\":1605:1612   */\n  0x00\n    /* \"#utility.yul\":1634:1639   */\n  dup2\n    /* \"#utility.yul\":1623:1639   */\n  swap1\n  pop\n    /* \"#utility.yul\":1568:1645   */\n  swap2\n  swap1\n  pop\n  jump\t// out\n    /* \"#utility.yul\":1651:1711   */\ntag_18:\n    /* \"#utility.yul\":1679:1682   */\n  0x00\n    /* \"#utility.yul\":1700:1705   */\n  dup2\n    /* \"#utility.yul\":1693:1705   */\n  swap1\n  pop\n    /* \"#utility.yul\":1651:1711   */\n  swap2\n  swap1\n  pop\n  jump\t// out\n    /* \"#utility.yul\":1717:1859   */\ntag_19:\n    /* \"#utility.yul\":1767:1776   */\n  0x00\n    /* \"#utility.yul\":1800:1853   */\n  tag_53\n    /* \"#utility.yul\":1818:1852   */\n  tag_54\n    /* \"#utility.yul\":1827:1851   */\n  tag_55\n    /* \"#utility.yul\":1845:1850   */\n  dup5\n    /* \"#utility.yul\":1827:1851   */\n  tag_17\n  jump\t// in\ntag_55:\n    /* \"#utility.yul\":1818:1852   */\n  tag_18\n  jump\t// in\ntag_54:\n    /* \"#utility.yul\":1800:1853   */\n  tag_17\n  jump\t// in\ntag_53:\n    /* \"#utility.yul\":1787:1853   */\n  swap1\n  pop\n    /* \"#utility.yul\":1717:1859   */\n  swap2\n  swap1\n  pop\n  jump\t// out\n    /* \"#utility.yul\":1865:1940   */\ntag_20:\n    /* \"#utility.yul\":1908:1911   */\n  0x00\n    /* \"#utility.yul\":1929:1934   */\n  dup2\n    /* \"#utility.yul\":1922:1934   */\n  swap1\n  pop\n    /* \"#utility.yul\":1865:1940   */\n  swap2\n  swap1\n  pop\n  jump\t// out\n    /* \"#utility.yul\":1946:2215   */\ntag_21:\n    /* \"#utility.yul\":2056:2095   */\n  tag_58\n    /* \"#utility.yul\":2087:2094   */\n  dup4\n    /* \"#utility.yul\":2056:2095   */\n  tag_19\n  jump\t// in\ntag_58:\n    /* \"#utility.yul\":2117:2208   */\n  tag_59\n    /* \"#utility.yul\":2166:2207   */\n  tag_60\n    /* \"#utility.yul\":2190:2206   */\n  dup3\n    /* \"#utility.yul\":2166:2207   */\n  tag_20\n  jump\t// in\ntag_60:\n    /* \"#utility.yul\":2158:2164   */\n  dup5\n    /* \"#utility.yul\":2151:2155   */\n  dup5\n    /* \"#utility.yul\":2145:2156   */\n  sload\n    /* \"#utility.yul\":2117:2208   */\n  tag_16\n  jump\t// in\ntag_59:\n    /* \"#utility.yul\":2111:2115   */\n  dup3\n    /* \"#utility.yul\":2104:2209   */\n  sstore\n    /* \"#utility.yul\":2022:2215   */\n  pop\n    /* \"#utility.yul\":1946:2215   */\n  pop\n  pop\n  pop\n  jump\t// out\n    /* \"#utility.yul\":2221:2294   */\ntag_22:\n    /* \"#utility.yul\":2266:2269   */\n  0x00\n    /* \"#utility.yul\":2221:2294   */\n  swap1\n  jump\t// out\n    /* \"#utility.yul\":2300:2489   */\ntag_23:\n    /* \"#utility.yul\":2377:2409   */\n  tag_63\n  tag_22\n  jump\t// in\ntag_63:\n    /* \"#utility.yul\":2418:2483   */\n  tag_64\n    /* \"#utility.yul\":2476:2482   */\n  dup2\n    /* \"#utility.yul\":2468:2474   */\n  dup5\n    /* \"#utility.yul\":2462:2466   */\n  dup5\n    /* \"#utility.yul\":2418:2483   */\n  tag_21\n  jump\t// in\ntag_64:\n    /* \"#utility.yul\":2353:2489   */\n  pop\n    /* \"#utility.yul\":2300:2489   */\n  pop\n  pop\n  jump\t// out\n    /* \"#utility.yul\":2495:2681   */\ntag_24:\n    /* \"#utility.yul\":2555:2675   */\ntag_66:\n    /* \"#utility.yul\":2572:2575   */\n  dup2\n    /* \"#utility.yul\":2565:2570   */\n  dup2\n    /* \"#utility.yul\":2562:2576   */\n  lt\n    /* \"#utility.yul\":2555:2675   */\n  iszero\n  tag_68\n  jumpi\n    /* \"#utility.yul\":2626:2665   */\n  tag_69\n    /* \"#utility.yul\":2663:2664   */\n  0x00\n    /* \"#utility.yul\":2656:2661   */\n  dup3\n    /* \"#utility.yul\":2626:2665   */\n  tag_23\n  jump\t// in\ntag_69:\n    /* \"#utility.yul\":2599:2600   */\n  0x01\n    /* \"#utility.yul\":2592:2597   */\n  dup2\n    /* \"#utility.yul\":2588:2601   */\n  add\n    /* \"#utility.yul\":2579:2601   */\n  swap1\n  pop\n    /* \"#utility.yul\":2555:2675   */\n  jump(tag_66)\ntag_68:\n    /* \"#utility.yul\":2495:2681   */\n  pop\n  pop\n  jump\t// out\n    /* \"#utility.yul\":2687:3230   */\ntag_25:\n    /* \"#utility.yul\":2788:2790   */\n  0x1f\n    /* \"#utility.yul\":2783:2786   */\n  dup3\n    /* \"#utility.yul\":2780:2791   */\n  gt\n    /* \"#utility.yul\":2777:3223   */\n  iszero\n  tag_71\n  jumpi\n    /* \"#utility.yul\":2822:2860   */\n  tag_72\n    /* \"#utility.yul\":2854:2859   */\n  dup2\n    /* \"#utility.yul\":2822:2860   */\n  tag_13\n  jump\t// in\ntag_72:\n    /* \"#utility.yul\":2906:2935   */\n  tag_73\n    /* \"#utility.yul\":2924:2934   */\n  dup5\n    /* \"#utility.yul\":2906:2935   */\n  tag_14\n  jump\t// in\ntag_73:\n    /* \"#utility.yul\":2896:2904   */\n  dup2\n    /* \"#utility.yul\":2892:2936   */\n  add\n    /* \"#utility.yul\":3089:3091   */\n  0x20\n    /* \"#utility.yul\":3077:3087   */\n  dup6\n    /* \"#utility.yul\":3074:3092   */\n  lt\n    /* \"#utility.yul\":3071:3120   */\n  iszero\n  tag_74\n  jumpi\n    /* \"#utility.yul\":3110:3118   */\n  dup2\n    /* \"#utility.yul\":3095:3118   */\n  swap1\n  pop\n    /* \"#utility.yul\":3071:3120   */\ntag_74:\n    /* \"#utility.yul\":3133:3213   */\n  tag_75\n    /* \"#utility.yul\":3189:3211   */\n  tag_76\n    /* \"#utility.yul\":3207:3210   */\n  dup6\n    /* \"#utility.yul\":3189:3211   */\n  tag_14\n  jump\t// in\ntag_76:\n    /* \"#utility.yul\":3179:3187   */\n  dup4\n    /* \"#utility.yul\":3175:3212   */\n  add\n    /* \"#utility.yul\":3162:3173   */\n  dup3\n    /* \"#utility.yul\":3133:3213   */\n  tag_24\n  jump\t// in\ntag_75:\n    /* \"#utility.yul\":2792:3223   */\n  pop\n  pop\n    /* \"#utility.yul\":2777:3223   */\ntag_71:\n    /* \"#utility.yul\":2687:3230   */\n  pop\n  pop\n  pop\n  jump\t// out\n    /* \"#utility.yul\":3236:3353   */\ntag_26:\n    /* \"#utility.yul\":3290:3298   */\n  0x00\n    /* \"#utility.yul\":3340:3345   */\n  dup3\n    /* \"#utility.yul\":3334:3338   */\n  dup3\n    /* \"#utility.yul\":3330:3346   */\n  shr\n    /* \"#utility.yul\":3309:3346   */\n  swap1\n  pop\n    /* \"#utility.yul\":3236:3353   */\n  swap3\n  swap2\n  pop\n  pop\n  jump\t// out\n    /* \"#utility.yul\":3359:3528   */\ntag_27:\n    /* \"#utility.yul\":3403:3409   */\n  0x00\n    /* \"#utility.yul\":3436:3487   */\n  tag_79\n    /* \"#utility.yul\":3484:3485   */\n  0x00\n    /* \"#utility.yul\":3480:3486   */\n  not\n    /* \"#utility.yul\":3472:3477   */\n  dup5\n    /* \"#utility.yul\":3469:3470   */\n  0x08\n    /* \"#utility.yul\":3465:3478   */\n  mul\n    /* \"#utility.yul\":3436:3487   */\n  tag_26\n  jump\t// in\ntag_79:\n    /* \"#utility.yul\":3432:3488   */\n  not\n    /* \"#utility.yul\":3517:3521   */\n  dup1\n    /* \"#utility.yul\":3511:3515   */\n  dup4\n    /* \"#utility.yul\":3507:3522   */\n  and\n    /* \"#utility.yul\":3497:3522   */\n  swap2\n  pop\n    /* \"#utility.yul\":3410:3528   */\n  pop\n    /* \"#utility.yul\":3359:3528   */\n  swap3\n  swap2\n  pop\n  pop\n  jump\t// out\n    /* \"#utility.yul\":3533:3828   */\ntag_28:\n    /* \"#utility.yul\":3609:3613   */\n  0x00\n    /* \"#utility.yul\":3755:3784   */\n  tag_81\n    /* \"#utility.yul\":3780:3783   */\n  dup4\n    /* \"#utility.yul\":3774:3778   */\n  dup4\n    /* \"#utility.yul\":3755:3784   */\n  tag_27\n  jump\t// in\ntag_81:\n    /* \"#utility.yul\":3747:3784   */\n  swap2\n  pop\n    /* \"#utility.yul\":3817:3820   */\n  dup3\n    /* \"#utility.yul\":3814:3815   */\n  0x02\n    /* \"#utility.yul\":3810:3821   */\n  mul\n    /* \"#utility.yul\":3804:3808   */\n  dup3\n    /* \"#utility.yul\":3801:3822   */\n  or\n    /* \"#utility.yul\":3793:3822   */\n  swap1\n  pop\n    /* \"#utility.yul\":3533:3828   */\n  swap3\n  swap2\n  pop\n  pop\n  jump\t// out\n    /* \"#utility.yul\":3833:5228   */\ntag_2:\n    /* \"#utility.yul\":3950:3987   */\n  tag_83\n    /* \"#utility.yul\":3983:3986   */\n  dup3\n    /* \"#utility.yul\":3950:3987   */\n  tag_9\n  jump\t// in\ntag_83:\n    /* \"#utility.yul\":4052:4070   */\n  0xffffffffffffffff\n    /* \"#utility.yul\":4044:4050   */\n  dup2\n    /* \"#utility.yul\":4041:4071   */\n  gt\n    /* \"#utility.yul\":4038:4094   */\n  iszero\n  tag_84\n  jumpi\n    /* \"#utility.yul\":4074:4092   */\n  tag_85\n  tag_10\n  jump\t// in\ntag_85:\n    /* \"#utility.yul\":4038:4094   */\ntag_84:\n    /* \"#utility.yul\":4118:4156   */\n  tag_86\n    /* \"#utility.yul\":4150:4154   */\n  dup3\n    /* \"#utility.yul\":4144:4155   */\n  sload\n    /* \"#utility.yul\":4118:4156   */\n  tag_12\n  jump\t// in\ntag_86:\n    /* \"#utility.yul\":4203:4270   */\n  tag_87\n    /* \"#utility.yul\":4263:4269   */\n  dup3\n    /* \"#utility.yul\":4255:4261   */\n  dup3\n    /* \"#utility.yul\":4249:4253   */\n  dup6\n    /* \"#utility.yul\":4203:4270   */\n  tag_25\n  jump\t// in\ntag_87:\n    /* \"#utility.yul\":4297:4298   */\n  0x00\n    /* \"#utility.yul\":4321:4325   */\n  0x20\n    /* \"#utility.yul\":4308:4325   */\n  swap1\n  pop\n    /* \"#utility.yul\":4353:4355   */\n  0x1f\n    /* \"#utility.yul\":4345:4351   */\n  dup4\n    /* \"#utility.yul\":4342:4356   */\n  gt\n    /* \"#utility.yul\":4370:4371   */\n  0x01\n    /* \"#utility.yul\":4365:4983   */\n  dup2\n  eq\n  tag_89\n  jumpi\n    /* \"#utility.yul\":5027:5028   */\n  0x00\n    /* \"#utility.yul\":5044:5050   */\n  dup5\n    /* \"#utility.yul\":5041:5118   */\n  iszero\n  tag_90\n  jumpi\n    /* \"#utility.yul\":5093:5102   */\n  dup3\n    /* \"#utility.yul\":5088:5091   */\n  dup8\n    /* \"#utility.yul\":5084:5103   */\n  add\n    /* \"#utility.yul\":5078:5104   */\n  mload\n    /* \"#utility.yul\":5069:5104   */\n  swap1\n  pop\n    /* \"#utility.yul\":5041:5118   */\ntag_90:\n    /* \"#utility.yul\":5144:5211   */\n  tag_91\n    /* \"#utility.yul\":5204:5210   */\n  dup6\n    /* \"#utility.yul\":5197:5202   */\n  dup3\n    /* \"#utility.yul\":5144:5211   */\n  tag_28\n  jump\t// in\ntag_91:\n    /* \"#utility.yul\":5138:5142   */\n  dup7\n    /* \"#utility.yul\":5131:5212   */\n  sstore\n    /* \"#utility.yul\":5000:5222   */\n  pop\n    /* \"#utility.yul\":4335:5222   */\n  jump(tag_88)\n    /* \"#utility.yul\":4365:4983   */\ntag_89:\n    /* \"#utility.yul\":4417:4421   */\n  0x1f\n    /* \"#utility.yul\":4413:4422   */\n  not\n    /* \"#utility.yul\":4405:4411   */\n  dup5\n    /* \"#utility.yul\":4401:4423   */\n  and\n    /* \"#utility.yul\":4451:4488   */\n  tag_92\n    /* \"#utility.yul\":4483:4487   */\n  dup7\n    /* \"#utility.yul\":4451:4488   */\n  tag_13\n  jump\t// in\ntag_92:\n    /* \"#utility.yul\":4510:4511   */\n  0x00\n    /* \"#utility.yul\":4524:4732   */\ntag_93:\n    /* \"#utility.yul\":4538:4545   */\n  dup3\n    /* \"#utility.yul\":4535:4536   */\n  dup2\n    /* \"#utility.yul\":4532:4546   */\n  lt\n    /* \"#utility.yul\":4524:4732   */\n  iszero\n  tag_95\n  jumpi\n    /* \"#utility.yul\":4617:4626   */\n  dup5\n    /* \"#utility.yul\":4612:4615   */\n  dup10\n    /* \"#utility.yul\":4608:4627   */\n  add\n    /* \"#utility.yul\":4602:4628   */\n  mload\n    /* \"#utility.yul\":4594:4600   */\n  dup3\n    /* \"#utility.yul\":4587:4629   */\n  sstore\n    /* \"#utility.yul\":4668:4669   */\n  0x01\n    /* \"#utility.yul\":4660:4666   */\n  dup3\n    /* \"#utility.yul\":4656:4670   */\n  add\n    /* \"#utility.yul\":4646:4670   */\n  swap2\n  pop\n    /* \"#utility.yul\":4715:4717   */\n  0x20\n    /* \"#utility.yul\":4704:4713   */\n  dup6\n    /* \"#utility.yul\":4700:4718   */\n  add\n    /* \"#utility.yul\":4687:4718   */\n  swap5\n  pop\n    /* \"#utility.yul\":4561:4565   */\n  0x20\n    /* \"#utility.yul\":4558:4559   */\n  dup2\n    /* \"#utility.yul\":4554:4566   */\n  add\n    /* \"#utility.yul\":4549:4566   */\n  swap1\n  pop\n    /* \"#utility.yul\":4524:4732   */\n  jump(tag_93)\ntag_95:\n    /* \"#utility.yul\":4760:4766   */\n  dup7\n    /* \"#utility.yul\":4751:4758   */\n  dup4\n    /* \"#utility.yul\":4748:4767   */\n  lt\n    /* \"#utility.yul\":4745:4924   */\n  iszero\n  tag_96\n  jumpi\n    /* \"#utility.yul\":4818:4827   */\n  dup5\n    /* \"#utility.yul\":4813:4816   */\n  dup10\n    /* \"#utility.yul\":4809:4828   */\n  add\n    /* \"#utility.yul\":4803:4829   */\n  mload\n    /* \"#utility.yul\":4861:4909   */\n  tag_97\n    /* \"#utility.yul\":4903:4907   */\n  0x1f\n    /* \"#utility.yul\":4895:4901   */\n  dup10\n    /* \"#utility.yul\":4891:4908   */\n  and\n    /* \"#utility.yul\":4880:4889   */\n  dup3\n    /* \"#utility.yul\":4861:4909   */\n  tag_27\n  jump\t// in\ntag_97:\n    /* \"#utility.yul\":4853:4859   */\n  dup4\n    /* \"#utility.yul\":4846:4910   */\n  sstore\n    /* \"#utility.yul\":4768:4924   */\n  pop\n    /* \"#utility.yul\":4745:4924   */\ntag_96:\n    /* \"#utility.yul\":4970:4971   */\n  0x01\n    /* \"#utility.yul\":4966:4967   */\n  0x02\n    /* \"#utility.yul\":4958:4964   */\n  dup9\n    /* \"#utility.yul\":4954:4968   */\n  mul\n    /* \"#utility.yul\":4950:4972   */\n  add\n    /* \"#utility.yul\":4944:4948   */\n  dup9\n    /* \"#utility.yul\":4937:4973   */\n  sstore\n    /* \"#utility.yul\":4372:4983   */\n  pop\n  pop\n  pop\n    /* \"#utility.yul\":4335:5222   */\ntag_88:\n  pop\n    /* \"#utility.yul\":3925:5228   */\n  pop\n  pop\n  pop\n    /* \"#utility.yul\":3833:5228   */\n  pop\n  pop\n  jump\t// out\n    /* \"#utility.yul\":5315:5432   */\ntag_30:\n    /* \"#utility.yul\":5424:5425   */\n  0x00\n    /* \"#utility.yul\":5421:5422   */\n  dup1\n    /* \"#utility.yul\":5414:5426   */\n  revert\n    /* \"#utility.yul\":5561:5687   */\ntag_32:\n    /* \"#utility.yul\":5598:5605   */\n  0x00\n    /* \"#utility.yul\":5638:5680   */\n  0xffffffffffffffffffffffffffffffffffffffff\n    /* \"#utility.yul\":5631:5636   */\n  dup3\n    /* \"#utility.yul\":5627:5681   */\n  and\n    /* \"#utility.yul\":5616:5681   */\n  swap1\n  pop\n    /* \"#utility.yul\":5561:5687   */\n  swap2\n  swap1\n  pop\n  jump\t// out\n    /* \"#utility.yul\":5693:5789   */\ntag_33:\n    /* \"#utility.yul\":5730:5737   */\n  0x00\n    /* \"#utility.yul\":5759:5783   */\n  tag_103\n    /* \"#utility.yul\":5777:5782   */\n  dup3\n    /* \"#utility.yul\":5759:5783   */\n  tag_32\n  jump\t// in\ntag_103:\n    /* \"#utility.yul\":5748:5783   */\n  swap1\n  pop\n    /* \"#utility.yul\":5693:5789   */\n  swap2\n  swap1\n  pop\n  jump\t// out\n    /* \"#utility.yul\":5795:5917   */\ntag_34:\n    /* \"#utility.yul\":5868:5892   */\n  tag_105\n    /* \"#utility.yul\":5886:5891   */\n  dup2\n    /* \"#utility.yul\":5868:5892   */\n  tag_33\n  jump\t// in\ntag_105:\n    /* \"#utility.yul\":5861:5866   */\n  dup2\n    /* \"#utility.yul\":5858:5893   */\n  eq\n    /* \"#utility.yul\":5848:5911   */\n  tag_106\n  jumpi\n    /* \"#utility.yul\":5907:5908   */\n  0x00\n    /* \"#utility.yul\":5904:5905   */\n  dup1\n    /* \"#utility.yul\":5897:5909   */\n  revert\n    /* \"#utility.yul\":5848:5911   */\ntag_106:\n    /* \"#utility.yul\":5795:5917   */\n  pop\n  jump\t// out\n    /* \"#utility.yul\":5923:6066   */\ntag_35:\n    /* \"#utility.yul\":5980:5985   */\n  0x00\n    /* \"#utility.yul\":6011:6017   */\n  dup2\n    /* \"#utility.yul\":6005:6018   */\n  mload\n    /* \"#utility.yul\":5996:6018   */\n  swap1\n  pop\n    /* \"#utility.yul\":6027:6060   */\n  tag_108\n    /* \"#utility.yul\":6054:6059   */\n  dup2\n    /* \"#utility.yul\":6027:6060   */\n  tag_34\n  jump\t// in\ntag_108:\n    /* \"#utility.yul\":5923:6066   */\n  swap3\n  swap2\n  pop\n  pop\n  jump\t// out\n    /* \"#utility.yul\":6072:6423   */\ntag_5:\n    /* \"#utility.yul\":6142:6148   */\n  0x00\n    /* \"#utility.yul\":6191:6193   */\n  0x20\n    /* \"#utility.yul\":6179:6188   */\n  dup3\n    /* \"#utility.yul\":6170:6177   */\n  dup5\n    /* \"#utility.yul\":6166:6189   */\n  sub\n    /* \"#utility.yul\":6162:6194   */\n  slt\n    /* \"#utility.yul\":6159:6278   */\n  iszero\n  tag_110\n  jumpi\n    /* \"#utility.yul\":6197:6276   */\n  tag_111\n  tag_30\n  jump\t// in\ntag_111:\n    /* \"#utility.yul\":6159:6278   */\ntag_110:\n    /* \"#utility.yul\":6317:6318   */\n  0x00\n    /* \"#utility.yul\":6342:6406   */\n  tag_112\n    /* \"#utility.yul\":6398:6405   */\n  dup5\n    /* \"#utility.yul\":6389:6395   */\n  dup3\n    /* \"#utility.yul\":6378:6387   */\n  dup6\n    /* \"#utility.yul\":6374:6396   */\n  add\n    /* \"#utility.yul\":6342:6406   */\n  tag_35\n  jump\t// in\ntag_112:\n    /* \"#utility.yul\":6332:6406   */\n  swap2\n  pop\n    /* \"#utility.yul\":6288:6416   */\n  pop\n    /* \"#utility.yul\":6072:6423   */\n  swap3\n  swap2\n  pop\n  pop\n  jump\t// out\n    /* \"contracts/MyLearningEnv.sol\":60:4015  contract ExampleVariables{... */\ntag_8:\n  dataSize(sub_0)\n  dup1\n  dataOffset(sub_0)\n  0x00\n  codecopy\n  0x00\n  return\nstop\n\nsub_0: assembly {\n        /* \"contracts/MyLearningEnv.sol\":60:4015  contract ExampleVariables{... */\n      mstore(0x40, 0x80)\n      callvalue\n      dup1\n      iszero\n      tag_1\n      jumpi\n      0x00\n      dup1\n      revert\n    tag_1:\n      pop\n      jumpi(tag_2, lt(calldatasize, 0x04))\n      shr(0xe0, calldataload(0x00))\n      dup1\n      0x777d850f\n      gt\n      tag_23\n      jumpi\n      dup1\n      0xa8a7b895\n      gt\n      tag_24\n      jumpi\n      dup1\n      0xa8a7b895\n      eq\n      tag_18\n      jumpi\n      dup1\n      0xda50eaee\n      eq\n      tag_19\n      jumpi\n      dup1\n      0xdc928e4b\n      eq\n      tag_20\n      jumpi\n      dup1\n      0xe492fd84\n      eq\n      tag_21\n      jumpi\n      dup1\n      0xeb1b30d9\n      eq\n      tag_22\n      jumpi\n      jump(tag_2)\n    tag_24:\n      dup1\n      0x777d850f\n      eq\n      tag_13\n      jumpi\n      dup1\n      0x82180568\n      eq\n      tag_14\n      jumpi\n      dup1\n      0x8b1f61c8\n      eq\n      tag_15\n      jumpi\n      dup1\n      0x91aba7a1\n      eq\n      tag_16\n      jumpi\n      dup1\n      0x9b57e711\n      eq\n      tag_17\n      jumpi\n      jump(tag_2)\n    tag_23:\n      dup1\n      0x5f6a36da\n      gt\n      tag_25\n      jumpi\n      dup1\n      0x5f6a36da\n      eq\n      tag_8\n      jumpi\n      dup1\n      0x64e813a2\n      eq\n      tag_9\n      jumpi\n      dup1\n      0x6deecdbe\n      eq\n      tag_10\n      jumpi\n      dup1\n      0x6e5ca88d\n      eq\n      tag_11\n      jumpi\n      dup1\n      0x75eb2ad1\n      eq\n      tag_12\n      jumpi\n      jump(tag_2)\n    tag_25:\n      dup1\n      0x06540f7e\n      eq\n      tag_3\n      jumpi\n      dup1\n      0x08b9e850\n      eq\n      tag_4\n      jumpi\n      dup1\n      0x18e5f16b\n      eq\n      tag_5\n      jumpi\n      dup1\n      0x492bfa18\n      eq\n      tag_6\n      jumpi\n      dup1\n      0x5ce25353\n      eq\n      tag_7\n      jumpi\n    tag_2:\n      0x00\n      dup1\n      revert\n        /* \"contracts/MyLearningEnv.sol\":531:549  uint public myUint */\n    tag_3:\n      tag_26\n      tag_27\n      jump\t// in\n    tag_26:\n      mload(0x40)\n      tag_28\n      swap2\n      swap1\n      tag_29\n      jump\t// in\n    tag_28:\n      mload(0x40)\n      dup1\n      swap2\n      sub\n      swap1\n      return\n        /* \"contracts/MyLearningEnv.sol\":3042:3134  function getAddition (uint a, uint b) public pure returns(uint){... */\n    tag_4:\n      tag_30\n      0x04\n      dup1\n      calldatasize\n      sub\n      dup2\n      add\n      swap1\n      tag_31\n      swap2\n      swap1\n      tag_32\n      jump\t// in\n    tag_31:\n      tag_33\n      jump\t// in\n    tag_30:\n      mload(0x40)\n      tag_34\n      swap2\n      swap1\n      tag_29\n      jump\t// in\n    tag_34:\n      mload(0x40)\n      dup1\n      swap2\n      sub\n      swap1\n      return\n        /* \"contracts/MyLearningEnv.sol\":2428:2454  address public someAddress */\n    tag_5:\n      tag_35\n      tag_36\n      jump\t// in\n    tag_35:\n      mload(0x40)\n      tag_37\n      swap2\n      swap1\n      tag_38\n      jump\t// in\n    tag_37:\n      mload(0x40)\n      dup1\n      swap2\n      sub\n      swap1\n      return\n        /* \"contracts/MyLearningEnv.sol\":1537:1576  string public myString = \"Desperado OY\" */\n    tag_6:\n      tag_39\n      tag_40\n      jump\t// in\n    tag_39:\n      mload(0x40)\n      tag_41\n      swap2\n      swap1\n      tag_42\n      jump\t// in\n    tag_41:\n      mload(0x40)\n      dup1\n      swap2\n      sub\n      swap1\n      return\n        /* \"contracts/MyLearningEnv.sol\":2033:2315  function compareTwoStrings(string memory _myString) public view returns (bool) {... */\n    tag_7:\n      tag_43\n      0x04\n      dup1\n      calldatasize\n      sub\n      dup2\n      add\n      swap1\n      tag_44\n      swap2\n      swap1\n      tag_45\n      jump\t// in\n    tag_44:\n      tag_46\n      jump\t// in\n    tag_43:\n      mload(0x40)\n      tag_47\n      swap2\n      swap1\n      tag_48\n      jump\t// in\n    tag_47:\n      mload(0x40)\n      dup1\n      swap2\n      sub\n      swap1\n      return\n        /* \"contracts/MyLearningEnv.sol\":3251:3352  function getMyStorageVariable() public view returns (uint){... */\n    tag_8:\n      tag_49\n      tag_50\n      jump\t// in\n    tag_49:\n      mload(0x40)\n      tag_51\n      swap2\n      swap1\n      tag_29\n      jump\t// in\n    tag_51:\n      mload(0x40)\n      dup1\n      swap2\n      sub\n      swap1\n      return\n        /* \"contracts/MyLearningEnv.sol\":3697:3725  address public testerAddress */\n    tag_9:\n      tag_52\n      tag_53\n      jump\t// in\n    tag_52:\n      mload(0x40)\n      tag_54\n      swap2\n      swap1\n      tag_38\n      jump\t// in\n    tag_54:\n      mload(0x40)\n      dup1\n      swap2\n      sub\n      swap1\n      return\n        /* \"contracts/MyLearningEnv.sol\":400:418  bool public myBool */\n    tag_10:\n      tag_55\n      tag_56\n      jump\t// in\n    tag_55:\n      mload(0x40)\n      tag_57\n      swap2\n      swap1\n      tag_48\n      jump\t// in\n    tag_57:\n      mload(0x40)\n      dup1\n      swap2\n      sub\n      swap1\n      return\n        /* \"contracts/MyLearningEnv.sol\":3005:3035  uint8 public myStorageVariable */\n    tag_11:\n      tag_58\n      tag_59\n      jump\t// in\n    tag_58:\n      mload(0x40)\n      tag_60\n      swap2\n      swap1\n      tag_61\n      jump\t// in\n    tag_60:\n      mload(0x40)\n      dup1\n      swap2\n      sub\n      swap1\n      return\n        /* \"contracts/MyLearningEnv.sol\":2567:2667  function getAddressBalance() public view returns(uint){... */\n    tag_12:\n      tag_62\n      tag_63\n      jump\t// in\n    tag_62:\n      mload(0x40)\n      tag_64\n      swap2\n      swap1\n      tag_29\n      jump\t// in\n    tag_64:\n      mload(0x40)\n      dup1\n      swap2\n      sub\n      swap1\n      return\n        /* \"contracts/MyLearningEnv.sol\":3552:3689  function setMyStorageVariable(uint8 _newVar) public returns(uint){... */\n    tag_13:\n      tag_65\n      0x04\n      dup1\n      calldatasize\n      sub\n      dup2\n      add\n      swap1\n      tag_66\n      swap2\n      swap1\n      tag_67\n      jump\t// in\n    tag_66:\n      tag_68\n      jump\t// in\n    tag_65:\n      mload(0x40)\n      tag_69\n      swap2\n      swap1\n      tag_29\n      jump\t// in\n    tag_69:\n      mload(0x40)\n      dup1\n      swap2\n      sub\n      swap1\n      return\n        /* \"contracts/MyLearningEnv.sol\":1817:1908  function setMyString(string memory _myString) public{... */\n    tag_14:\n      tag_70\n      0x04\n      dup1\n      calldatasize\n      sub\n      dup2\n      add\n      swap1\n      tag_71\n      swap2\n      swap1\n      tag_45\n      jump\t// in\n    tag_71:\n      tag_72\n      jump\t// in\n    tag_70:\n      stop\n        /* \"contracts/MyLearningEnv.sol\":1427:1529  function decrementUintUnchecked() public{... */\n    tag_15:\n      tag_73\n      tag_74\n      jump\t// in\n    tag_73:\n      stop\n        /* \"contracts/MyLearningEnv.sol\":2394:2421  address public myEthAddress */\n    tag_16:\n      tag_75\n      tag_76\n      jump\t// in\n    tag_75:\n      mload(0x40)\n      tag_77\n      swap2\n      swap1\n      tag_38\n      jump\t// in\n    tag_77:\n      mload(0x40)\n      dup1\n      swap2\n      sub\n      swap1\n      return\n        /* \"contracts/MyLearningEnv.sol\":2675:2825  function updateSomeAddress() public{... */\n    tag_17:\n      tag_78\n      tag_79\n      jump\t// in\n    tag_78:\n      stop\n        /* \"contracts/MyLearningEnv.sol\":2467:2559  function setMyAddress(address _myAddress) public{... */\n    tag_18:\n      tag_80\n      0x04\n      dup1\n      calldatasize\n      sub\n      dup2\n      add\n      swap1\n      tag_81\n      swap2\n      swap1\n      tag_82\n      jump\t// in\n    tag_81:\n      tag_83\n      jump\t// in\n    tag_80:\n      stop\n        /* \"contracts/MyLearningEnv.sol\":1300:1358  function decrementUint() public{... */\n    tag_19:\n      tag_84\n      tag_85\n      jump\t// in\n    tag_84:\n      stop\n        /* \"contracts/MyLearningEnv.sol\":860:880  uint8 public muUint8 */\n    tag_20:\n      tag_86\n      tag_87\n      jump\t// in\n    tag_86:\n      mload(0x40)\n      tag_88\n      swap2\n      swap1\n      tag_61\n      jump\t// in\n    tag_88:\n      mload(0x40)\n      dup1\n      swap2\n      sub\n      swap1\n      return\n        /* \"contracts/MyLearningEnv.sol\":969:1043  function setMyUint(uint _myUint) public{... */\n    tag_21:\n      tag_89\n      0x04\n      dup1\n      calldatasize\n      sub\n      dup2\n      add\n      swap1\n      tag_90\n      swap2\n      swap1\n      tag_91\n      jump\t// in\n    tag_90:\n      tag_92\n      jump\t// in\n    tag_89:\n      stop\n        /* \"contracts/MyLearningEnv.sol\":889:963  function setMyBool(bool _myBool) public{... */\n    tag_22:\n      tag_93\n      0x04\n      dup1\n      calldatasize\n      sub\n      dup2\n      add\n      swap1\n      tag_94\n      swap2\n      swap1\n      tag_95\n      jump\t// in\n    tag_94:\n      tag_96\n      jump\t// in\n    tag_93:\n      stop\n        /* \"contracts/MyLearningEnv.sol\":531:549  uint public myUint */\n    tag_27:\n      sload(0x01)\n      dup2\n      jump\t// out\n        /* \"contracts/MyLearningEnv.sol\":3042:3134  function getAddition (uint a, uint b) public pure returns(uint){... */\n    tag_33:\n        /* \"contracts/MyLearningEnv.sol\":3100:3104  uint */\n      0x00\n        /* \"contracts/MyLearningEnv.sol\":3125:3126  b */\n      dup2\n        /* \"contracts/MyLearningEnv.sol\":3123:3124  a */\n      dup4\n        /* \"contracts/MyLearningEnv.sol\":3123:3126  a+b */\n      tag_98\n      swap2\n      swap1\n      tag_99\n      jump\t// in\n    tag_98:\n        /* \"contracts/MyLearningEnv.sol\":3116:3126  return a+b */\n      swap1\n      pop\n        /* \"contracts/MyLearningEnv.sol\":3042:3134  function getAddition (uint a, uint b) public pure returns(uint){... */\n      swap3\n      swap2\n      pop\n      pop\n      jump\t// out\n        /* \"contracts/MyLearningEnv.sol\":2428:2454  address public someAddress */\n    tag_36:\n      0x05\n      0x00\n      swap1\n      sload\n      swap1\n      0x0100\n      exp\n      swap1\n      div\n      0xffffffffffffffffffffffffffffffffffffffff\n      and\n      dup2\n      jump\t// out\n        /* \"contracts/MyLearningEnv.sol\":1537:1576  string public myString = \"Desperado OY\" */\n    tag_40:\n      0x03\n      dup1\n      sload\n      tag_100\n      swap1\n      tag_101\n      jump\t// in\n    tag_100:\n      dup1\n      0x1f\n      add\n      0x20\n      dup1\n      swap2\n      div\n      mul\n      0x20\n      add\n      mload(0x40)\n      swap1\n      dup2\n      add\n      0x40\n      mstore\n      dup1\n      swap3\n      swap2\n      swap1\n      dup2\n      dup2\n      mstore\n      0x20\n      add\n      dup3\n      dup1\n      sload\n      tag_102\n      swap1\n      tag_101\n      jump\t// in\n    tag_102:\n      dup1\n      iszero\n      tag_103\n      jumpi\n      dup1\n      0x1f\n      lt\n      tag_104\n      jumpi\n      0x0100\n      dup1\n      dup4\n      sload\n      div\n      mul\n      dup4\n      mstore\n      swap2\n      0x20\n      add\n      swap2\n      jump(tag_103)\n    tag_104:\n      dup3\n      add\n      swap2\n      swap1\n      0x00\n      mstore\n      keccak256(0x00, 0x20)\n      swap1\n    tag_105:\n      dup2\n      sload\n      dup2\n      mstore\n      swap1\n      0x01\n      add\n      swap1\n      0x20\n      add\n      dup1\n      dup4\n      gt\n      tag_105\n      jumpi\n      dup3\n      swap1\n      sub\n      0x1f\n      and\n      dup3\n      add\n      swap2\n    tag_103:\n      pop\n      pop\n      pop\n      pop\n      pop\n      dup2\n      jump\t// out\n        /* \"contracts/MyLearningEnv.sol\":2033:2315  function compareTwoStrings(string memory _myString) public view returns (bool) {... */\n    tag_46:\n        /* \"contracts/MyLearningEnv.sol\":2106:2110  bool */\n      0x00\n        /* \"contracts/MyLearningEnv.sol\":2296:2305  _myString */\n      dup2\n        /* \"contracts/MyLearningEnv.sol\":2279:2306  abi.encodePacked(_myString) */\n      add(0x20, mload(0x40))\n      tag_107\n      swap2\n      swap1\n      tag_108\n      jump\t// in\n    tag_107:\n      mload(0x40)\n      0x20\n      dup2\n      dup4\n      sub\n      sub\n      dup2\n      mstore\n      swap1\n      0x40\n      mstore\n        /* \"contracts/MyLearningEnv.sol\":2269:2307  keccak256(abi.encodePacked(_myString)) */\n      dup1\n      mload\n      swap1\n      0x20\n      add\n      keccak256\n        /* \"contracts/MyLearningEnv.sol\":2255:2263  myString */\n      0x03\n        /* \"contracts/MyLearningEnv.sol\":2238:2264  abi.encodePacked(myString) */\n      add(0x20, mload(0x40))\n      tag_109\n      swap2\n      swap1\n      tag_110\n      jump\t// in\n    tag_109:\n      mload(0x40)\n      0x20\n      dup2\n      dup4\n      sub\n      sub\n      dup2\n      mstore\n      swap1\n      0x40\n      mstore\n        /* \"contracts/MyLearningEnv.sol\":2228:2265  keccak256(abi.encodePacked(myString)) */\n      dup1\n      mload\n      swap1\n      0x20\n      add\n      keccak256\n        /* \"contracts/MyLearningEnv.sol\":2228:2307  keccak256(abi.encodePacked(myString)) == keccak256(abi.encodePacked(_myString)) */\n      eq\n        /* \"contracts/MyLearningEnv.sol\":2221:2307  return keccak256(abi.encodePacked(myString)) == keccak256(abi.encodePacked(_myString)) */\n      swap1\n      pop\n        /* \"contracts/MyLearningEnv.sol\":2033:2315  function compareTwoStrings(string memory _myString) public view returns (bool) {... */\n      swap2\n      swap1\n      pop\n      jump\t// out\n        /* \"contracts/MyLearningEnv.sol\":3251:3352  function getMyStorageVariable() public view returns (uint){... */\n    tag_50:\n        /* \"contracts/MyLearningEnv.sol\":3304:3308  uint */\n      0x00\n        /* \"contracts/MyLearningEnv.sol\":3327:3344  myStorageVariable */\n      0x05\n      0x14\n      swap1\n      sload\n      swap1\n      0x0100\n      exp\n      swap1\n      div\n      0xff\n      and\n        /* \"contracts/MyLearningEnv.sol\":3320:3344  return myStorageVariable */\n      0xff\n      and\n      swap1\n      pop\n        /* \"contracts/MyLearningEnv.sol\":3251:3352  function getMyStorageVariable() public view returns (uint){... */\n      swap1\n      jump\t// out\n        /* \"contracts/MyLearningEnv.sol\":3697:3725  address public testerAddress */\n    tag_53:\n      0x06\n      0x00\n      swap1\n      sload\n      swap1\n      0x0100\n      exp\n      swap1\n      div\n      0xffffffffffffffffffffffffffffffffffffffff\n      and\n      dup2\n      jump\t// out\n        /* \"contracts/MyLearningEnv.sol\":400:418  bool public myBool */\n    tag_56:\n      0x00\n      dup1\n      sload\n      swap1\n      0x0100\n      exp\n      swap1\n      div\n      0xff\n      and\n      dup2\n      jump\t// out\n        /* \"contracts/MyLearningEnv.sol\":3005:3035  uint8 public myStorageVariable */\n    tag_59:\n      0x05\n      0x14\n      swap1\n      sload\n      swap1\n      0x0100\n      exp\n      swap1\n      div\n      0xff\n      and\n      dup2\n      jump\t// out\n        /* \"contracts/MyLearningEnv.sol\":2567:2667  function getAddressBalance() public view returns(uint){... */\n    tag_63:\n        /* \"contracts/MyLearningEnv.sol\":2616:2620  uint */\n      0x00\n        /* \"contracts/MyLearningEnv.sol\":2639:2651  myEthAddress */\n      0x04\n      0x00\n      swap1\n      sload\n      swap1\n      0x0100\n      exp\n      swap1\n      div\n      0xffffffffffffffffffffffffffffffffffffffff\n      and\n        /* \"contracts/MyLearningEnv.sol\":2639:2659  myEthAddress.balance */\n      0xffffffffffffffffffffffffffffffffffffffff\n      and\n      balance\n        /* \"contracts/MyLearningEnv.sol\":2632:2659  return myEthAddress.balance */\n      swap1\n      pop\n        /* \"contracts/MyLearningEnv.sol\":2567:2667  function getAddressBalance() public view returns(uint){... */\n      swap1\n      jump\t// out\n        /* \"contracts/MyLearningEnv.sol\":3552:3689  function setMyStorageVariable(uint8 _newVar) public returns(uint){... */\n    tag_68:\n        /* \"contracts/MyLearningEnv.sol\":3612:3616  uint */\n      0x00\n        /* \"contracts/MyLearningEnv.sol\":3648:3655  _newVar */\n      dup2\n        /* \"contracts/MyLearningEnv.sol\":3628:3645  myStorageVariable */\n      0x05\n      0x14\n        /* \"contracts/MyLearningEnv.sol\":3628:3655  myStorageVariable = _newVar */\n      0x0100\n      exp\n      dup2\n      sload\n      dup2\n      0xff\n      mul\n      not\n      and\n      swap1\n      dup4\n      0xff\n      and\n      mul\n      or\n      swap1\n      sstore\n      pop\n        /* \"contracts/MyLearningEnv.sol\":3674:3681  _newVar */\n      dup2\n        /* \"contracts/MyLearningEnv.sol\":3666:3681  return  _newVar */\n      0xff\n      and\n      swap1\n      pop\n        /* \"contracts/MyLearningEnv.sol\":3552:3689  function setMyStorageVariable(uint8 _newVar) public returns(uint){... */\n      swap2\n      swap1\n      pop\n      jump\t// out\n        /* \"contracts/MyLearningEnv.sol\":1817:1908  function setMyString(string memory _myString) public{... */\n    tag_72:\n        /* \"contracts/MyLearningEnv.sol\":1891:1900  _myString */\n      dup1\n        /* \"contracts/MyLearningEnv.sol\":1880:1888  myString */\n      0x03\n        /* \"contracts/MyLearningEnv.sol\":1880:1900  myString = _myString */\n      swap1\n      dup2\n      tag_115\n      swap2\n      swap1\n      tag_116\n      jump\t// in\n    tag_115:\n      pop\n        /* \"contracts/MyLearningEnv.sol\":1817:1908  function setMyString(string memory _myString) public{... */\n      pop\n      jump\t// out\n        /* \"contracts/MyLearningEnv.sol\":1427:1529  function decrementUintUnchecked() public{... */\n    tag_74:\n        /* \"contracts/MyLearningEnv.sol\":1502:1508  myUint */\n      0x01\n      0x00\n        /* \"contracts/MyLearningEnv.sol\":1502:1510  myUint-- */\n      dup2\n      sload\n      dup1\n      swap3\n      swap2\n      swap1\n      0x01\n      swap1\n      sub\n      swap2\n      swap1\n      pop\n      sstore\n      pop\n        /* \"contracts/MyLearningEnv.sol\":1427:1529  function decrementUintUnchecked() public{... */\n      jump\t// out\n        /* \"contracts/MyLearningEnv.sol\":2394:2421  address public myEthAddress */\n    tag_76:\n      0x04\n      0x00\n      swap1\n      sload\n      swap1\n      0x0100\n      exp\n      swap1\n      div\n      0xffffffffffffffffffffffffffffffffffffffff\n      and\n      dup2\n      jump\t// out\n        /* \"contracts/MyLearningEnv.sol\":2675:2825  function updateSomeAddress() public{... */\n    tag_79:\n        /* \"contracts/MyLearningEnv.sol\":2807:2817  msg.sender */\n      caller\n        /* \"contracts/MyLearningEnv.sol\":2793:2804  someAddress */\n      0x05\n      0x00\n        /* \"contracts/MyLearningEnv.sol\":2793:2817  someAddress = msg.sender */\n      0x0100\n      exp\n      dup2\n      sload\n      dup2\n      0xffffffffffffffffffffffffffffffffffffffff\n      mul\n      not\n      and\n      swap1\n      dup4\n      0xffffffffffffffffffffffffffffffffffffffff\n      and\n      mul\n      or\n      swap1\n      sstore\n      pop\n        /* \"contracts/MyLearningEnv.sol\":2675:2825  function updateSomeAddress() public{... */\n      jump\t// out\n        /* \"contracts/MyLearningEnv.sol\":2467:2559  function setMyAddress(address _myAddress) public{... */\n    tag_83:\n        /* \"contracts/MyLearningEnv.sol\":2541:2551  _myAddress */\n      dup1\n        /* \"contracts/MyLearningEnv.sol\":2526:2538  myEthAddress */\n      0x04\n      0x00\n        /* \"contracts/MyLearningEnv.sol\":2526:2551  myEthAddress = _myAddress */\n      0x0100\n      exp\n      dup2\n      sload\n      dup2\n      0xffffffffffffffffffffffffffffffffffffffff\n      mul\n      not\n      and\n      swap1\n      dup4\n      0xffffffffffffffffffffffffffffffffffffffff\n      and\n      mul\n      or\n      swap1\n      sstore\n      pop\n        /* \"contracts/MyLearningEnv.sol\":2467:2559  function setMyAddress(address _myAddress) public{... */\n      pop\n      jump\t// out\n        /* \"contracts/MyLearningEnv.sol\":1300:1358  function decrementUint() public{... */\n    tag_85:\n        /* \"contracts/MyLearningEnv.sol\":1342:1348  myUint */\n      0x01\n      0x00\n        /* \"contracts/MyLearningEnv.sol\":1342:1350  myUint-- */\n      dup2\n      sload\n      dup1\n      swap3\n      swap2\n      swap1\n      tag_121\n      swap1\n      tag_122\n      jump\t// in\n    tag_121:\n      swap2\n      swap1\n      pop\n      sstore\n      pop\n        /* \"contracts/MyLearningEnv.sol\":1300:1358  function decrementUint() public{... */\n      jump\t// out\n        /* \"contracts/MyLearningEnv.sol\":860:880  uint8 public muUint8 */\n    tag_87:\n      0x02\n      0x00\n      swap1\n      sload\n      swap1\n      0x0100\n      exp\n      swap1\n      div\n      0xff\n      and\n      dup2\n      jump\t// out\n        /* \"contracts/MyLearningEnv.sol\":969:1043  function setMyUint(uint _myUint) public{... */\n    tag_92:\n        /* \"contracts/MyLearningEnv.sol\":1028:1035  _myUint */\n      dup1\n        /* \"contracts/MyLearningEnv.sol\":1019:1025  myUint */\n      0x01\n        /* \"contracts/MyLearningEnv.sol\":1019:1035  myUint = _myUint */\n      dup2\n      swap1\n      sstore\n      pop\n        /* \"contracts/MyLearningEnv.sol\":969:1043  function setMyUint(uint _myUint) public{... */\n      pop\n      jump\t// out\n        /* \"contracts/MyLearningEnv.sol\":889:963  function setMyBool(bool _myBool) public{... */\n    tag_96:\n        /* \"contracts/MyLearningEnv.sol\":948:955  _myBool */\n      dup1\n        /* \"contracts/MyLearningEnv.sol\":939:945  myBool */\n      0x00\n      dup1\n        /* \"contracts/MyLearningEnv.sol\":939:955  myBool = _myBool */\n      0x0100\n      exp\n      dup2\n      sload\n      dup2\n      0xff\n      mul\n      not\n      and\n      swap1\n      dup4\n      iszero\n      iszero\n      mul\n      or\n      swap1\n      sstore\n      pop\n        /* \"contracts/MyLearningEnv.sol\":889:963  function setMyBool(bool _myBool) public{... */\n      pop\n      jump\t// out\n        /* \"#utility.yul\":7:84   */\n    tag_125:\n        /* \"#utility.yul\":44:51   */\n      0x00\n        /* \"#utility.yul\":73:78   */\n      dup2\n        /* \"#utility.yul\":62:78   */\n      swap1\n      pop\n        /* \"#utility.yul\":7:84   */\n      swap2\n      swap1\n      pop\n      jump\t// out\n        /* \"#utility.yul\":90:208   */\n    tag_126:\n        /* \"#utility.yul\":177:201   */\n      tag_182\n        /* \"#utility.yul\":195:200   */\n      dup2\n        /* \"#utility.yul\":177:201   */\n      tag_125\n      jump\t// in\n    tag_182:\n        /* \"#utility.yul\":172:175   */\n      dup3\n        /* \"#utility.yul\":165:202   */\n      mstore\n        /* \"#utility.yul\":90:208   */\n      pop\n      pop\n      jump\t// out\n        /* \"#utility.yul\":214:436   */\n    tag_29:\n        /* \"#utility.yul\":307:311   */\n      0x00\n        /* \"#utility.yul\":345:347   */\n      0x20\n        /* \"#utility.yul\":334:343   */\n      dup3\n        /* \"#utility.yul\":330:348   */\n      add\n        /* \"#utility.yul\":322:348   */\n      swap1\n      pop\n        /* \"#utility.yul\":358:429   */\n      tag_184\n        /* \"#utility.yul\":426:427   */\n      0x00\n        /* \"#utility.yul\":415:424   */\n      dup4\n        /* \"#utility.yul\":411:428   */\n      add\n        /* \"#utility.yul\":402:408   */\n      dup5\n        /* \"#utility.yul\":358:429   */\n      tag_126\n      jump\t// in\n    tag_184:\n        /* \"#utility.yul\":214:436   */\n      swap3\n      swap2\n      pop\n      pop\n      jump\t// out\n        /* \"#utility.yul\":442:517   */\n    tag_127:\n        /* \"#utility.yul\":475:481   */\n      0x00\n        /* \"#utility.yul\":508:510   */\n      0x40\n        /* \"#utility.yul\":502:511   */\n      mload\n        /* \"#utility.yul\":492:511   */\n      swap1\n      pop\n        /* \"#utility.yul\":442:517   */\n      swap1\n      jump\t// out\n        /* \"#utility.yul\":523:640   */\n    tag_128:\n        /* \"#utility.yul\":632:633   */\n      0x00\n        /* \"#utility.yul\":629:630   */\n      dup1\n        /* \"#utility.yul\":622:634   */\n      revert\n        /* \"#utility.yul\":646:763   */\n    tag_129:\n        /* \"#utility.yul\":755:756   */\n      0x00\n        /* \"#utility.yul\":752:753   */\n      dup1\n        /* \"#utility.yul\":745:757   */\n      revert\n        /* \"#utility.yul\":769:891   */\n    tag_130:\n        /* \"#utility.yul\":842:866   */\n      tag_189\n        /* \"#utility.yul\":860:865   */\n      dup2\n        /* \"#utility.yul\":842:866   */\n      tag_125\n      jump\t// in\n    tag_189:\n        /* \"#utility.yul\":835:840   */\n      dup2\n        /* \"#utility.yul\":832:867   */\n      eq\n        /* \"#utility.yul\":822:885   */\n      tag_190\n      jumpi\n        /* \"#utility.yul\":881:882   */\n      0x00\n        /* \"#utility.yul\":878:879   */\n      dup1\n        /* \"#utility.yul\":871:883   */\n      revert\n        /* \"#utility.yul\":822:885   */\n    tag_190:\n        /* \"#utility.yul\":769:891   */\n      pop\n      jump\t// out\n        /* \"#utility.yul\":897:1036   */\n    tag_131:\n        /* \"#utility.yul\":943:948   */\n      0x00\n        /* \"#utility.yul\":981:987   */\n      dup2\n        /* \"#utility.yul\":968:988   */\n      calldataload\n        /* \"#utility.yul\":959:988   */\n      swap1\n      pop\n        /* \"#utility.yul\":997:1030   */\n      tag_192\n        /* \"#utility.yul\":1024:1029   */\n      dup2\n        /* \"#utility.yul\":997:1030   */\n      tag_130\n      jump\t// in\n    tag_192:\n        /* \"#utility.yul\":897:1036   */\n      swap3\n      swap2\n      pop\n      pop\n      jump\t// out\n        /* \"#utility.yul\":1042:1516   */\n    tag_32:\n        /* \"#utility.yul\":1110:1116   */\n      0x00\n        /* \"#utility.yul\":1118:1124   */\n      dup1\n        /* \"#utility.yul\":1167:1169   */\n      0x40\n        /* \"#utility.yul\":1155:1164   */\n      dup4\n        /* \"#utility.yul\":1146:1153   */\n      dup6\n        /* \"#utility.yul\":1142:1165   */\n      sub\n        /* \"#utility.yul\":1138:1170   */\n      slt\n        /* \"#utility.yul\":1135:1254   */\n      iszero\n      tag_194\n      jumpi\n        /* \"#utility.yul\":1173:1252   */\n      tag_195\n      tag_128\n      jump\t// in\n    tag_195:\n        /* \"#utility.yul\":1135:1254   */\n    tag_194:\n        /* \"#utility.yul\":1293:1294   */\n      0x00\n        /* \"#utility.yul\":1318:1371   */\n      tag_196\n        /* \"#utility.yul\":1363:1370   */\n      dup6\n        /* \"#utility.yul\":1354:1360   */\n      dup3\n        /* \"#utility.yul\":1343:1352   */\n      dup7\n        /* \"#utility.yul\":1339:1361   */\n      add\n        /* \"#utility.yul\":1318:1371   */\n      tag_131\n      jump\t// in\n    tag_196:\n        /* \"#utility.yul\":1308:1371   */\n      swap3\n      pop\n        /* \"#utility.yul\":1264:1381   */\n      pop\n        /* \"#utility.yul\":1420:1422   */\n      0x20\n        /* \"#utility.yul\":1446:1499   */\n      tag_197\n        /* \"#utility.yul\":1491:1498   */\n      dup6\n        /* \"#utility.yul\":1482:1488   */\n      dup3\n        /* \"#utility.yul\":1471:1480   */\n      dup7\n        /* \"#utility.yul\":1467:1489   */\n      add\n        /* \"#utility.yul\":1446:1499   */\n      tag_131\n      jump\t// in\n    tag_197:\n        /* \"#utility.yul\":1436:1499   */\n      swap2\n      pop\n        /* \"#utility.yul\":1391:1509   */\n      pop\n        /* \"#utility.yul\":1042:1516   */\n      swap3\n      pop\n      swap3\n      swap1\n      pop\n      jump\t// out\n        /* \"#utility.yul\":1522:1648   */\n    tag_132:\n        /* \"#utility.yul\":1559:1566   */\n      0x00\n        /* \"#utility.yul\":1599:1641   */\n      0xffffffffffffffffffffffffffffffffffffffff\n        /* \"#utility.yul\":1592:1597   */\n      dup3\n        /* \"#utility.yul\":1588:1642   */\n      and\n        /* \"#utility.yul\":1577:1642   */\n      swap1\n      pop\n        /* \"#utility.yul\":1522:1648   */\n      swap2\n      swap1\n      pop\n      jump\t// out\n        /* \"#utility.yul\":1654:1750   */\n    tag_133:\n        /* \"#utility.yul\":1691:1698   */\n      0x00\n        /* \"#utility.yul\":1720:1744   */\n      tag_200\n        /* \"#utility.yul\":1738:1743   */\n      dup3\n        /* \"#utility.yul\":1720:1744   */\n      tag_132\n      jump\t// in\n    tag_200:\n        /* \"#utility.yul\":1709:1744   */\n      swap1\n      pop\n        /* \"#utility.yul\":1654:1750   */\n      swap2\n      swap1\n      pop\n      jump\t// out\n        /* \"#utility.yul\":1756:1874   */\n    tag_134:\n        /* \"#utility.yul\":1843:1867   */\n      tag_202\n        /* \"#utility.yul\":1861:1866   */\n      dup2\n        /* \"#utility.yul\":1843:1867   */\n      tag_133\n      jump\t// in\n    tag_202:\n        /* \"#utility.yul\":1838:1841   */\n      dup3\n        /* \"#utility.yul\":1831:1868   */\n      mstore\n        /* \"#utility.yul\":1756:1874   */\n      pop\n      pop\n      jump\t// out\n        /* \"#utility.yul\":1880:2102   */\n    tag_38:\n        /* \"#utility.yul\":1973:1977   */\n      0x00\n        /* \"#utility.yul\":2011:2013   */\n      0x20\n        /* \"#utility.yul\":2000:2009   */\n      dup3\n        /* \"#utility.yul\":1996:2014   */\n      add\n        /* \"#utility.yul\":1988:2014   */\n      swap1\n      pop\n        /* \"#utility.yul\":2024:2095   */\n      tag_204\n        /* \"#utility.yul\":2092:2093   */\n      0x00\n        /* \"#utility.yul\":2081:2090   */\n      dup4\n        /* \"#utility.yul\":2077:2094   */\n      add\n        /* \"#utility.yul\":2068:2074   */\n      dup5\n        /* \"#utility.yul\":2024:2095   */\n      tag_134\n      jump\t// in\n    tag_204:\n        /* \"#utility.yul\":1880:2102   */\n      swap3\n      swap2\n      pop\n      pop\n      jump\t// out\n        /* \"#utility.yul\":2108:2207   */\n    tag_135:\n        /* \"#utility.yul\":2160:2166   */\n      0x00\n        /* \"#utility.yul\":2194:2199   */\n      dup2\n        /* \"#utility.yul\":2188:2200   */\n      mload\n        /* \"#utility.yul\":2178:2200   */\n      swap1\n      pop\n        /* \"#utility.yul\":2108:2207   */\n      swap2\n      swap1\n      pop\n      jump\t// out\n        /* \"#utility.yul\":2213:2382   */\n    tag_136:\n        /* \"#utility.yul\":2297:2308   */\n      0x00\n        /* \"#utility.yul\":2331:2337   */\n      dup3\n        /* \"#utility.yul\":2326:2329   */\n      dup3\n        /* \"#utility.yul\":2319:2338   */\n      mstore\n        /* \"#utility.yul\":2371:2375   */\n      0x20\n        /* \"#utility.yul\":2366:2369   */\n      dup3\n        /* \"#utility.yul\":2362:2376   */\n      add\n        /* \"#utility.yul\":2347:2376   */\n      swap1\n      pop\n        /* \"#utility.yul\":2213:2382   */\n      swap3\n      swap2\n      pop\n      pop\n      jump\t// out\n        /* \"#utility.yul\":2388:2527   */\n    tag_137:\n        /* \"#utility.yul\":2477:2483   */\n      dup3\n        /* \"#utility.yul\":2472:2475   */\n      dup2\n        /* \"#utility.yul\":2467:2470   */\n      dup4\n        /* \"#utility.yul\":2461:2484   */\n      mcopy\n        /* \"#utility.yul\":2518:2519   */\n      0x00\n        /* \"#utility.yul\":2509:2515   */\n      dup4\n        /* \"#utility.yul\":2504:2507   */\n      dup4\n        /* \"#utility.yul\":2500:2516   */\n      add\n        /* \"#utility.yul\":2493:2520   */\n      mstore\n        /* \"#utility.yul\":2388:2527   */\n      pop\n      pop\n      pop\n      jump\t// out\n        /* \"#utility.yul\":2533:2635   */\n    tag_138:\n        /* \"#utility.yul\":2574:2580   */\n      0x00\n        /* \"#utility.yul\":2625:2627   */\n      0x1f\n        /* \"#utility.yul\":2621:2628   */\n      not\n        /* \"#utility.yul\":2616:2618   */\n      0x1f\n        /* \"#utility.yul\":2609:2614   */\n      dup4\n        /* \"#utility.yul\":2605:2619   */\n      add\n        /* \"#utility.yul\":2601:2629   */\n      and\n        /* \"#utility.yul\":2591:2629   */\n      swap1\n      pop\n        /* \"#utility.yul\":2533:2635   */\n      swap2\n      swap1\n      pop\n      jump\t// out\n        /* \"#utility.yul\":2641:3018   */\n    tag_139:\n        /* \"#utility.yul\":2729:2732   */\n      0x00\n        /* \"#utility.yul\":2757:2796   */\n      tag_210\n        /* \"#utility.yul\":2790:2795   */\n      dup3\n        /* \"#utility.yul\":2757:2796   */\n      tag_135\n      jump\t// in\n    tag_210:\n        /* \"#utility.yul\":2812:2883   */\n      tag_211\n        /* \"#utility.yul\":2876:2882   */\n      dup2\n        /* \"#utility.yul\":2871:2874   */\n      dup6\n        /* \"#utility.yul\":2812:2883   */\n      tag_136\n      jump\t// in\n    tag_211:\n        /* \"#utility.yul\":2805:2883   */\n      swap4\n      pop\n        /* \"#utility.yul\":2892:2957   */\n      tag_212\n        /* \"#utility.yul\":2950:2956   */\n      dup2\n        /* \"#utility.yul\":2945:2948   */\n      dup6\n        /* \"#utility.yul\":2938:2942   */\n      0x20\n        /* \"#utility.yul\":2931:2936   */\n      dup7\n        /* \"#utility.yul\":2927:2943   */\n      add\n        /* \"#utility.yul\":2892:2957   */\n      tag_137\n      jump\t// in\n    tag_212:\n        /* \"#utility.yul\":2982:3011   */\n      tag_213\n        /* \"#utility.yul\":3004:3010   */\n      dup2\n        /* \"#utility.yul\":2982:3011   */\n      tag_138\n      jump\t// in\n    tag_213:\n        /* \"#utility.yul\":2977:2980   */\n      dup5\n        /* \"#utility.yul\":2973:3012   */\n      add\n        /* \"#utility.yul\":2966:3012   */\n      swap2\n      pop\n        /* \"#utility.yul\":2733:3018   */\n      pop\n        /* \"#utility.yul\":2641:3018   */\n      swap3\n      swap2\n      pop\n      pop\n      jump\t// out\n        /* \"#utility.yul\":3024:3337   */\n    tag_42:\n        /* \"#utility.yul\":3137:3141   */\n      0x00\n        /* \"#utility.yul\":3175:3177   */\n      0x20\n        /* \"#utility.yul\":3164:3173   */\n      dup3\n        /* \"#utility.yul\":3160:3178   */\n      add\n        /* \"#utility.yul\":3152:3178   */\n      swap1\n      pop\n        /* \"#utility.yul\":3224:3233   */\n      dup2\n        /* \"#utility.yul\":3218:3222   */\n      dup2\n        /* \"#utility.yul\":3214:3234   */\n      sub\n        /* \"#utility.yul\":3210:3211   */\n      0x00\n        /* \"#utility.yul\":3199:3208   */\n      dup4\n        /* \"#utility.yul\":3195:3212   */\n      add\n        /* \"#utility.yul\":3188:3235   */\n      mstore\n        /* \"#utility.yul\":3252:3330   */\n      tag_215\n        /* \"#utility.yul\":3325:3329   */\n      dup2\n        /* \"#utility.yul\":3316:3322   */\n      dup5\n        /* \"#utility.yul\":3252:3330   */\n      tag_139\n      jump\t// in\n    tag_215:\n        /* \"#utility.yul\":3244:3330   */\n      swap1\n      pop\n        /* \"#utility.yul\":3024:3337   */\n      swap3\n      swap2\n      pop\n      pop\n      jump\t// out\n        /* \"#utility.yul\":3343:3460   */\n    tag_140:\n        /* \"#utility.yul\":3452:3453   */\n      0x00\n        /* \"#utility.yul\":3449:3450   */\n      dup1\n        /* \"#utility.yul\":3442:3454   */\n      revert\n        /* \"#utility.yul\":3466:3583   */\n    tag_141:\n        /* \"#utility.yul\":3575:3576   */\n      0x00\n        /* \"#utility.yul\":3572:3573   */\n      dup1\n        /* \"#utility.yul\":3565:3577   */\n      revert\n        /* \"#utility.yul\":3589:3769   */\n    tag_142:\n        /* \"#utility.yul\":3637:3714   */\n      0x4e487b7100000000000000000000000000000000000000000000000000000000\n        /* \"#utility.yul\":3634:3635   */\n      0x00\n        /* \"#utility.yul\":3627:3715   */\n      mstore\n        /* \"#utility.yul\":3734:3738   */\n      0x41\n        /* \"#utility.yul\":3731:3732   */\n      0x04\n        /* \"#utility.yul\":3724:3739   */\n      mstore\n        /* \"#utility.yul\":3758:3762   */\n      0x24\n        /* \"#utility.yul\":3755:3756   */\n      0x00\n        /* \"#utility.yul\":3748:3763   */\n      revert\n        /* \"#utility.yul\":3775:4056   */\n    tag_143:\n        /* \"#utility.yul\":3858:3885   */\n      tag_220\n        /* \"#utility.yul\":3880:3884   */\n      dup3\n        /* \"#utility.yul\":3858:3885   */\n      tag_138\n      jump\t// in\n    tag_220:\n        /* \"#utility.yul\":3850:3856   */\n      dup2\n        /* \"#utility.yul\":3846:3886   */\n      add\n        /* \"#utility.yul\":3988:3994   */\n      dup2\n        /* \"#utility.yul\":3976:3986   */\n      dup2\n        /* \"#utility.yul\":3973:3995   */\n      lt\n        /* \"#utility.yul\":3952:3970   */\n      0xffffffffffffffff\n        /* \"#utility.yul\":3940:3950   */\n      dup3\n        /* \"#utility.yul\":3937:3971   */\n      gt\n        /* \"#utility.yul\":3934:3996   */\n      or\n        /* \"#utility.yul\":3931:4019   */\n      iszero\n      tag_221\n      jumpi\n        /* \"#utility.yul\":3999:4017   */\n      tag_222\n      tag_142\n      jump\t// in\n    tag_222:\n        /* \"#utility.yul\":3931:4019   */\n    tag_221:\n        /* \"#utility.yul\":4039:4049   */\n      dup1\n        /* \"#utility.yul\":4035:4037   */\n      0x40\n        /* \"#utility.yul\":4028:4050   */\n      mstore\n        /* \"#utility.yul\":3818:4056   */\n      pop\n        /* \"#utility.yul\":3775:4056   */\n      pop\n      pop\n      jump\t// out\n        /* \"#utility.yul\":4062:4191   */\n    tag_144:\n        /* \"#utility.yul\":4096:4102   */\n      0x00\n        /* \"#utility.yul\":4123:4143   */\n      tag_224\n      tag_127\n      jump\t// in\n    tag_224:\n        /* \"#utility.yul\":4113:4143   */\n      swap1\n      pop\n        /* \"#utility.yul\":4152:4185   */\n      tag_225\n        /* \"#utility.yul\":4180:4184   */\n      dup3\n        /* \"#utility.yul\":4172:4178   */\n      dup3\n        /* \"#utility.yul\":4152:4185   */\n      tag_143\n      jump\t// in\n    tag_225:\n        /* \"#utility.yul\":4062:4191   */\n      swap2\n      swap1\n      pop\n      jump\t// out\n        /* \"#utility.yul\":4197:4505   */\n    tag_145:\n        /* \"#utility.yul\":4259:4263   */\n      0x00\n        /* \"#utility.yul\":4349:4367   */\n      0xffffffffffffffff\n        /* \"#utility.yul\":4341:4347   */\n      dup3\n        /* \"#utility.yul\":4338:4368   */\n      gt\n        /* \"#utility.yul\":4335:4391   */\n      iszero\n      tag_227\n      jumpi\n        /* \"#utility.yul\":4371:4389   */\n      tag_228\n      tag_142\n      jump\t// in\n    tag_228:\n        /* \"#utility.yul\":4335:4391   */\n    tag_227:\n        /* \"#utility.yul\":4409:4438   */\n      tag_229\n        /* \"#utility.yul\":4431:4437   */\n      dup3\n        /* \"#utility.yul\":4409:4438   */\n      tag_138\n      jump\t// in\n    tag_229:\n        /* \"#utility.yul\":4401:4438   */\n      swap1\n      pop\n        /* \"#utility.yul\":4493:4497   */\n      0x20\n        /* \"#utility.yul\":4487:4491   */\n      dup2\n        /* \"#utility.yul\":4483:4498   */\n      add\n        /* \"#utility.yul\":4475:4498   */\n      swap1\n      pop\n        /* \"#utility.yul\":4197:4505   */\n      swap2\n      swap1\n      pop\n      jump\t// out\n        /* \"#utility.yul\":4511:4659   */\n    tag_146:\n        /* \"#utility.yul\":4609:4615   */\n      dup3\n        /* \"#utility.yul\":4604:4607   */\n      dup2\n        /* \"#utility.yul\":4599:4602   */\n      dup4\n        /* \"#utility.yul\":4586:4616   */\n      calldatacopy\n        /* \"#utility.yul\":4650:4651   */\n      0x00\n        /* \"#utility.yul\":4641:4647   */\n      dup4\n        /* \"#utility.yul\":4636:4639   */\n      dup4\n        /* \"#utility.yul\":4632:4648   */\n      add\n        /* \"#utility.yul\":4625:4652   */\n      mstore\n        /* \"#utility.yul\":4511:4659   */\n      pop\n      pop\n      pop\n      jump\t// out\n        /* \"#utility.yul\":4665:5090   */\n    tag_147:\n        /* \"#utility.yul\":4743:4748   */\n      0x00\n        /* \"#utility.yul\":4768:4834   */\n      tag_232\n        /* \"#utility.yul\":4784:4833   */\n      tag_233\n        /* \"#utility.yul\":4826:4832   */\n      dup5\n        /* \"#utility.yul\":4784:4833   */\n      tag_145\n      jump\t// in\n    tag_233:\n        /* \"#utility.yul\":4768:4834   */\n      tag_144\n      jump\t// in\n    tag_232:\n        /* \"#utility.yul\":4759:4834   */\n      swap1\n      pop\n        /* \"#utility.yul\":4857:4863   */\n      dup3\n        /* \"#utility.yul\":4850:4855   */\n      dup2\n        /* \"#utility.yul\":4843:4864   */\n      mstore\n        /* \"#utility.yul\":4895:4899   */\n      0x20\n        /* \"#utility.yul\":4888:4893   */\n      dup2\n        /* \"#utility.yul\":4884:4900   */\n      add\n        /* \"#utility.yul\":4933:4936   */\n      dup5\n        /* \"#utility.yul\":4924:4930   */\n      dup5\n        /* \"#utility.yul\":4919:4922   */\n      dup5\n        /* \"#utility.yul\":4915:4931   */\n      add\n        /* \"#utility.yul\":4912:4937   */\n      gt\n        /* \"#utility.yul\":4909:5021   */\n      iszero\n      tag_234\n      jumpi\n        /* \"#utility.yul\":4940:5019   */\n      tag_235\n      tag_141\n      jump\t// in\n    tag_235:\n        /* \"#utility.yul\":4909:5021   */\n    tag_234:\n        /* \"#utility.yul\":5030:5084   */\n      tag_236\n        /* \"#utility.yul\":5077:5083   */\n      dup5\n        /* \"#utility.yul\":5072:5075   */\n      dup3\n        /* \"#utility.yul\":5067:5070   */\n      dup6\n        /* \"#utility.yul\":5030:5084   */\n      tag_146\n      jump\t// in\n    tag_236:\n        /* \"#utility.yul\":4749:5090   */\n      pop\n        /* \"#utility.yul\":4665:5090   */\n      swap4\n      swap3\n      pop\n      pop\n      pop\n      jump\t// out\n        /* \"#utility.yul\":5110:5450   */\n    tag_148:\n        /* \"#utility.yul\":5166:5171   */\n      0x00\n        /* \"#utility.yul\":5215:5218   */\n      dup3\n        /* \"#utility.yul\":5208:5212   */\n      0x1f\n        /* \"#utility.yul\":5200:5206   */\n      dup4\n        /* \"#utility.yul\":5196:5213   */\n      add\n        /* \"#utility.yul\":5192:5219   */\n      slt\n        /* \"#utility.yul\":5182:5304   */\n      tag_238\n      jumpi\n        /* \"#utility.yul\":5223:5302   */\n      tag_239\n      tag_140\n      jump\t// in\n    tag_239:\n        /* \"#utility.yul\":5182:5304   */\n    tag_238:\n        /* \"#utility.yul\":5340:5346   */\n      dup2\n        /* \"#utility.yul\":5327:5347   */\n      calldataload\n        /* \"#utility.yul\":5365:5444   */\n      tag_240\n        /* \"#utility.yul\":5440:5443   */\n      dup5\n        /* \"#utility.yul\":5432:5438   */\n      dup3\n        /* \"#utility.yul\":5425:5429   */\n      0x20\n        /* \"#utility.yul\":5417:5423   */\n      dup7\n        /* \"#utility.yul\":5413:5430   */\n      add\n        /* \"#utility.yul\":5365:5444   */\n      tag_147\n      jump\t// in\n    tag_240:\n        /* \"#utility.yul\":5356:5444   */\n      swap2\n      pop\n        /* \"#utility.yul\":5172:5450   */\n      pop\n        /* \"#utility.yul\":5110:5450   */\n      swap3\n      swap2\n      pop\n      pop\n      jump\t// out\n        /* \"#utility.yul\":5456:5965   */\n    tag_45:\n        /* \"#utility.yul\":5525:5531   */\n      0x00\n        /* \"#utility.yul\":5574:5576   */\n      0x20\n        /* \"#utility.yul\":5562:5571   */\n      dup3\n        /* \"#utility.yul\":5553:5560   */\n      dup5\n        /* \"#utility.yul\":5549:5572   */\n      sub\n        /* \"#utility.yul\":5545:5577   */\n      slt\n        /* \"#utility.yul\":5542:5661   */\n      iszero\n      tag_242\n      jumpi\n        /* \"#utility.yul\":5580:5659   */\n      tag_243\n      tag_128\n      jump\t// in\n    tag_243:\n        /* \"#utility.yul\":5542:5661   */\n    tag_242:\n        /* \"#utility.yul\":5728:5729   */\n      0x00\n        /* \"#utility.yul\":5717:5726   */\n      dup3\n        /* \"#utility.yul\":5713:5730   */\n      add\n        /* \"#utility.yul\":5700:5731   */\n      calldataload\n        /* \"#utility.yul\":5758:5776   */\n      0xffffffffffffffff\n        /* \"#utility.yul\":5750:5756   */\n      dup2\n        /* \"#utility.yul\":5747:5777   */\n      gt\n        /* \"#utility.yul\":5744:5861   */\n      iszero\n      tag_244\n      jumpi\n        /* \"#utility.yul\":5780:5859   */\n      tag_245\n      tag_129\n      jump\t// in\n    tag_245:\n        /* \"#utility.yul\":5744:5861   */\n    tag_244:\n        /* \"#utility.yul\":5885:5948   */\n      tag_246\n        /* \"#utility.yul\":5940:5947   */\n      dup5\n        /* \"#utility.yul\":5931:5937   */\n      dup3\n        /* \"#utility.yul\":5920:5929   */\n      dup6\n        /* \"#utility.yul\":5916:5938   */\n      add\n        /* \"#utility.yul\":5885:5948   */\n      tag_148\n      jump\t// in\n    tag_246:\n        /* \"#utility.yul\":5875:5948   */\n      swap2\n      pop\n        /* \"#utility.yul\":5671:5958   */\n      pop\n        /* \"#utility.yul\":5456:5965   */\n      swap3\n      swap2\n      pop\n      pop\n      jump\t// out\n        /* \"#utility.yul\":5971:6061   */\n    tag_149:\n        /* \"#utility.yul\":6005:6012   */\n      0x00\n        /* \"#utility.yul\":6048:6053   */\n      dup2\n        /* \"#utility.yul\":6041:6054   */\n      iszero\n        /* \"#utility.yul\":6034:6055   */\n      iszero\n        /* \"#utility.yul\":6023:6055   */\n      swap1\n      pop\n        /* \"#utility.yul\":5971:6061   */\n      swap2\n      swap1\n      pop\n      jump\t// out\n        /* \"#utility.yul\":6067:6176   */\n    tag_150:\n        /* \"#utility.yul\":6148:6169   */\n      tag_249\n        /* \"#utility.yul\":6163:6168   */\n      dup2\n        /* \"#utility.yul\":6148:6169   */\n      tag_149\n      jump\t// in\n    tag_249:\n        /* \"#utility.yul\":6143:6146   */\n      dup3\n        /* \"#utility.yul\":6136:6170   */\n      mstore\n        /* \"#utility.yul\":6067:6176   */\n      pop\n      pop\n      jump\t// out\n        /* \"#utility.yul\":6182:6392   */\n    tag_48:\n        /* \"#utility.yul\":6269:6273   */\n      0x00\n        /* \"#utility.yul\":6307:6309   */\n      0x20\n        /* \"#utility.yul\":6296:6305   */\n      dup3\n        /* \"#utility.yul\":6292:6310   */\n      add\n        /* \"#utility.yul\":6284:6310   */\n      swap1\n      pop\n        /* \"#utility.yul\":6320:6385   */\n      tag_251\n        /* \"#utility.yul\":6382:6383   */\n      0x00\n        /* \"#utility.yul\":6371:6380   */\n      dup4\n        /* \"#utility.yul\":6367:6384   */\n      add\n        /* \"#utility.yul\":6358:6364   */\n      dup5\n        /* \"#utility.yul\":6320:6385   */\n      tag_150\n      jump\t// in\n    tag_251:\n        /* \"#utility.yul\":6182:6392   */\n      swap3\n      swap2\n      pop\n      pop\n      jump\t// out\n        /* \"#utility.yul\":6398:6484   */\n    tag_151:\n        /* \"#utility.yul\":6433:6440   */\n      0x00\n        /* \"#utility.yul\":6473:6477   */\n      0xff\n        /* \"#utility.yul\":6466:6471   */\n      dup3\n        /* \"#utility.yul\":6462:6478   */\n      and\n        /* \"#utility.yul\":6451:6478   */\n      swap1\n      pop\n        /* \"#utility.yul\":6398:6484   */\n      swap2\n      swap1\n      pop\n      jump\t// out\n        /* \"#utility.yul\":6490:6602   */\n    tag_152:\n        /* \"#utility.yul\":6573:6595   */\n      tag_254\n        /* \"#utility.yul\":6589:6594   */\n      dup2\n        /* \"#utility.yul\":6573:6595   */\n      tag_151\n      jump\t// in\n    tag_254:\n        /* \"#utility.yul\":6568:6571   */\n      dup3\n        /* \"#utility.yul\":6561:6596   */\n      mstore\n        /* \"#utility.yul\":6490:6602   */\n      pop\n      pop\n      jump\t// out\n        /* \"#utility.yul\":6608:6822   */\n    tag_61:\n        /* \"#utility.yul\":6697:6701   */\n      0x00\n        /* \"#utility.yul\":6735:6737   */\n      0x20\n        /* \"#utility.yul\":6724:6733   */\n      dup3\n        /* \"#utility.yul\":6720:6738   */\n      add\n        /* \"#utility.yul\":6712:6738   */\n      swap1\n      pop\n        /* \"#utility.yul\":6748:6815   */\n      tag_256\n        /* \"#utility.yul\":6812:6813   */\n      0x00\n        /* \"#utility.yul\":6801:6810   */\n      dup4\n        /* \"#utility.yul\":6797:6814   */\n      add\n        /* \"#utility.yul\":6788:6794   */\n      dup5\n        /* \"#utility.yul\":6748:6815   */\n      tag_152\n      jump\t// in\n    tag_256:\n        /* \"#utility.yul\":6608:6822   */\n      swap3\n      swap2\n      pop\n      pop\n      jump\t// out\n        /* \"#utility.yul\":6828:6946   */\n    tag_153:\n        /* \"#utility.yul\":6899:6921   */\n      tag_258\n        /* \"#utility.yul\":6915:6920   */\n      dup2\n        /* \"#utility.yul\":6899:6921   */\n      tag_151\n      jump\t// in\n    tag_258:\n        /* \"#utility.yul\":6892:6897   */\n      dup2\n        /* \"#utility.yul\":6889:6922   */\n      eq\n        /* \"#utility.yul\":6879:6940   */\n      tag_259\n      jumpi\n        /* \"#utility.yul\":6936:6937   */\n      0x00\n        /* \"#utility.yul\":6933:6934   */\n      dup1\n        /* \"#utility.yul\":6926:6938   */\n      revert\n        /* \"#utility.yul\":6879:6940   */\n    tag_259:\n        /* \"#utility.yul\":6828:6946   */\n      pop\n      jump\t// out\n        /* \"#utility.yul\":6952:7087   */\n    tag_154:\n        /* \"#utility.yul\":6996:7001   */\n      0x00\n        /* \"#utility.yul\":7034:7040   */\n      dup2\n        /* \"#utility.yul\":7021:7041   */\n      calldataload\n        /* \"#utility.yul\":7012:7041   */\n      swap1\n      pop\n        /* \"#utility.yul\":7050:7081   */\n      tag_261\n        /* \"#utility.yul\":7075:7080   */\n      dup2\n        /* \"#utility.yul\":7050:7081   */\n      tag_153\n      jump\t// in\n    tag_261:\n        /* \"#utility.yul\":6952:7087   */\n      swap3\n      swap2\n      pop\n      pop\n      jump\t// out\n        /* \"#utility.yul\":7093:7418   */\n    tag_67:\n        /* \"#utility.yul\":7150:7156   */\n      0x00\n        /* \"#utility.yul\":7199:7201   */\n      0x20\n        /* \"#utility.yul\":7187:7196   */\n      dup3\n        /* \"#utility.yul\":7178:7185   */\n      dup5\n        /* \"#utility.yul\":7174:7197   */\n      sub\n        /* \"#utility.yul\":7170:7202   */\n      slt\n        /* \"#utility.yul\":7167:7286   */\n      iszero\n      tag_263\n      jumpi\n        /* \"#utility.yul\":7205:7284   */\n      tag_264\n      tag_128\n      jump\t// in\n    tag_264:\n        /* \"#utility.yul\":7167:7286   */\n    tag_263:\n        /* \"#utility.yul\":7325:7326   */\n      0x00\n        /* \"#utility.yul\":7350:7401   */\n      tag_265\n        /* \"#utility.yul\":7393:7400   */\n      dup5\n        /* \"#utility.yul\":7384:7390   */\n      dup3\n        /* \"#utility.yul\":7373:7382   */\n      dup6\n        /* \"#utility.yul\":7369:7391   */\n      add\n        /* \"#utility.yul\":7350:7401   */\n      tag_154\n      jump\t// in\n    tag_265:\n        /* \"#utility.yul\":7340:7401   */\n      swap2\n      pop\n        /* \"#utility.yul\":7296:7411   */\n      pop\n        /* \"#utility.yul\":7093:7418   */\n      swap3\n      swap2\n      pop\n      pop\n      jump\t// out\n        /* \"#utility.yul\":7424:7546   */\n    tag_155:\n        /* \"#utility.yul\":7497:7521   */\n      tag_267\n        /* \"#utility.yul\":7515:7520   */\n      dup2\n        /* \"#utility.yul\":7497:7521   */\n      tag_133\n      jump\t// in\n    tag_267:\n        /* \"#utility.yul\":7490:7495   */\n      dup2\n        /* \"#utility.yul\":7487:7522   */\n      eq\n        /* \"#utility.yul\":7477:7540   */\n      tag_268\n      jumpi\n        /* \"#utility.yul\":7536:7537   */\n      0x00\n        /* \"#utility.yul\":7533:7534   */\n      dup1\n        /* \"#utility.yul\":7526:7538   */\n      revert\n        /* \"#utility.yul\":7477:7540   */\n    tag_268:\n        /* \"#utility.yul\":7424:7546   */\n      pop\n      jump\t// out\n        /* \"#utility.yul\":7552:7691   */\n    tag_156:\n        /* \"#utility.yul\":7598:7603   */\n      0x00\n        /* \"#utility.yul\":7636:7642   */\n      dup2\n        /* \"#utility.yul\":7623:7643   */\n      calldataload\n        /* \"#utility.yul\":7614:7643   */\n      swap1\n      pop\n        /* \"#utility.yul\":7652:7685   */\n      tag_270\n        /* \"#utility.yul\":7679:7684   */\n      dup2\n        /* \"#utility.yul\":7652:7685   */\n      tag_155\n      jump\t// in\n    tag_270:\n        /* \"#utility.yul\":7552:7691   */\n      swap3\n      swap2\n      pop\n      pop\n      jump\t// out\n        /* \"#utility.yul\":7697:8026   */\n    tag_82:\n        /* \"#utility.yul\":7756:7762   */\n      0x00\n        /* \"#utility.yul\":7805:7807   */\n      0x20\n        /* \"#utility.yul\":7793:7802   */\n      dup3\n        /* \"#utility.yul\":7784:7791   */\n      dup5\n        /* \"#utility.yul\":7780:7803   */\n      sub\n        /* \"#utility.yul\":7776:7808   */\n      slt\n        /* \"#utility.yul\":7773:7892   */\n      iszero\n      tag_272\n      jumpi\n        /* \"#utility.yul\":7811:7890   */\n      tag_273\n      tag_128\n      jump\t// in\n    tag_273:\n        /* \"#utility.yul\":7773:7892   */\n    tag_272:\n        /* \"#utility.yul\":7931:7932   */\n      0x00\n        /* \"#utility.yul\":7956:8009   */\n      tag_274\n        /* \"#utility.yul\":8001:8008   */\n      dup5\n        /* \"#utility.yul\":7992:7998   */\n      dup3\n        /* \"#utility.yul\":7981:7990   */\n      dup6\n        /* \"#utility.yul\":7977:7999   */\n      add\n        /* \"#utility.yul\":7956:8009   */\n      tag_156\n      jump\t// in\n    tag_274:\n        /* \"#utility.yul\":7946:8009   */\n      swap2\n      pop\n        /* \"#utility.yul\":7902:8019   */\n      pop\n        /* \"#utility.yul\":7697:8026   */\n      swap3\n      swap2\n      pop\n      pop\n      jump\t// out\n        /* \"#utility.yul\":8032:8361   */\n    tag_91:\n        /* \"#utility.yul\":8091:8097   */\n      0x00\n        /* \"#utility.yul\":8140:8142   */\n      0x20\n        /* \"#utility.yul\":8128:8137   */\n      dup3\n        /* \"#utility.yul\":8119:8126   */\n      dup5\n        /* \"#utility.yul\":8115:8138   */\n      sub\n        /* \"#utility.yul\":8111:8143   */\n      slt\n        /* \"#utility.yul\":8108:8227   */\n      iszero\n      tag_276\n      jumpi\n        /* \"#utility.yul\":8146:8225   */\n      tag_277\n      tag_128\n      jump\t// in\n    tag_277:\n        /* \"#utility.yul\":8108:8227   */\n    tag_276:\n        /* \"#utility.yul\":8266:8267   */\n      0x00\n        /* \"#utility.yul\":8291:8344   */\n      tag_278\n        /* \"#utility.yul\":8336:8343   */\n      dup5\n        /* \"#utility.yul\":8327:8333   */\n      dup3\n        /* \"#utility.yul\":8316:8325   */\n      dup6\n        /* \"#utility.yul\":8312:8334   */\n      add\n        /* \"#utility.yul\":8291:8344   */\n      tag_131\n      jump\t// in\n    tag_278:\n        /* \"#utility.yul\":8281:8344   */\n      swap2\n      pop\n        /* \"#utility.yul\":8237:8354   */\n      pop\n        /* \"#utility.yul\":8032:8361   */\n      swap3\n      swap2\n      pop\n      pop\n      jump\t// out\n        /* \"#utility.yul\":8367:8483   */\n    tag_157:\n        /* \"#utility.yul\":8437:8458   */\n      tag_280\n        /* \"#utility.yul\":8452:8457   */\n      dup2\n        /* \"#utility.yul\":8437:8458   */\n      tag_149\n      jump\t// in\n    tag_280:\n        /* \"#utility.yul\":8430:8435   */\n      dup2\n        /* \"#utility.yul\":8427:8459   */\n      eq\n        /* \"#utility.yul\":8417:8477   */\n      tag_281\n      jumpi\n        /* \"#utility.yul\":8473:8474   */\n      0x00\n        /* \"#utility.yul\":8470:8471   */\n      dup1\n        /* \"#utility.yul\":8463:8475   */\n      revert\n        /* \"#utility.yul\":8417:8477   */\n    tag_281:\n        /* \"#utility.yul\":8367:8483   */\n      pop\n      jump\t// out\n        /* \"#utility.yul\":8489:8622   */\n    tag_158:\n        /* \"#utility.yul\":8532:8537   */\n      0x00\n        /* \"#utility.yul\":8570:8576   */\n      dup2\n        /* \"#utility.yul\":8557:8577   */\n      calldataload\n        /* \"#utility.yul\":8548:8577   */\n      swap1\n      pop\n        /* \"#utility.yul\":8586:8616   */\n      tag_283\n        /* \"#utility.yul\":8610:8615   */\n      dup2\n        /* \"#utility.yul\":8586:8616   */\n      tag_157\n      jump\t// in\n    tag_283:\n        /* \"#utility.yul\":8489:8622   */\n      swap3\n      swap2\n      pop\n      pop\n      jump\t// out\n        /* \"#utility.yul\":8628:8951   */\n    tag_95:\n        /* \"#utility.yul\":8684:8690   */\n      0x00\n        /* \"#utility.yul\":8733:8735   */\n      0x20\n        /* \"#utility.yul\":8721:8730   */\n      dup3\n        /* \"#utility.yul\":8712:8719   */\n      dup5\n        /* \"#utility.yul\":8708:8731   */\n      sub\n        /* \"#utility.yul\":8704:8736   */\n      slt\n        /* \"#utility.yul\":8701:8820   */\n      iszero\n      tag_285\n      jumpi\n        /* \"#utility.yul\":8739:8818   */\n      tag_286\n      tag_128\n      jump\t// in\n    tag_286:\n        /* \"#utility.yul\":8701:8820   */\n    tag_285:\n        /* \"#utility.yul\":8859:8860   */\n      0x00\n        /* \"#utility.yul\":8884:8934   */\n      tag_287\n        /* \"#utility.yul\":8926:8933   */\n      dup5\n        /* \"#utility.yul\":8917:8923   */\n      dup3\n        /* \"#utility.yul\":8906:8915   */\n      dup6\n        /* \"#utility.yul\":8902:8924   */\n      add\n        /* \"#utility.yul\":8884:8934   */\n      tag_158\n      jump\t// in\n    tag_287:\n        /* \"#utility.yul\":8874:8934   */\n      swap2\n      pop\n        /* \"#utility.yul\":8830:8944   */\n      pop\n        /* \"#utility.yul\":8628:8951   */\n      swap3\n      swap2\n      pop\n      pop\n      jump\t// out\n        /* \"#utility.yul\":8957:9137   */\n    tag_159:\n        /* \"#utility.yul\":9005:9082   */\n      0x4e487b7100000000000000000000000000000000000000000000000000000000\n        /* \"#utility.yul\":9002:9003   */\n      0x00\n        /* \"#utility.yul\":8995:9083   */\n      mstore\n        /* \"#utility.yul\":9102:9106   */\n      0x11\n        /* \"#utility.yul\":9099:9100   */\n      0x04\n        /* \"#utility.yul\":9092:9107   */\n      mstore\n        /* \"#utility.yul\":9126:9130   */\n      0x24\n        /* \"#utility.yul\":9123:9124   */\n      0x00\n        /* \"#utility.yul\":9116:9131   */\n      revert\n        /* \"#utility.yul\":9143:9334   */\n    tag_99:\n        /* \"#utility.yul\":9183:9186   */\n      0x00\n        /* \"#utility.yul\":9202:9222   */\n      tag_290\n        /* \"#utility.yul\":9220:9221   */\n      dup3\n        /* \"#utility.yul\":9202:9222   */\n      tag_125\n      jump\t// in\n    tag_290:\n        /* \"#utility.yul\":9197:9222   */\n      swap2\n      pop\n        /* \"#utility.yul\":9236:9256   */\n      tag_291\n        /* \"#utility.yul\":9254:9255   */\n      dup4\n        /* \"#utility.yul\":9236:9256   */\n      tag_125\n      jump\t// in\n    tag_291:\n        /* \"#utility.yul\":9231:9256   */\n      swap3\n      pop\n        /* \"#utility.yul\":9279:9280   */\n      dup3\n        /* \"#utility.yul\":9276:9277   */\n      dup3\n        /* \"#utility.yul\":9272:9281   */\n      add\n        /* \"#utility.yul\":9265:9281   */\n      swap1\n      pop\n        /* \"#utility.yul\":9300:9303   */\n      dup1\n        /* \"#utility.yul\":9297:9298   */\n      dup3\n        /* \"#utility.yul\":9294:9304   */\n      gt\n        /* \"#utility.yul\":9291:9327   */\n      iszero\n      tag_292\n      jumpi\n        /* \"#utility.yul\":9307:9325   */\n      tag_293\n      tag_159\n      jump\t// in\n    tag_293:\n        /* \"#utility.yul\":9291:9327   */\n    tag_292:\n        /* \"#utility.yul\":9143:9334   */\n      swap3\n      swap2\n      pop\n      pop\n      jump\t// out\n        /* \"#utility.yul\":9340:9520   */\n    tag_160:\n        /* \"#utility.yul\":9388:9465   */\n      0x4e487b7100000000000000000000000000000000000000000000000000000000\n        /* \"#utility.yul\":9385:9386   */\n      0x00\n        /* \"#utility.yul\":9378:9466   */\n      mstore\n        /* \"#utility.yul\":9485:9489   */\n      0x22\n        /* \"#utility.yul\":9482:9483   */\n      0x04\n        /* \"#utility.yul\":9475:9490   */\n      mstore\n        /* \"#utility.yul\":9509:9513   */\n      0x24\n        /* \"#utility.yul\":9506:9507   */\n      0x00\n        /* \"#utility.yul\":9499:9514   */\n      revert\n        /* \"#utility.yul\":9526:9846   */\n    tag_101:\n        /* \"#utility.yul\":9570:9576   */\n      0x00\n        /* \"#utility.yul\":9607:9608   */\n      0x02\n        /* \"#utility.yul\":9601:9605   */\n      dup3\n        /* \"#utility.yul\":9597:9609   */\n      div\n        /* \"#utility.yul\":9587:9609   */\n      swap1\n      pop\n        /* \"#utility.yul\":9654:9655   */\n      0x01\n        /* \"#utility.yul\":9648:9652   */\n      dup3\n        /* \"#utility.yul\":9644:9656   */\n      and\n        /* \"#utility.yul\":9675:9693   */\n      dup1\n        /* \"#utility.yul\":9665:9746   */\n      tag_296\n      jumpi\n        /* \"#utility.yul\":9731:9735   */\n      0x7f\n        /* \"#utility.yul\":9723:9729   */\n      dup3\n        /* \"#utility.yul\":9719:9736   */\n      and\n        /* \"#utility.yul\":9709:9736   */\n      swap2\n      pop\n        /* \"#utility.yul\":9665:9746   */\n    tag_296:\n        /* \"#utility.yul\":9793:9795   */\n      0x20\n        /* \"#utility.yul\":9785:9791   */\n      dup3\n        /* \"#utility.yul\":9782:9796   */\n      lt\n        /* \"#utility.yul\":9762:9780   */\n      dup2\n        /* \"#utility.yul\":9759:9797   */\n      sub\n        /* \"#utility.yul\":9756:9840   */\n      tag_297\n      jumpi\n        /* \"#utility.yul\":9812:9830   */\n      tag_298\n      tag_160\n      jump\t// in\n    tag_298:\n        /* \"#utility.yul\":9756:9840   */\n    tag_297:\n        /* \"#utility.yul\":9577:9846   */\n      pop\n        /* \"#utility.yul\":9526:9846   */\n      swap2\n      swap1\n      pop\n      jump\t// out\n        /* \"#utility.yul\":9852:10000   */\n    tag_161:\n        /* \"#utility.yul\":9954:9965   */\n      0x00\n        /* \"#utility.yul\":9991:9994   */\n      dup2\n        /* \"#utility.yul\":9976:9994   */\n      swap1\n      pop\n        /* \"#utility.yul\":9852:10000   */\n      swap3\n      swap2\n      pop\n      pop\n      jump\t// out\n        /* \"#utility.yul\":10006:10396   */\n    tag_162:\n        /* \"#utility.yul\":10112:10115   */\n      0x00\n        /* \"#utility.yul\":10140:10179   */\n      tag_301\n        /* \"#utility.yul\":10173:10178   */\n      dup3\n        /* \"#utility.yul\":10140:10179   */\n      tag_135\n      jump\t// in\n    tag_301:\n        /* \"#utility.yul\":10195:10284   */\n      tag_302\n        /* \"#utility.yul\":10277:10283   */\n      dup2\n        /* \"#utility.yul\":10272:10275   */\n      dup6\n        /* \"#utility.yul\":10195:10284   */\n      tag_161\n      jump\t// in\n    tag_302:\n        /* \"#utility.yul\":10188:10284   */\n      swap4\n      pop\n        /* \"#utility.yul\":10293:10358   */\n      tag_303\n        /* \"#utility.yul\":10351:10357   */\n      dup2\n        /* \"#utility.yul\":10346:10349   */\n      dup6\n        /* \"#utility.yul\":10339:10343   */\n      0x20\n        /* \"#utility.yul\":10332:10337   */\n      dup7\n        /* \"#utility.yul\":10328:10344   */\n      add\n        /* \"#utility.yul\":10293:10358   */\n      tag_137\n      jump\t// in\n    tag_303:\n        /* \"#utility.yul\":10383:10389   */\n      dup1\n        /* \"#utility.yul\":10378:10381   */\n      dup5\n        /* \"#utility.yul\":10374:10390   */\n      add\n        /* \"#utility.yul\":10367:10390   */\n      swap2\n      pop\n        /* \"#utility.yul\":10116:10396   */\n      pop\n        /* \"#utility.yul\":10006:10396   */\n      swap3\n      swap2\n      pop\n      pop\n      jump\t// out\n        /* \"#utility.yul\":10402:10677   */\n    tag_108:\n        /* \"#utility.yul\":10534:10537   */\n      0x00\n        /* \"#utility.yul\":10556:10651   */\n      tag_305\n        /* \"#utility.yul\":10647:10650   */\n      dup3\n        /* \"#utility.yul\":10638:10644   */\n      dup5\n        /* \"#utility.yul\":10556:10651   */\n      tag_162\n      jump\t// in\n    tag_305:\n        /* \"#utility.yul\":10549:10651   */\n      swap2\n      pop\n        /* \"#utility.yul\":10668:10671   */\n      dup2\n        /* \"#utility.yul\":10661:10671   */\n      swap1\n      pop\n        /* \"#utility.yul\":10402:10677   */\n      swap3\n      swap2\n      pop\n      pop\n      jump\t// out\n        /* \"#utility.yul\":10683:10824   */\n    tag_163:\n        /* \"#utility.yul\":10732:10736   */\n      0x00\n        /* \"#utility.yul\":10755:10758   */\n      dup2\n        /* \"#utility.yul\":10747:10758   */\n      swap1\n      pop\n        /* \"#utility.yul\":10778:10781   */\n      dup2\n        /* \"#utility.yul\":10775:10776   */\n      0x00\n        /* \"#utility.yul\":10768:10782   */\n      mstore\n        /* \"#utility.yul\":10812:10816   */\n      0x20\n        /* \"#utility.yul\":10809:10810   */\n      0x00\n        /* \"#utility.yul\":10799:10817   */\n      keccak256\n        /* \"#utility.yul\":10791:10817   */\n      swap1\n      pop\n        /* \"#utility.yul\":10683:10824   */\n      swap2\n      swap1\n      pop\n      jump\t// out\n        /* \"#utility.yul\":10854:11728   */\n    tag_164:\n        /* \"#utility.yul\":10957:10960   */\n      0x00\n        /* \"#utility.yul\":10994:10999   */\n      dup2\n        /* \"#utility.yul\":10988:11000   */\n      sload\n        /* \"#utility.yul\":11023:11059   */\n      tag_308\n        /* \"#utility.yul\":11049:11058   */\n      dup2\n        /* \"#utility.yul\":11023:11059   */\n      tag_101\n      jump\t// in\n    tag_308:\n        /* \"#utility.yul\":11075:11164   */\n      tag_309\n        /* \"#utility.yul\":11157:11163   */\n      dup2\n        /* \"#utility.yul\":11152:11155   */\n      dup7\n        /* \"#utility.yul\":11075:11164   */\n      tag_161\n      jump\t// in\n    tag_309:\n        /* \"#utility.yul\":11068:11164   */\n      swap5\n      pop\n        /* \"#utility.yul\":11195:11196   */\n      0x01\n        /* \"#utility.yul\":11184:11193   */\n      dup3\n        /* \"#utility.yul\":11180:11197   */\n      and\n        /* \"#utility.yul\":11211:11212   */\n      0x00\n        /* \"#utility.yul\":11206:11372   */\n      dup2\n      eq\n      tag_311\n      jumpi\n        /* \"#utility.yul\":11386:11387   */\n      0x01\n        /* \"#utility.yul\":11381:11722   */\n      dup2\n      eq\n      tag_312\n      jumpi\n        /* \"#utility.yul\":11173:11722   */\n      jump(tag_310)\n        /* \"#utility.yul\":11206:11372   */\n    tag_311:\n        /* \"#utility.yul\":11290:11294   */\n      0xff\n        /* \"#utility.yul\":11286:11295   */\n      not\n        /* \"#utility.yul\":11275:11284   */\n      dup4\n        /* \"#utility.yul\":11271:11296   */\n      and\n        /* \"#utility.yul\":11266:11269   */\n      dup7\n        /* \"#utility.yul\":11259:11297   */\n      mstore\n        /* \"#utility.yul\":11352:11358   */\n      dup2\n        /* \"#utility.yul\":11345:11359   */\n      iszero\n        /* \"#utility.yul\":11338:11360   */\n      iszero\n        /* \"#utility.yul\":11330:11336   */\n      dup3\n        /* \"#utility.yul\":11326:11361   */\n      mul\n        /* \"#utility.yul\":11321:11324   */\n      dup7\n        /* \"#utility.yul\":11317:11362   */\n      add\n        /* \"#utility.yul\":11310:11362   */\n      swap4\n      pop\n        /* \"#utility.yul\":11206:11372   */\n      jump(tag_310)\n        /* \"#utility.yul\":11381:11722   */\n    tag_312:\n        /* \"#utility.yul\":11448:11486   */\n      tag_313\n        /* \"#utility.yul\":11480:11485   */\n      dup6\n        /* \"#utility.yul\":11448:11486   */\n      tag_163\n      jump\t// in\n    tag_313:\n        /* \"#utility.yul\":11508:11509   */\n      0x00\n        /* \"#utility.yul\":11522:11676   */\n    tag_314:\n        /* \"#utility.yul\":11536:11542   */\n      dup4\n        /* \"#utility.yul\":11533:11534   */\n      dup2\n        /* \"#utility.yul\":11530:11543   */\n      lt\n        /* \"#utility.yul\":11522:11676   */\n      iszero\n      tag_316\n      jumpi\n        /* \"#utility.yul\":11610:11617   */\n      dup2\n        /* \"#utility.yul\":11604:11618   */\n      sload\n        /* \"#utility.yul\":11600:11601   */\n      dup2\n        /* \"#utility.yul\":11595:11598   */\n      dup10\n        /* \"#utility.yul\":11591:11602   */\n      add\n        /* \"#utility.yul\":11584:11619   */\n      mstore\n        /* \"#utility.yul\":11660:11661   */\n      0x01\n        /* \"#utility.yul\":11651:11658   */\n      dup3\n        /* \"#utility.yul\":11647:11662   */\n      add\n        /* \"#utility.yul\":11636:11662   */\n      swap2\n      pop\n        /* \"#utility.yul\":11558:11562   */\n      0x20\n        /* \"#utility.yul\":11555:11556   */\n      dup2\n        /* \"#utility.yul\":11551:11563   */\n      add\n        /* \"#utility.yul\":11546:11563   */\n      swap1\n      pop\n        /* \"#utility.yul\":11522:11676   */\n      jump(tag_314)\n    tag_316:\n        /* \"#utility.yul\":11705:11711   */\n      dup4\n        /* \"#utility.yul\":11700:11703   */\n      dup9\n        /* \"#utility.yul\":11696:11712   */\n      add\n        /* \"#utility.yul\":11689:11712   */\n      swap6\n      pop\n        /* \"#utility.yul\":11388:11722   */\n      pop\n      pop\n        /* \"#utility.yul\":11173:11722   */\n    tag_310:\n      pop\n        /* \"#utility.yul\":10961:11728   */\n      pop\n      pop\n        /* \"#utility.yul\":10854:11728   */\n      swap3\n      swap2\n      pop\n      pop\n      jump\t// out\n        /* \"#utility.yul\":11734:12003   */\n    tag_110:\n        /* \"#utility.yul\":11863:11866   */\n      0x00\n        /* \"#utility.yul\":11885:11977   */\n      tag_318\n        /* \"#utility.yul\":11973:11976   */\n      dup3\n        /* \"#utility.yul\":11964:11970   */\n      dup5\n        /* \"#utility.yul\":11885:11977   */\n      tag_164\n      jump\t// in\n    tag_318:\n        /* \"#utility.yul\":11878:11977   */\n      swap2\n      pop\n        /* \"#utility.yul\":11994:11997   */\n      dup2\n        /* \"#utility.yul\":11987:11997   */\n      swap1\n      pop\n        /* \"#utility.yul\":11734:12003   */\n      swap3\n      swap2\n      pop\n      pop\n      jump\t// out\n        /* \"#utility.yul\":12009:12102   */\n    tag_165:\n        /* \"#utility.yul\":12046:12052   */\n      0x00\n        /* \"#utility.yul\":12093:12095   */\n      0x20\n        /* \"#utility.yul\":12088:12090   */\n      0x1f\n        /* \"#utility.yul\":12081:12086   */\n      dup4\n        /* \"#utility.yul\":12077:12091   */\n      add\n        /* \"#utility.yul\":12073:12096   */\n      div\n        /* \"#utility.yul\":12063:12096   */\n      swap1\n      pop\n        /* \"#utility.yul\":12009:12102   */\n      swap2\n      swap1\n      pop\n      jump\t// out\n        /* \"#utility.yul\":12108:12215   */\n    tag_166:\n        /* \"#utility.yul\":12152:12160   */\n      0x00\n        /* \"#utility.yul\":12202:12207   */\n      dup3\n        /* \"#utility.yul\":12196:12200   */\n      dup3\n        /* \"#utility.yul\":12192:12208   */\n      shl\n        /* \"#utility.yul\":12171:12208   */\n      swap1\n      pop\n        /* \"#utility.yul\":12108:12215   */\n      swap3\n      swap2\n      pop\n      pop\n      jump\t// out\n        /* \"#utility.yul\":12221:12614   */\n    tag_167:\n        /* \"#utility.yul\":12290:12296   */\n      0x00\n        /* \"#utility.yul\":12340:12341   */\n      0x08\n        /* \"#utility.yul\":12328:12338   */\n      dup4\n        /* \"#utility.yul\":12324:12342   */\n      mul\n        /* \"#utility.yul\":12363:12460   */\n      tag_322\n        /* \"#utility.yul\":12393:12459   */\n      0xffffffffffffffffffffffffffffffffffffffffffffffffffffffffffffffff\n        /* \"#utility.yul\":12382:12391   */\n      dup3\n        /* \"#utility.yul\":12363:12460   */\n      tag_166\n      jump\t// in\n    tag_322:\n        /* \"#utility.yul\":12481:12520   */\n      tag_323\n        /* \"#utility.yul\":12511:12519   */\n      dup7\n        /* \"#utility.yul\":12500:12509   */\n      dup4\n        /* \"#utility.yul\":12481:12520   */\n      tag_166\n      jump\t// in\n    tag_323:\n        /* \"#utility.yul\":12469:12520   */\n      swap6\n      pop\n        /* \"#utility.yul\":12553:12557   */\n      dup1\n        /* \"#utility.yul\":12549:12558   */\n      not\n        /* \"#utility.yul\":12542:12547   */\n      dup5\n        /* \"#utility.yul\":12538:12559   */\n      and\n        /* \"#utility.yul\":12529:12559   */\n      swap4\n      pop\n        /* \"#utility.yul\":12602:12606   */\n      dup1\n        /* \"#utility.yul\":12592:12600   */\n      dup7\n        /* \"#utility.yul\":12588:12607   */\n      and\n        /* \"#utility.yul\":12581:12586   */\n      dup5\n        /* \"#utility.yul\":12578:12608   */\n      or\n        /* \"#utility.yul\":12568:12608   */\n      swap3\n      pop\n        /* \"#utility.yul\":12297:12614   */\n      pop\n      pop\n        /* \"#utility.yul\":12221:12614   */\n      swap4\n      swap3\n      pop\n      pop\n      pop\n      jump\t// out\n        /* \"#utility.yul\":12620:12680   */\n    tag_168:\n        /* \"#utility.yul\":12648:12651   */\n      0x00\n        /* \"#utility.yul\":12669:12674   */\n      dup2\n        /* \"#utility.yul\":12662:12674   */\n      swap1\n      pop\n        /* \"#utility.yul\":12620:12680   */\n      swap2\n      swap1\n      pop\n      jump\t// out\n        /* \"#utility.yul\":12686:12828   */\n    tag_169:\n        /* \"#utility.yul\":12736:12745   */\n      0x00\n        /* \"#utility.yul\":12769:12822   */\n      tag_326\n        /* \"#utility.yul\":12787:12821   */\n      tag_327\n        /* \"#utility.yul\":12796:12820   */\n      tag_328\n        /* \"#utility.yul\":12814:12819   */\n      dup5\n        /* \"#utility.yul\":12796:12820   */\n      tag_125\n      jump\t// in\n    tag_328:\n        /* \"#utility.yul\":12787:12821   */\n      tag_168\n      jump\t// in\n    tag_327:\n        /* \"#utility.yul\":12769:12822   */\n      tag_125\n      jump\t// in\n    tag_326:\n        /* \"#utility.yul\":12756:12822   */\n      swap1\n      pop\n        /* \"#utility.yul\":12686:12828   */\n      swap2\n      swap1\n      pop\n      jump\t// out\n        /* \"#utility.yul\":12834:12909   */\n    tag_170:\n        /* \"#utility.yul\":12877:12880   */\n      0x00\n        /* \"#utility.yul\":12898:12903   */\n      dup2\n        /* \"#utility.yul\":12891:12903   */\n      swap1\n      pop\n        /* \"#utility.yul\":12834:12909   */\n      swap2\n      swap1\n      pop\n      jump\t// out\n        /* \"#utility.yul\":12915:13184   */\n    tag_171:\n        /* \"#utility.yul\":13025:13064   */\n      tag_331\n        /* \"#utility.yul\":13056:13063   */\n      dup4\n        /* \"#utility.yul\":13025:13064   */\n      tag_169\n      jump\t// in\n    tag_331:\n        /* \"#utility.yul\":13086:13177   */\n      tag_332\n        /* \"#utility.yul\":13135:13176   */\n      tag_333\n        /* \"#utility.yul\":13159:13175   */\n      dup3\n        /* \"#utility.yul\":13135:13176   */\n      tag_170\n      jump\t// in\n    tag_333:\n        /* \"#utility.yul\":13127:13133   */\n      dup5\n        /* \"#utility.yul\":13120:13124   */\n      dup5\n        /* \"#utility.yul\":13114:13125   */\n      sload\n        /* \"#utility.yul\":13086:13177   */\n      tag_167\n      jump\t// in\n    tag_332:\n        /* \"#utility.yul\":13080:13084   */\n      dup3\n        /* \"#utility.yul\":13073:13178   */\n      sstore\n        /* \"#utility.yul\":12991:13184   */\n      pop\n        /* \"#utility.yul\":12915:13184   */\n      pop\n      pop\n      pop\n      jump\t// out\n        /* \"#utility.yul\":13190:13263   */\n    tag_172:\n        /* \"#utility.yul\":13235:13238   */\n      0x00\n        /* \"#utility.yul\":13190:13263   */\n      swap1\n      jump\t// out\n        /* \"#utility.yul\":13269:13458   */\n    tag_173:\n        /* \"#utility.yul\":13346:13378   */\n      tag_336\n      tag_172\n      jump\t// in\n    tag_336:\n        /* \"#utility.yul\":13387:13452   */\n      tag_337\n        /* \"#utility.yul\":13445:13451   */\n      dup2\n        /* \"#utility.yul\":13437:13443   */\n      dup5\n        /* \"#utility.yul\":13431:13435   */\n      dup5\n        /* \"#utility.yul\":13387:13452   */\n      tag_171\n      jump\t// in\n    tag_337:\n        /* \"#utility.yul\":13322:13458   */\n      pop\n        /* \"#utility.yul\":13269:13458   */\n      pop\n      pop\n      jump\t// out\n        /* \"#utility.yul\":13464:13650   */\n    tag_174:\n        /* \"#utility.yul\":13524:13644   */\n    tag_339:\n        /* \"#utility.yul\":13541:13544   */\n      dup2\n        /* \"#utility.yul\":13534:13539   */\n      dup2\n        /* \"#utility.yul\":13531:13545   */\n      lt\n        /* \"#utility.yul\":13524:13644   */\n      iszero\n      tag_341\n      jumpi\n        /* \"#utility.yul\":13595:13634   */\n      tag_342\n        /* \"#utility.yul\":13632:13633   */\n      0x00\n        /* \"#utility.yul\":13625:13630   */\n      dup3\n        /* \"#utility.yul\":13595:13634   */\n      tag_173\n      jump\t// in\n    tag_342:\n        /* \"#utility.yul\":13568:13569   */\n      0x01\n        /* \"#utility.yul\":13561:13566   */\n      dup2\n        /* \"#utility.yul\":13557:13570   */\n      add\n        /* \"#utility.yul\":13548:13570   */\n      swap1\n      pop\n        /* \"#utility.yul\":13524:13644   */\n      jump(tag_339)\n    tag_341:\n        /* \"#utility.yul\":13464:13650   */\n      pop\n      pop\n      jump\t// out\n        /* \"#utility.yul\":13656:14199   */\n    tag_175:\n        /* \"#utility.yul\":13757:13759   */\n      0x1f\n        /* \"#utility.yul\":13752:13755   */\n      dup3\n        /* \"#utility.yul\":13749:13760   */\n      gt\n        /* \"#utility.yul\":13746:14192   */\n      iszero\n      tag_344\n      jumpi\n        /* \"#utility.yul\":13791:13829   */\n      tag_345\n        /* \"#utility.yul\":13823:13828   */\n      dup2\n        /* \"#utility.yul\":13791:13829   */\n      tag_163\n      jump\t// in\n    tag_345:\n        /* \"#utility.yul\":13875:13904   */\n      tag_346\n        /* \"#utility.yul\":13893:13903   */\n      dup5\n        /* \"#utility.yul\":13875:13904   */\n      tag_165\n      jump\t// in\n    tag_346:\n        /* \"#utility.yul\":13865:13873   */\n      dup2\n        /* \"#utility.yul\":13861:13905   */\n      add\n        /* \"#utility.yul\":14058:14060   */\n      0x20\n        /* \"#utility.yul\":14046:14056   */\n      dup6\n        /* \"#utility.yul\":14043:14061   */\n      lt\n        /* \"#utility.yul\":14040:14089   */\n      iszero\n      tag_347\n      jumpi\n        /* \"#utility.yul\":14079:14087   */\n      dup2\n        /* \"#utility.yul\":14064:14087   */\n      swap1\n      pop\n        /* \"#utility.yul\":14040:14089   */\n    tag_347:\n        /* \"#utility.yul\":14102:14182   */\n      tag_348\n        /* \"#utility.yul\":14158:14180   */\n      tag_349\n        /* \"#utility.yul\":14176:14179   */\n      dup6\n        /* \"#utility.yul\":14158:14180   */\n      tag_165\n      jump\t// in\n    tag_349:\n        /* \"#utility.yul\":14148:14156   */\n      dup4\n        /* \"#utility.yul\":14144:14181   */\n      add\n        /* \"#utility.yul\":14131:14142   */\n      dup3\n        /* \"#utility.yul\":14102:14182   */\n      tag_174\n      jump\t// in\n    tag_348:\n        /* \"#utility.yul\":13761:14192   */\n      pop\n      pop\n        /* \"#utility.yul\":13746:14192   */\n    tag_344:\n        /* \"#utility.yul\":13656:14199   */\n      pop\n      pop\n      pop\n      jump\t// out\n        /* \"#utility.yul\":14205:14322   */\n    tag_176:\n        /* \"#utility.yul\":14259:14267   */\n      0x00\n        /* \"#utility.yul\":14309:14314   */\n      dup3\n        /* \"#utility.yul\":14303:14307   */\n      dup3\n        /* \"#utility.yul\":14299:14315   */\n      shr\n        /* \"#utility.yul\":14278:14315   */\n      swap1\n      pop\n        /* \"#utility.yul\":14205:14322   */\n      swap3\n      swap2\n      pop\n      pop\n      jump\t// out\n        /* \"#utility.yul\":14328:14497   */\n    tag_177:\n        /* \"#utility.yul\":14372:14378   */\n      0x00\n        /* \"#utility.yul\":14405:14456   */\n      tag_352\n        /* \"#utility.yul\":14453:14454   */\n      0x00\n        /* \"#utility.yul\":14449:14455   */\n      not\n        /* \"#utility.yul\":14441:14446   */\n      dup5\n        /* \"#utility.yul\":14438:14439   */\n      0x08\n        /* \"#utility.yul\":14434:14447   */\n      mul\n        /* \"#utility.yul\":14405:14456   */\n      tag_176\n      jump\t// in\n    tag_352:\n        /* \"#utility.yul\":14401:14457   */\n      not\n        /* \"#utility.yul\":14486:14490   */\n      dup1\n        /* \"#utility.yul\":14480:14484   */\n      dup4\n        /* \"#utility.yul\":14476:14491   */\n      and\n        /* \"#utility.yul\":14466:14491   */\n      swap2\n      pop\n        /* \"#utility.yul\":14379:14497   */\n      pop\n        /* \"#utility.yul\":14328:14497   */\n      swap3\n      swap2\n      pop\n      pop\n      jump\t// out\n        /* \"#utility.yul\":14502:14797   */\n    tag_178:\n        /* \"#utility.yul\":14578:14582   */\n      0x00\n        /* \"#utility.yul\":14724:14753   */\n      tag_354\n        /* \"#utility.yul\":14749:14752   */\n      dup4\n        /* \"#utility.yul\":14743:14747   */\n      dup4\n        /* \"#utility.yul\":14724:14753   */\n      tag_177\n      jump\t// in\n    tag_354:\n        /* \"#utility.yul\":14716:14753   */\n      swap2\n      pop\n        /* \"#utility.yul\":14786:14789   */\n      dup3\n        /* \"#utility.yul\":14783:14784   */\n      0x02\n        /* \"#utility.yul\":14779:14790   */\n      mul\n        /* \"#utility.yul\":14773:14777   */\n      dup3\n        /* \"#utility.yul\":14770:14791   */\n      or\n        /* \"#utility.yul\":14762:14791   */\n      swap1\n      pop\n        /* \"#utility.yul\":14502:14797   */\n      swap3\n      swap2\n      pop\n      pop\n      jump\t// out\n        /* \"#utility.yul\":14802:16197   */\n    tag_116:\n        /* \"#utility.yul\":14919:14956   */\n      tag_356\n        /* \"#utility.yul\":14952:14955   */\n      dup3\n        /* \"#utility.yul\":14919:14956   */\n      tag_135\n      jump\t// in\n    tag_356:\n        /* \"#utility.yul\":15021:15039   */\n      0xffffffffffffffff\n        /* \"#utility.yul\":15013:15019   */\n      dup2\n        /* \"#utility.yul\":15010:15040   */\n      gt\n        /* \"#utility.yul\":15007:15063   */\n      iszero\n      tag_357\n      jumpi\n        /* \"#utility.yul\":15043:15061   */\n      tag_358\n      tag_142\n      jump\t// in\n    tag_358:\n        /* \"#utility.yul\":15007:15063   */\n    tag_357:\n        /* \"#utility.yul\":15087:15125   */\n      tag_359\n        /* \"#utility.yul\":15119:15123   */\n      dup3\n        /* \"#utility.yul\":15113:15124   */\n      sload\n        /* \"#utility.yul\":15087:15125   */\n      tag_101\n      jump\t// in\n    tag_359:\n        /* \"#utility.yul\":15172:15239   */\n      tag_360\n        /* \"#utility.yul\":15232:15238   */\n      dup3\n        /* \"#utility.yul\":15224:15230   */\n      dup3\n        /* \"#utility.yul\":15218:15222   */\n      dup6\n        /* \"#utility.yul\":15172:15239   */\n      tag_175\n      jump\t// in\n    tag_360:\n        /* \"#utility.yul\":15266:15267   */\n      0x00\n        /* \"#utility.yul\":15290:15294   */\n      0x20\n        /* \"#utility.yul\":15277:15294   */\n      swap1\n      pop\n        /* \"#utility.yul\":15322:15324   */\n      0x1f\n        /* \"#utility.yul\":15314:15320   */\n      dup4\n        /* \"#utility.yul\":15311:15325   */\n      gt\n        /* \"#utility.yul\":15339:15340   */\n      0x01\n        /* \"#utility.yul\":15334:15952   */\n      dup2\n      eq\n      tag_362\n      jumpi\n        /* \"#utility.yul\":15996:15997   */\n      0x00\n        /* \"#utility.yul\":16013:16019   */\n      dup5\n        /* \"#utility.yul\":16010:16087   */\n      iszero\n      tag_363\n      jumpi\n        /* \"#utility.yul\":16062:16071   */\n      dup3\n        /* \"#utility.yul\":16057:16060   */\n      dup8\n        /* \"#utility.yul\":16053:16072   */\n      add\n        /* \"#utility.yul\":16047:16073   */\n      mload\n        /* \"#utility.yul\":16038:16073   */\n      swap1\n      pop\n        /* \"#utility.yul\":16010:16087   */\n    tag_363:\n        /* \"#utility.yul\":16113:16180   */\n      tag_364\n        /* \"#utility.yul\":16173:16179   */\n      dup6\n        /* \"#utility.yul\":16166:16171   */\n      dup3\n        /* \"#utility.yul\":16113:16180   */\n      tag_178\n      jump\t// in\n    tag_364:\n        /* \"#utility.yul\":16107:16111   */\n      dup7\n        /* \"#utility.yul\":16100:16181   */\n      sstore\n        /* \"#utility.yul\":15969:16191   */\n      pop\n        /* \"#utility.yul\":15304:16191   */\n      jump(tag_361)\n        /* \"#utility.yul\":15334:15952   */\n    tag_362:\n        /* \"#utility.yul\":15386:15390   */\n      0x1f\n        /* \"#utility.yul\":15382:15391   */\n      not\n        /* \"#utility.yul\":15374:15380   */\n      dup5\n        /* \"#utility.yul\":15370:15392   */\n      and\n        /* \"#utility.yul\":15420:15457   */\n      tag_365\n        /* \"#utility.yul\":15452:15456   */\n      dup7\n        /* \"#utility.yul\":15420:15457   */\n      tag_163\n      jump\t// in\n    tag_365:\n        /* \"#utility.yul\":15479:15480   */\n      0x00\n        /* \"#utility.yul\":15493:15701   */\n    tag_366:\n        /* \"#utility.yul\":15507:15514   */\n      dup3\n        /* \"#utility.yul\":15504:15505   */\n      dup2\n        /* \"#utility.yul\":15501:15515   */\n      lt\n        /* \"#utility.yul\":15493:15701   */\n      iszero\n      tag_368\n      jumpi\n        /* \"#utility.yul\":15586:15595   */\n      dup5\n        /* \"#utility.yul\":15581:15584   */\n      dup10\n        /* \"#utility.yul\":15577:15596   */\n      add\n        /* \"#utility.yul\":15571:15597   */\n      mload\n        /* \"#utility.yul\":15563:15569   */\n      dup3\n        /* \"#utility.yul\":15556:15598   */\n      sstore\n        /* \"#utility.yul\":15637:15638   */\n      0x01\n        /* \"#utility.yul\":15629:15635   */\n      dup3\n        /* \"#utility.yul\":15625:15639   */\n      add\n        /* \"#utility.yul\":15615:15639   */\n      swap2\n      pop\n        /* \"#utility.yul\":15684:15686   */\n      0x20\n        /* \"#utility.yul\":15673:15682   */\n      dup6\n        /* \"#utility.yul\":15669:15687   */\n      add\n        /* \"#utility.yul\":15656:15687   */\n      swap5\n      pop\n        /* \"#utility.yul\":15530:15534   */\n      0x20\n        /* \"#utility.yul\":15527:15528   */\n      dup2\n        /* \"#utility.yul\":15523:15535   */\n      add\n        /* \"#utility.yul\":15518:15535   */\n      swap1\n      pop\n        /* \"#utility.yul\":15493:15701   */\n      jump(tag_366)\n    tag_368:\n        /* \"#utility.yul\":15729:15735   */\n      dup7\n        /* \"#utility.yul\":15720:15727   */\n      dup4\n        /* \"#utility.yul\":15717:15736   */\n      lt\n        /* \"#utility.yul\":15714:15893   */\n      iszero\n      tag_369\n      jumpi\n        /* \"#utility.yul\":15787:15796   */\n      dup5\n        /* \"#utility.yul\":15782:15785   */\n      dup10\n        /* \"#utility.yul\":15778:15797   */\n      add\n        /* \"#utility.yul\":15772:15798   */\n      mload\n        /* \"#utility.yul\":15830:15878   */\n      tag_370\n        /* \"#utility.yul\":15872:15876   */\n      0x1f\n        /* \"#utility.yul\":15864:15870   */\n      dup10\n        /* \"#utility.yul\":15860:15877   */\n      and\n        /* \"#utility.yul\":15849:15858   */\n      dup3\n        /* \"#utility.yul\":15830:15878   */\n      tag_177\n      jump\t// in\n    tag_370:\n        /* \"#utility.yul\":15822:15828   */\n      dup4\n        /* \"#utility.yul\":15815:15879   */\n      sstore\n        /* \"#utility.yul\":15737:15893   */\n      pop\n        /* \"#utility.yul\":15714:15893   */\n    tag_369:\n        /* \"#utility.yul\":15939:15940   */\n      0x01\n        /* \"#utility.yul\":15935:15936   */\n      0x02\n        /* \"#utility.yul\":15927:15933   */\n      dup9\n        /* \"#utility.yul\":15923:15937   */\n      mul\n        /* \"#utility.yul\":15919:15941   */\n      add\n        /* \"#utility.yul\":15913:15917   */\n      dup9\n        /* \"#utility.yul\":15906:15942   */\n      sstore\n        /* \"#utility.yul\":15341:15952   */\n      pop\n      pop\n      pop\n        /* \"#utility.yul\":15304:16191   */\n    tag_361:\n      pop\n        /* \"#utility.yul\":14894:16197   */\n      pop\n      pop\n      pop\n        /* \"#utility.yul\":14802:16197   */\n      pop\n      pop\n      jump\t// out\n        /* \"#utility.yul\":16203:16374   */\n    tag_122:\n        /* \"#utility.yul\":16242:16245   */\n      0x00\n        /* \"#utility.yul\":16265:16289   */\n      tag_372\n        /* \"#utility.yul\":16283:16288   */\n      dup3\n        /* \"#utility.yul\":16265:16289   */\n      tag_125\n      jump\t// in\n    tag_372:\n        /* \"#utility.yul\":16256:16289   */\n      swap2\n      pop\n        /* \"#utility.yul\":16311:16315   */\n      0x00\n        /* \"#utility.yul\":16304:16309   */\n      dup3\n        /* \"#utility.yul\":16301:16316   */\n      sub\n        /* \"#utility.yul\":16298:16339   */\n      tag_373\n      jumpi\n        /* \"#utility.yul\":16319:16337   */\n      tag_374\n      tag_159\n      jump\t// in\n    tag_374:\n        /* \"#utility.yul\":16298:16339   */\n    tag_373:\n        /* \"#utility.yul\":16366:16367   */\n      0x01\n        /* \"#utility.yul\":16359:16364   */\n      dup3\n        /* \"#utility.yul\":16355:16368   */\n      sub\n        /* \"#utility.yul\":16348:16368   */\n      swap1\n      pop\n        /* \"#utility.yul\":16203:16374   */\n      swap2\n      swap1\n      pop\n      jump\t// out\n\n    auxdata: 0xa26469706673582212208f8d69558a7cf22ef426c0da5b7611e9dcac9e1288addbe4b1563fd31b3a456564736f6c634300081a0033\n}\n",
				"bytecode": {
					"linkReferences": {},
					"object": "60806040526040518060400160405280600c81526020017f44657370657261646f204f5900000000000000000000000000000000000000008152506003908161004891906102db565b50348015610054575f80fd5b506040516113c63803806113c683398181016040528101906100769190610408565b8073ffffffffffffffffffffffffffffffffffffffff1660065f9054906101000a9050505050610433565b5f81519050919050565b7f4e487b71000000000000000000000000000000000000000000000000000000005f52604160045260245ffd5b7f4e487b71000000000000000000000000000000000000000000000000000000005f52602260045260245ffd5b5f600282049050600182168061011c57607f821691505b60208210810361012f5761012e6100d8565b5b50919050565b5f819050815f5260205f209050919050565b5f6020601f8301049050919050565b5f82821b905092915050565b5f600883026101917fffffffffffffffffffffffffffffffffffffffffffffffffffffffffffffffff82610156565b61019b8683610156565b95508019841693508086168417925050509392505050565b5f819050919050565b5f819050919050565b5f6101df6101da6101d5846101b3565b6101bc565b6101b3565b9050919050565b5f819050919050565b6101f8836101c5565b61020c610204826101e6565b848454610162565b825550505050565b5f90565b610220610214565b61022b8184846101ef565b505050565b5b8181101561024e576102435f82610218565b600181019050610231565b5050565b601f8211156102935761026481610135565b61026d84610147565b8101602085101561027c578190505b61029061028885610147565b830182610230565b50505b505050565b5f82821c905092915050565b5f6102b35f1984600802610298565b1980831691505092915050565b5f6102cb83836102a4565b9150826002028217905092915050565b6102e4826100a1565b67ffffffffffffffff8111156102fd576102fc6100ab565b5b6103078254610105565b610312828285610252565b5f60209050601f831160018114610343575f8415610331578287015190505b61033b85826102c0565b8655506103a2565b601f19841661035186610135565b5f5b8281101561037857848901518255600182019150602085019450602081019050610353565b868310156103955784890151610391601f8916826102a4565b8355505b6001600288020188555050505b505050505050565b5f80fd5b5f73ffffffffffffffffffffffffffffffffffffffff82169050919050565b5f6103d7826103ae565b9050919050565b6103e7816103cd565b81146103f1575f80fd5b50565b5f81519050610402816103de565b92915050565b5f6020828403121561041d5761041c6103aa565b5b5f61042a848285016103f4565b91505092915050565b610f86806104405f395ff3fe608060405234801561000f575f80fd5b506004361061012a575f3560e01c8063777d850f116100ab578063a8a7b8951161006f578063a8a7b895146102fc578063da50eaee14610318578063dc928e4b14610322578063e492fd8414610340578063eb1b30d91461035c5761012a565b8063777d850f1461027e57806382180568146102ae5780638b1f61c8146102ca57806391aba7a1146102d45780639b57e711146102f25761012a565b80635f6a36da116100f25780635f6a36da146101e857806364e813a2146102065780636deecdbe146102245780636e5ca88d1461024257806375eb2ad1146102605761012a565b806306540f7e1461012e57806308b9e8501461014c57806318e5f16b1461017c578063492bfa181461019a5780635ce25353146101b8575b5f80fd5b610136610378565b604051610143919061069c565b60405180910390f35b610166600480360381019061016191906106f0565b61037e565b604051610173919061069c565b60405180910390f35b610184610393565b604051610191919061076d565b60405180910390f35b6101a26103b8565b6040516101af91906107f6565b60405180910390f35b6101d260048036038101906101cd9190610942565b610444565b6040516101df91906109a3565b60405180910390f35b6101f061049c565b6040516101fd919061069c565b60405180910390f35b61020e6104b5565b60405161021b919061076d565b60405180910390f35b61022c6104da565b60405161023991906109a3565b60405180910390f35b61024a6104ea565b60405161025791906109d7565b60405180910390f35b6102686104fd565b604051610275919061069c565b60405180910390f35b61029860048036038101906102939190610a1a565b61053c565b6040516102a5919061069c565b60405180910390f35b6102c860048036038101906102c39190610942565b610563565b005b6102d2610576565b005b6102dc61058a565b6040516102e9919061076d565b60405180910390f35b6102fa6105af565b005b61031660048036038101906103119190610a6f565b6105f1565b005b610320610634565b005b61032a61064d565b60405161033791906109d7565b60405180910390f35b61035a60048036038101906103559190610a9a565b61065f565b005b61037660048036038101906103719190610aef565b610669565b005b60015481565b5f818361038b9190610b47565b905092915050565b60055f9054906101000a900473ffffffffffffffffffffffffffffffffffffffff1681565b600380546103c590610ba7565b80601f01602080910402602001604051908101604052809291908181526020018280546103f190610ba7565b801561043c5780601f106104135761010080835404028352916020019161043c565b820191905f5260205f20905b81548152906001019060200180831161041f57829003601f168201915b505050505081565b5f816040516020016104569190610c11565b60405160208183030381529060405280519060200120600360405160200161047e9190610cb9565b60405160208183030381529060405280519060200120149050919050565b5f600560149054906101000a900460ff1660ff16905090565b60065f9054906101000a900473ffffffffffffffffffffffffffffffffffffffff1681565b5f8054906101000a900460ff1681565b600560149054906101000a900460ff1681565b5f60045f9054906101000a900473ffffffffffffffffffffffffffffffffffffffff1673ffffffffffffffffffffffffffffffffffffffff1631905090565b5f81600560146101000a81548160ff021916908360ff1602179055508160ff169050919050565b80600390816105729190610e5a565b5050565b60015f815480929190600190039190505550565b60045f9054906101000a900473ffffffffffffffffffffffffffffffffffffffff1681565b3360055f6101000a81548173ffffffffffffffffffffffffffffffffffffffff021916908373ffffffffffffffffffffffffffffffffffffffff160217905550565b8060045f6101000a81548173ffffffffffffffffffffffffffffffffffffffff021916908373ffffffffffffffffffffffffffffffffffffffff16021790555050565b60015f81548092919061064690610f29565b9190505550565b60025f9054906101000a900460ff1681565b8060018190555050565b805f806101000a81548160ff02191690831515021790555050565b5f819050919050565b61069681610684565b82525050565b5f6020820190506106af5f83018461068d565b92915050565b5f604051905090565b5f80fd5b5f80fd5b6106cf81610684565b81146106d9575f80fd5b50565b5f813590506106ea816106c6565b92915050565b5f8060408385031215610706576107056106be565b5b5f610713858286016106dc565b9250506020610724858286016106dc565b9150509250929050565b5f73ffffffffffffffffffffffffffffffffffffffff82169050919050565b5f6107578261072e565b9050919050565b6107678161074d565b82525050565b5f6020820190506107805f83018461075e565b92915050565b5f81519050919050565b5f82825260208201905092915050565b8281835e5f83830152505050565b5f601f19601f8301169050919050565b5f6107c882610786565b6107d28185610790565b93506107e28185602086016107a0565b6107eb816107ae565b840191505092915050565b5f6020820190508181035f83015261080e81846107be565b905092915050565b5f80fd5b5f80fd5b7f4e487b71000000000000000000000000000000000000000000000000000000005f52604160045260245ffd5b610854826107ae565b810181811067ffffffffffffffff821117156108735761087261081e565b5b80604052505050565b5f6108856106b5565b9050610891828261084b565b919050565b5f67ffffffffffffffff8211156108b0576108af61081e565b5b6108b9826107ae565b9050602081019050919050565b828183375f83830152505050565b5f6108e66108e184610896565b61087c565b9050828152602081018484840111156109025761090161081a565b5b61090d8482856108c6565b509392505050565b5f82601f83011261092957610928610816565b5b81356109398482602086016108d4565b91505092915050565b5f60208284031215610957576109566106be565b5b5f82013567ffffffffffffffff811115610974576109736106c2565b5b61098084828501610915565b91505092915050565b5f8115159050919050565b61099d81610989565b82525050565b5f6020820190506109b65f830184610994565b92915050565b5f60ff82169050919050565b6109d1816109bc565b82525050565b5f6020820190506109ea5f8301846109c8565b92915050565b6109f9816109bc565b8114610a03575f80fd5b50565b5f81359050610a14816109f0565b92915050565b5f60208284031215610a2f57610a2e6106be565b5b5f610a3c84828501610a06565b91505092915050565b610a4e8161074d565b8114610a58575f80fd5b50565b5f81359050610a6981610a45565b92915050565b5f60208284031215610a8457610a836106be565b5b5f610a9184828501610a5b565b91505092915050565b5f60208284031215610aaf57610aae6106be565b5b5f610abc848285016106dc565b91505092915050565b610ace81610989565b8114610ad8575f80fd5b50565b5f81359050610ae981610ac5565b92915050565b5f60208284031215610b0457610b036106be565b5b5f610b1184828501610adb565b91505092915050565b7f4e487b71000000000000000000000000000000000000000000000000000000005f52601160045260245ffd5b5f610b5182610684565b9150610b5c83610684565b9250828201905080821115610b7457610b73610b1a565b5b92915050565b7f4e487b71000000000000000000000000000000000000000000000000000000005f52602260045260245ffd5b5f6002820490506001821680610bbe57607f821691505b602082108103610bd157610bd0610b7a565b5b50919050565b5f81905092915050565b5f610beb82610786565b610bf58185610bd7565b9350610c058185602086016107a0565b80840191505092915050565b5f610c1c8284610be1565b915081905092915050565b5f819050815f5260205f209050919050565b5f8154610c4581610ba7565b610c4f8186610bd7565b9450600182165f8114610c695760018114610c7e57610cb0565b60ff1983168652811515820286019350610cb0565b610c8785610c27565b5f5b83811015610ca857815481890152600182019150602081019050610c89565b838801955050505b50505092915050565b5f610cc48284610c39565b915081905092915050565b5f6020601f8301049050919050565b5f82821b905092915050565b5f60088302610d197fffffffffffffffffffffffffffffffffffffffffffffffffffffffffffffffff82610cde565b610d238683610cde565b95508019841693508086168417925050509392505050565b5f819050919050565b5f610d5e610d59610d5484610684565b610d3b565b610684565b9050919050565b5f819050919050565b610d7783610d44565b610d8b610d8382610d65565b848454610cea565b825550505050565b5f90565b610d9f610d93565b610daa818484610d6e565b505050565b5b81811015610dcd57610dc25f82610d97565b600181019050610db0565b5050565b601f821115610e1257610de381610c27565b610dec84610ccf565b81016020851015610dfb578190505b610e0f610e0785610ccf565b830182610daf565b50505b505050565b5f82821c905092915050565b5f610e325f1984600802610e17565b1980831691505092915050565b5f610e4a8383610e23565b9150826002028217905092915050565b610e6382610786565b67ffffffffffffffff811115610e7c57610e7b61081e565b5b610e868254610ba7565b610e91828285610dd1565b5f60209050601f831160018114610ec2575f8415610eb0578287015190505b610eba8582610e3f565b865550610f21565b601f198416610ed086610c27565b5f5b82811015610ef757848901518255600182019150602085019450602081019050610ed2565b86831015610f145784890151610f10601f891682610e23565b8355505b6001600288020188555050505b505050505050565b5f610f3382610684565b91505f8203610f4557610f44610b1a565b5b60018203905091905056fea26469706673582212208f8d69558a7cf22ef426c0da5b7611e9dcac9e1288addbe4b1563fd31b3a456564736f6c634300081a0033",
					"opcodes": "PUSH1 0x80 PUSH1 0x40 MSTORE PUSH1 0x40 MLOAD DUP1 PUSH1 0x40 ADD PUSH1 0x40 MSTORE DUP1 PUSH1 0xC DUP2 MSTORE PUSH1 0x20 ADD PUSH32 0x44657370657261646F204F590000000000000000000000000000000000000000 DUP2 MSTORE POP PUSH1 0x3 SWAP1 DUP2 PUSH2 0x48 SWAP2 SWAP1 PUSH2 0x2DB JUMP JUMPDEST POP CALLVALUE DUP1 ISZERO PUSH2 0x54 JUMPI PUSH0 DUP1 REVERT JUMPDEST POP PUSH1 0x40 MLOAD PUSH2 0x13C6 CODESIZE SUB DUP1 PUSH2 0x13C6 DUP4 CODECOPY DUP2 DUP2 ADD PUSH1 0x40 MSTORE DUP2 ADD SWAP1 PUSH2 0x76 SWAP2 SWAP1 PUSH2 0x408 JUMP JUMPDEST DUP1 PUSH20 0xFFFFFFFFFFFFFFFFFFFFFFFFFFFFFFFFFFFFFFFF AND PUSH1 0x6 PUSH0 SWAP1 SLOAD SWAP1 PUSH2 0x100 EXP SWAP1 POP POP POP POP PUSH2 0x433 JUMP JUMPDEST PUSH0 DUP2 MLOAD SWAP1 POP SWAP2 SWAP1 POP JUMP JUMPDEST PUSH32 0x4E487B7100000000000000000000000000000000000000000000000000000000 PUSH0 MSTORE PUSH1 0x41 PUSH1 0x4 MSTORE PUSH1 0x24 PUSH0 REVERT JUMPDEST PUSH32 0x4E487B7100000000000000000000000000000000000000000000000000000000 PUSH0 MSTORE PUSH1 0x22 PUSH1 0x4 MSTORE PUSH1 0x24 PUSH0 REVERT JUMPDEST PUSH0 PUSH1 0x2 DUP3 DIV SWAP1 POP PUSH1 0x1 DUP3 AND DUP1 PUSH2 0x11C JUMPI PUSH1 0x7F DUP3 AND SWAP2 POP JUMPDEST PUSH1 0x20 DUP3 LT DUP2 SUB PUSH2 0x12F JUMPI PUSH2 0x12E PUSH2 0xD8 JUMP JUMPDEST JUMPDEST POP SWAP2 SWAP1 POP JUMP JUMPDEST PUSH0 DUP2 SWAP1 POP DUP2 PUSH0 MSTORE PUSH1 0x20 PUSH0 KECCAK256 SWAP1 POP SWAP2 SWAP1 POP JUMP JUMPDEST PUSH0 PUSH1 0x20 PUSH1 0x1F DUP4 ADD DIV SWAP1 POP SWAP2 SWAP1 POP JUMP JUMPDEST PUSH0 DUP3 DUP3 SHL SWAP1 POP SWAP3 SWAP2 POP POP JUMP JUMPDEST PUSH0 PUSH1 0x8 DUP4 MUL PUSH2 0x191 PUSH32 0xFFFFFFFFFFFFFFFFFFFFFFFFFFFFFFFFFFFFFFFFFFFFFFFFFFFFFFFFFFFFFFFF DUP3 PUSH2 0x156 JUMP JUMPDEST PUSH2 0x19B DUP7 DUP4 PUSH2 0x156 JUMP JUMPDEST SWAP6 POP DUP1 NOT DUP5 AND SWAP4 POP DUP1 DUP7 AND DUP5 OR SWAP3 POP POP POP SWAP4 SWAP3 POP POP POP JUMP JUMPDEST PUSH0 DUP2 SWAP1 POP SWAP2 SWAP1 POP JUMP JUMPDEST PUSH0 DUP2 SWAP1 POP SWAP2 SWAP1 POP JUMP JUMPDEST PUSH0 PUSH2 0x1DF PUSH2 0x1DA PUSH2 0x1D5 DUP5 PUSH2 0x1B3 JUMP JUMPDEST PUSH2 0x1BC JUMP JUMPDEST PUSH2 0x1B3 JUMP JUMPDEST SWAP1 POP SWAP2 SWAP1 POP JUMP JUMPDEST PUSH0 DUP2 SWAP1 POP SWAP2 SWAP1 POP JUMP JUMPDEST PUSH2 0x1F8 DUP4 PUSH2 0x1C5 JUMP JUMPDEST PUSH2 0x20C PUSH2 0x204 DUP3 PUSH2 0x1E6 JUMP JUMPDEST DUP5 DUP5 SLOAD PUSH2 0x162 JUMP JUMPDEST DUP3 SSTORE POP POP POP POP JUMP JUMPDEST PUSH0 SWAP1 JUMP JUMPDEST PUSH2 0x220 PUSH2 0x214 JUMP JUMPDEST PUSH2 0x22B DUP2 DUP5 DUP5 PUSH2 0x1EF JUMP JUMPDEST POP POP POP JUMP JUMPDEST JUMPDEST DUP2 DUP2 LT ISZERO PUSH2 0x24E JUMPI PUSH2 0x243 PUSH0 DUP3 PUSH2 0x218 JUMP JUMPDEST PUSH1 0x1 DUP2 ADD SWAP1 POP PUSH2 0x231 JUMP JUMPDEST POP POP JUMP JUMPDEST PUSH1 0x1F DUP3 GT ISZERO PUSH2 0x293 JUMPI PUSH2 0x264 DUP2 PUSH2 0x135 JUMP JUMPDEST PUSH2 0x26D DUP5 PUSH2 0x147 JUMP JUMPDEST DUP2 ADD PUSH1 0x20 DUP6 LT ISZERO PUSH2 0x27C JUMPI DUP2 SWAP1 POP JUMPDEST PUSH2 0x290 PUSH2 0x288 DUP6 PUSH2 0x147 JUMP JUMPDEST DUP4 ADD DUP3 PUSH2 0x230 JUMP JUMPDEST POP POP JUMPDEST POP POP POP JUMP JUMPDEST PUSH0 DUP3 DUP3 SHR SWAP1 POP SWAP3 SWAP2 POP POP JUMP JUMPDEST PUSH0 PUSH2 0x2B3 PUSH0 NOT DUP5 PUSH1 0x8 MUL PUSH2 0x298 JUMP JUMPDEST NOT DUP1 DUP4 AND SWAP2 POP POP SWAP3 SWAP2 POP POP JUMP JUMPDEST PUSH0 PUSH2 0x2CB DUP4 DUP4 PUSH2 0x2A4 JUMP JUMPDEST SWAP2 POP DUP3 PUSH1 0x2 MUL DUP3 OR SWAP1 POP SWAP3 SWAP2 POP POP JUMP JUMPDEST PUSH2 0x2E4 DUP3 PUSH2 0xA1 JUMP JUMPDEST PUSH8 0xFFFFFFFFFFFFFFFF DUP2 GT ISZERO PUSH2 0x2FD JUMPI PUSH2 0x2FC PUSH2 0xAB JUMP JUMPDEST JUMPDEST PUSH2 0x307 DUP3 SLOAD PUSH2 0x105 JUMP JUMPDEST PUSH2 0x312 DUP3 DUP3 DUP6 PUSH2 0x252 JUMP JUMPDEST PUSH0 PUSH1 0x20 SWAP1 POP PUSH1 0x1F DUP4 GT PUSH1 0x1 DUP2 EQ PUSH2 0x343 JUMPI PUSH0 DUP5 ISZERO PUSH2 0x331 JUMPI DUP3 DUP8 ADD MLOAD SWAP1 POP JUMPDEST PUSH2 0x33B DUP6 DUP3 PUSH2 0x2C0 JUMP JUMPDEST DUP7 SSTORE POP PUSH2 0x3A2 JUMP JUMPDEST PUSH1 0x1F NOT DUP5 AND PUSH2 0x351 DUP7 PUSH2 0x135 JUMP JUMPDEST PUSH0 JUMPDEST DUP3 DUP2 LT ISZERO PUSH2 0x378 JUMPI DUP5 DUP10 ADD MLOAD DUP3 SSTORE PUSH1 0x1 DUP3 ADD SWAP2 POP PUSH1 0x20 DUP6 ADD SWAP5 POP PUSH1 0x20 DUP2 ADD SWAP1 POP PUSH2 0x353 JUMP JUMPDEST DUP7 DUP4 LT ISZERO PUSH2 0x395 JUMPI DUP5 DUP10 ADD MLOAD PUSH2 0x391 PUSH1 0x1F DUP10 AND DUP3 PUSH2 0x2A4 JUMP JUMPDEST DUP4 SSTORE POP JUMPDEST PUSH1 0x1 PUSH1 0x2 DUP9 MUL ADD DUP9 SSTORE POP POP POP JUMPDEST POP POP POP POP POP POP JUMP JUMPDEST PUSH0 DUP1 REVERT JUMPDEST PUSH0 PUSH20 0xFFFFFFFFFFFFFFFFFFFFFFFFFFFFFFFFFFFFFFFF DUP3 AND SWAP1 POP SWAP2 SWAP1 POP JUMP JUMPDEST PUSH0 PUSH2 0x3D7 DUP3 PUSH2 0x3AE JUMP JUMPDEST SWAP1 POP SWAP2 SWAP1 POP JUMP JUMPDEST PUSH2 0x3E7 DUP2 PUSH2 0x3CD JUMP JUMPDEST DUP2 EQ PUSH2 0x3F1 JUMPI PUSH0 DUP1 REVERT JUMPDEST POP JUMP JUMPDEST PUSH0 DUP2 MLOAD SWAP1 POP PUSH2 0x402 DUP2 PUSH2 0x3DE JUMP JUMPDEST SWAP3 SWAP2 POP POP JUMP JUMPDEST PUSH0 PUSH1 0x20 DUP3 DUP5 SUB SLT ISZERO PUSH2 0x41D JUMPI PUSH2 0x41C PUSH2 0x3AA JUMP JUMPDEST JUMPDEST PUSH0 PUSH2 0x42A DUP5 DUP3 DUP6 ADD PUSH2 0x3F4 JUMP JUMPDEST SWAP2 POP POP SWAP3 SWAP2 POP POP JUMP JUMPDEST PUSH2 0xF86 DUP1 PUSH2 0x440 PUSH0 CODECOPY PUSH0 RETURN INVALID PUSH1 0x80 PUSH1 0x40 MSTORE CALLVALUE DUP1 ISZERO PUSH2 0xF JUMPI PUSH0 DUP1 REVERT JUMPDEST POP PUSH1 0x4 CALLDATASIZE LT PUSH2 0x12A JUMPI PUSH0 CALLDATALOAD PUSH1 0xE0 SHR DUP1 PUSH4 0x777D850F GT PUSH2 0xAB JUMPI DUP1 PUSH4 0xA8A7B895 GT PUSH2 0x6F JUMPI DUP1 PUSH4 0xA8A7B895 EQ PUSH2 0x2FC JUMPI DUP1 PUSH4 0xDA50EAEE EQ PUSH2 0x318 JUMPI DUP1 PUSH4 0xDC928E4B EQ PUSH2 0x322 JUMPI DUP1 PUSH4 0xE492FD84 EQ PUSH2 0x340 JUMPI DUP1 PUSH4 0xEB1B30D9 EQ PUSH2 0x35C JUMPI PUSH2 0x12A JUMP JUMPDEST DUP1 PUSH4 0x777D850F EQ PUSH2 0x27E JUMPI DUP1 PUSH4 0x82180568 EQ PUSH2 0x2AE JUMPI DUP1 PUSH4 0x8B1F61C8 EQ PUSH2 0x2CA JUMPI DUP1 PUSH4 0x91ABA7A1 EQ PUSH2 0x2D4 JUMPI DUP1 PUSH4 0x9B57E711 EQ PUSH2 0x2F2 JUMPI PUSH2 0x12A JUMP JUMPDEST DUP1 PUSH4 0x5F6A36DA GT PUSH2 0xF2 JUMPI DUP1 PUSH4 0x5F6A36DA EQ PUSH2 0x1E8 JUMPI DUP1 PUSH4 0x64E813A2 EQ PUSH2 0x206 JUMPI DUP1 PUSH4 0x6DEECDBE EQ PUSH2 0x224 JUMPI DUP1 PUSH4 0x6E5CA88D EQ PUSH2 0x242 JUMPI DUP1 PUSH4 0x75EB2AD1 EQ PUSH2 0x260 JUMPI PUSH2 0x12A JUMP JUMPDEST DUP1 PUSH4 0x6540F7E EQ PUSH2 0x12E JUMPI DUP1 PUSH4 0x8B9E850 EQ PUSH2 0x14C JUMPI DUP1 PUSH4 0x18E5F16B EQ PUSH2 0x17C JUMPI DUP1 PUSH4 0x492BFA18 EQ PUSH2 0x19A JUMPI DUP1 PUSH4 0x5CE25353 EQ PUSH2 0x1B8 JUMPI JUMPDEST PUSH0 DUP1 REVERT JUMPDEST PUSH2 0x136 PUSH2 0x378 JUMP JUMPDEST PUSH1 0x40 MLOAD PUSH2 0x143 SWAP2 SWAP1 PUSH2 0x69C JUMP JUMPDEST PUSH1 0x40 MLOAD DUP1 SWAP2 SUB SWAP1 RETURN JUMPDEST PUSH2 0x166 PUSH1 0x4 DUP1 CALLDATASIZE SUB DUP2 ADD SWAP1 PUSH2 0x161 SWAP2 SWAP1 PUSH2 0x6F0 JUMP JUMPDEST PUSH2 0x37E JUMP JUMPDEST PUSH1 0x40 MLOAD PUSH2 0x173 SWAP2 SWAP1 PUSH2 0x69C JUMP JUMPDEST PUSH1 0x40 MLOAD DUP1 SWAP2 SUB SWAP1 RETURN JUMPDEST PUSH2 0x184 PUSH2 0x393 JUMP JUMPDEST PUSH1 0x40 MLOAD PUSH2 0x191 SWAP2 SWAP1 PUSH2 0x76D JUMP JUMPDEST PUSH1 0x40 MLOAD DUP1 SWAP2 SUB SWAP1 RETURN JUMPDEST PUSH2 0x1A2 PUSH2 0x3B8 JUMP JUMPDEST PUSH1 0x40 MLOAD PUSH2 0x1AF SWAP2 SWAP1 PUSH2 0x7F6 JUMP JUMPDEST PUSH1 0x40 MLOAD DUP1 SWAP2 SUB SWAP1 RETURN JUMPDEST PUSH2 0x1D2 PUSH1 0x4 DUP1 CALLDATASIZE SUB DUP2 ADD SWAP1 PUSH2 0x1CD SWAP2 SWAP1 PUSH2 0x942 JUMP JUMPDEST PUSH2 0x444 JUMP JUMPDEST PUSH1 0x40 MLOAD PUSH2 0x1DF SWAP2 SWAP1 PUSH2 0x9A3 JUMP JUMPDEST PUSH1 0x40 MLOAD DUP1 SWAP2 SUB SWAP1 RETURN JUMPDEST PUSH2 0x1F0 PUSH2 0x49C JUMP JUMPDEST PUSH1 0x40 MLOAD PUSH2 0x1FD SWAP2 SWAP1 PUSH2 0x69C JUMP JUMPDEST PUSH1 0x40 MLOAD DUP1 SWAP2 SUB SWAP1 RETURN JUMPDEST PUSH2 0x20E PUSH2 0x4B5 JUMP JUMPDEST PUSH1 0x40 MLOAD PUSH2 0x21B SWAP2 SWAP1 PUSH2 0x76D JUMP JUMPDEST PUSH1 0x40 MLOAD DUP1 SWAP2 SUB SWAP1 RETURN JUMPDEST PUSH2 0x22C PUSH2 0x4DA JUMP JUMPDEST PUSH1 0x40 MLOAD PUSH2 0x239 SWAP2 SWAP1 PUSH2 0x9A3 JUMP JUMPDEST PUSH1 0x40 MLOAD DUP1 SWAP2 SUB SWAP1 RETURN JUMPDEST PUSH2 0x24A PUSH2 0x4EA JUMP JUMPDEST PUSH1 0x40 MLOAD PUSH2 0x257 SWAP2 SWAP1 PUSH2 0x9D7 JUMP JUMPDEST PUSH1 0x40 MLOAD DUP1 SWAP2 SUB SWAP1 RETURN JUMPDEST PUSH2 0x268 PUSH2 0x4FD JUMP JUMPDEST PUSH1 0x40 MLOAD PUSH2 0x275 SWAP2 SWAP1 PUSH2 0x69C JUMP JUMPDEST PUSH1 0x40 MLOAD DUP1 SWAP2 SUB SWAP1 RETURN JUMPDEST PUSH2 0x298 PUSH1 0x4 DUP1 CALLDATASIZE SUB DUP2 ADD SWAP1 PUSH2 0x293 SWAP2 SWAP1 PUSH2 0xA1A JUMP JUMPDEST PUSH2 0x53C JUMP JUMPDEST PUSH1 0x40 MLOAD PUSH2 0x2A5 SWAP2 SWAP1 PUSH2 0x69C JUMP JUMPDEST PUSH1 0x40 MLOAD DUP1 SWAP2 SUB SWAP1 RETURN JUMPDEST PUSH2 0x2C8 PUSH1 0x4 DUP1 CALLDATASIZE SUB DUP2 ADD SWAP1 PUSH2 0x2C3 SWAP2 SWAP1 PUSH2 0x942 JUMP JUMPDEST PUSH2 0x563 JUMP JUMPDEST STOP JUMPDEST PUSH2 0x2D2 PUSH2 0x576 JUMP JUMPDEST STOP JUMPDEST PUSH2 0x2DC PUSH2 0x58A JUMP JUMPDEST PUSH1 0x40 MLOAD PUSH2 0x2E9 SWAP2 SWAP1 PUSH2 0x76D JUMP JUMPDEST PUSH1 0x40 MLOAD DUP1 SWAP2 SUB SWAP1 RETURN JUMPDEST PUSH2 0x2FA PUSH2 0x5AF JUMP JUMPDEST STOP JUMPDEST PUSH2 0x316 PUSH1 0x4 DUP1 CALLDATASIZE SUB DUP2 ADD SWAP1 PUSH2 0x311 SWAP2 SWAP1 PUSH2 0xA6F JUMP JUMPDEST PUSH2 0x5F1 JUMP JUMPDEST STOP JUMPDEST PUSH2 0x320 PUSH2 0x634 JUMP JUMPDEST STOP JUMPDEST PUSH2 0x32A PUSH2 0x64D JUMP JUMPDEST PUSH1 0x40 MLOAD PUSH2 0x337 SWAP2 SWAP1 PUSH2 0x9D7 JUMP JUMPDEST PUSH1 0x40 MLOAD DUP1 SWAP2 SUB SWAP1 RETURN JUMPDEST PUSH2 0x35A PUSH1 0x4 DUP1 CALLDATASIZE SUB DUP2 ADD SWAP1 PUSH2 0x355 SWAP2 SWAP1 PUSH2 0xA9A JUMP JUMPDEST PUSH2 0x65F JUMP JUMPDEST STOP JUMPDEST PUSH2 0x376 PUSH1 0x4 DUP1 CALLDATASIZE SUB DUP2 ADD SWAP1 PUSH2 0x371 SWAP2 SWAP1 PUSH2 0xAEF JUMP JUMPDEST PUSH2 0x669 JUMP JUMPDEST STOP JUMPDEST PUSH1 0x1 SLOAD DUP2 JUMP JUMPDEST PUSH0 DUP2 DUP4 PUSH2 0x38B SWAP2 SWAP1 PUSH2 0xB47 JUMP JUMPDEST SWAP1 POP SWAP3 SWAP2 POP POP JUMP JUMPDEST PUSH1 0x5 PUSH0 SWAP1 SLOAD SWAP1 PUSH2 0x100 EXP SWAP1 DIV PUSH20 0xFFFFFFFFFFFFFFFFFFFFFFFFFFFFFFFFFFFFFFFF AND DUP2 JUMP JUMPDEST PUSH1 0x3 DUP1 SLOAD PUSH2 0x3C5 SWAP1 PUSH2 0xBA7 JUMP JUMPDEST DUP1 PUSH1 0x1F ADD PUSH1 0x20 DUP1 SWAP2 DIV MUL PUSH1 0x20 ADD PUSH1 0x40 MLOAD SWAP1 DUP2 ADD PUSH1 0x40 MSTORE DUP1 SWAP3 SWAP2 SWAP1 DUP2 DUP2 MSTORE PUSH1 0x20 ADD DUP3 DUP1 SLOAD PUSH2 0x3F1 SWAP1 PUSH2 0xBA7 JUMP JUMPDEST DUP1 ISZERO PUSH2 0x43C JUMPI DUP1 PUSH1 0x1F LT PUSH2 0x413 JUMPI PUSH2 0x100 DUP1 DUP4 SLOAD DIV MUL DUP4 MSTORE SWAP2 PUSH1 0x20 ADD SWAP2 PUSH2 0x43C JUMP JUMPDEST DUP3 ADD SWAP2 SWAP1 PUSH0 MSTORE PUSH1 0x20 PUSH0 KECCAK256 SWAP1 JUMPDEST DUP2 SLOAD DUP2 MSTORE SWAP1 PUSH1 0x1 ADD SWAP1 PUSH1 0x20 ADD DUP1 DUP4 GT PUSH2 0x41F JUMPI DUP3 SWAP1 SUB PUSH1 0x1F AND DUP3 ADD SWAP2 JUMPDEST POP POP POP POP POP DUP2 JUMP JUMPDEST PUSH0 DUP2 PUSH1 0x40 MLOAD PUSH1 0x20 ADD PUSH2 0x456 SWAP2 SWAP1 PUSH2 0xC11 JUMP JUMPDEST PUSH1 0x40 MLOAD PUSH1 0x20 DUP2 DUP4 SUB SUB DUP2 MSTORE SWAP1 PUSH1 0x40 MSTORE DUP1 MLOAD SWAP1 PUSH1 0x20 ADD KECCAK256 PUSH1 0x3 PUSH1 0x40 MLOAD PUSH1 0x20 ADD PUSH2 0x47E SWAP2 SWAP1 PUSH2 0xCB9 JUMP JUMPDEST PUSH1 0x40 MLOAD PUSH1 0x20 DUP2 DUP4 SUB SUB DUP2 MSTORE SWAP1 PUSH1 0x40 MSTORE DUP1 MLOAD SWAP1 PUSH1 0x20 ADD KECCAK256 EQ SWAP1 POP SWAP2 SWAP1 POP JUMP JUMPDEST PUSH0 PUSH1 0x5 PUSH1 0x14 SWAP1 SLOAD SWAP1 PUSH2 0x100 EXP SWAP1 DIV PUSH1 0xFF AND PUSH1 0xFF AND SWAP1 POP SWAP1 JUMP JUMPDEST PUSH1 0x6 PUSH0 SWAP1 SLOAD SWAP1 PUSH2 0x100 EXP SWAP1 DIV PUSH20 0xFFFFFFFFFFFFFFFFFFFFFFFFFFFFFFFFFFFFFFFF AND DUP2 JUMP JUMPDEST PUSH0 DUP1 SLOAD SWAP1 PUSH2 0x100 EXP SWAP1 DIV PUSH1 0xFF AND DUP2 JUMP JUMPDEST PUSH1 0x5 PUSH1 0x14 SWAP1 SLOAD SWAP1 PUSH2 0x100 EXP SWAP1 DIV PUSH1 0xFF AND DUP2 JUMP JUMPDEST PUSH0 PUSH1 0x4 PUSH0 SWAP1 SLOAD SWAP1 PUSH2 0x100 EXP SWAP1 DIV PUSH20 0xFFFFFFFFFFFFFFFFFFFFFFFFFFFFFFFFFFFFFFFF AND PUSH20 0xFFFFFFFFFFFFFFFFFFFFFFFFFFFFFFFFFFFFFFFF AND BALANCE SWAP1 POP SWAP1 JUMP JUMPDEST PUSH0 DUP2 PUSH1 0x5 PUSH1 0x14 PUSH2 0x100 EXP DUP2 SLOAD DUP2 PUSH1 0xFF MUL NOT AND SWAP1 DUP4 PUSH1 0xFF AND MUL OR SWAP1 SSTORE POP DUP2 PUSH1 0xFF AND SWAP1 POP SWAP2 SWAP1 POP JUMP JUMPDEST DUP1 PUSH1 0x3 SWAP1 DUP2 PUSH2 0x572 SWAP2 SWAP1 PUSH2 0xE5A JUMP JUMPDEST POP POP JUMP JUMPDEST PUSH1 0x1 PUSH0 DUP2 SLOAD DUP1 SWAP3 SWAP2 SWAP1 PUSH1 0x1 SWAP1 SUB SWAP2 SWAP1 POP SSTORE POP JUMP JUMPDEST PUSH1 0x4 PUSH0 SWAP1 SLOAD SWAP1 PUSH2 0x100 EXP SWAP1 DIV PUSH20 0xFFFFFFFFFFFFFFFFFFFFFFFFFFFFFFFFFFFFFFFF AND DUP2 JUMP JUMPDEST CALLER PUSH1 0x5 PUSH0 PUSH2 0x100 EXP DUP2 SLOAD DUP2 PUSH20 0xFFFFFFFFFFFFFFFFFFFFFFFFFFFFFFFFFFFFFFFF MUL NOT AND SWAP1 DUP4 PUSH20 0xFFFFFFFFFFFFFFFFFFFFFFFFFFFFFFFFFFFFFFFF AND MUL OR SWAP1 SSTORE POP JUMP JUMPDEST DUP1 PUSH1 0x4 PUSH0 PUSH2 0x100 EXP DUP2 SLOAD DUP2 PUSH20 0xFFFFFFFFFFFFFFFFFFFFFFFFFFFFFFFFFFFFFFFF MUL NOT AND SWAP1 DUP4 PUSH20 0xFFFFFFFFFFFFFFFFFFFFFFFFFFFFFFFFFFFFFFFF AND MUL OR SWAP1 SSTORE POP POP JUMP JUMPDEST PUSH1 0x1 PUSH0 DUP2 SLOAD DUP1 SWAP3 SWAP2 SWAP1 PUSH2 0x646 SWAP1 PUSH2 0xF29 JUMP JUMPDEST SWAP2 SWAP1 POP SSTORE POP JUMP JUMPDEST PUSH1 0x2 PUSH0 SWAP1 SLOAD SWAP1 PUSH2 0x100 EXP SWAP1 DIV PUSH1 0xFF AND DUP2 JUMP JUMPDEST DUP1 PUSH1 0x1 DUP2 SWAP1 SSTORE POP POP JUMP JUMPDEST DUP1 PUSH0 DUP1 PUSH2 0x100 EXP DUP2 SLOAD DUP2 PUSH1 0xFF MUL NOT AND SWAP1 DUP4 ISZERO ISZERO MUL OR SWAP1 SSTORE POP POP JUMP JUMPDEST PUSH0 DUP2 SWAP1 POP SWAP2 SWAP1 POP JUMP JUMPDEST PUSH2 0x696 DUP2 PUSH2 0x684 JUMP JUMPDEST DUP3 MSTORE POP POP JUMP JUMPDEST PUSH0 PUSH1 0x20 DUP3 ADD SWAP1 POP PUSH2 0x6AF PUSH0 DUP4 ADD DUP5 PUSH2 0x68D JUMP JUMPDEST SWAP3 SWAP2 POP POP JUMP JUMPDEST PUSH0 PUSH1 0x40 MLOAD SWAP1 POP SWAP1 JUMP JUMPDEST PUSH0 DUP1 REVERT JUMPDEST PUSH0 DUP1 REVERT JUMPDEST PUSH2 0x6CF DUP2 PUSH2 0x684 JUMP JUMPDEST DUP2 EQ PUSH2 0x6D9 JUMPI PUSH0 DUP1 REVERT JUMPDEST POP JUMP JUMPDEST PUSH0 DUP2 CALLDATALOAD SWAP1 POP PUSH2 0x6EA DUP2 PUSH2 0x6C6 JUMP JUMPDEST SWAP3 SWAP2 POP POP JUMP JUMPDEST PUSH0 DUP1 PUSH1 0x40 DUP4 DUP6 SUB SLT ISZERO PUSH2 0x706 JUMPI PUSH2 0x705 PUSH2 0x6BE JUMP JUMPDEST JUMPDEST PUSH0 PUSH2 0x713 DUP6 DUP3 DUP7 ADD PUSH2 0x6DC JUMP JUMPDEST SWAP3 POP POP PUSH1 0x20 PUSH2 0x724 DUP6 DUP3 DUP7 ADD PUSH2 0x6DC JUMP JUMPDEST SWAP2 POP POP SWAP3 POP SWAP3 SWAP1 POP JUMP JUMPDEST PUSH0 PUSH20 0xFFFFFFFFFFFFFFFFFFFFFFFFFFFFFFFFFFFFFFFF DUP3 AND SWAP1 POP SWAP2 SWAP1 POP JUMP JUMPDEST PUSH0 PUSH2 0x757 DUP3 PUSH2 0x72E JUMP JUMPDEST SWAP1 POP SWAP2 SWAP1 POP JUMP JUMPDEST PUSH2 0x767 DUP2 PUSH2 0x74D JUMP JUMPDEST DUP3 MSTORE POP POP JUMP JUMPDEST PUSH0 PUSH1 0x20 DUP3 ADD SWAP1 POP PUSH2 0x780 PUSH0 DUP4 ADD DUP5 PUSH2 0x75E JUMP JUMPDEST SWAP3 SWAP2 POP POP JUMP JUMPDEST PUSH0 DUP2 MLOAD SWAP1 POP SWAP2 SWAP1 POP JUMP JUMPDEST PUSH0 DUP3 DUP3 MSTORE PUSH1 0x20 DUP3 ADD SWAP1 POP SWAP3 SWAP2 POP POP JUMP JUMPDEST DUP3 DUP2 DUP4 MCOPY PUSH0 DUP4 DUP4 ADD MSTORE POP POP POP JUMP JUMPDEST PUSH0 PUSH1 0x1F NOT PUSH1 0x1F DUP4 ADD AND SWAP1 POP SWAP2 SWAP1 POP JUMP JUMPDEST PUSH0 PUSH2 0x7C8 DUP3 PUSH2 0x786 JUMP JUMPDEST PUSH2 0x7D2 DUP2 DUP6 PUSH2 0x790 JUMP JUMPDEST SWAP4 POP PUSH2 0x7E2 DUP2 DUP6 PUSH1 0x20 DUP7 ADD PUSH2 0x7A0 JUMP JUMPDEST PUSH2 0x7EB DUP2 PUSH2 0x7AE JUMP JUMPDEST DUP5 ADD SWAP2 POP POP SWAP3 SWAP2 POP POP JUMP JUMPDEST PUSH0 PUSH1 0x20 DUP3 ADD SWAP1 POP DUP2 DUP2 SUB PUSH0 DUP4 ADD MSTORE PUSH2 0x80E DUP2 DUP5 PUSH2 0x7BE JUMP JUMPDEST SWAP1 POP SWAP3 SWAP2 POP POP JUMP JUMPDEST PUSH0 DUP1 REVERT JUMPDEST PUSH0 DUP1 REVERT JUMPDEST PUSH32 0x4E487B7100000000000000000000000000000000000000000000000000000000 PUSH0 MSTORE PUSH1 0x41 PUSH1 0x4 MSTORE PUSH1 0x24 PUSH0 REVERT JUMPDEST PUSH2 0x854 DUP3 PUSH2 0x7AE JUMP JUMPDEST DUP2 ADD DUP2 DUP2 LT PUSH8 0xFFFFFFFFFFFFFFFF DUP3 GT OR ISZERO PUSH2 0x873 JUMPI PUSH2 0x872 PUSH2 0x81E JUMP JUMPDEST JUMPDEST DUP1 PUSH1 0x40 MSTORE POP POP POP JUMP JUMPDEST PUSH0 PUSH2 0x885 PUSH2 0x6B5 JUMP JUMPDEST SWAP1 POP PUSH2 0x891 DUP3 DUP3 PUSH2 0x84B JUMP JUMPDEST SWAP2 SWAP1 POP JUMP JUMPDEST PUSH0 PUSH8 0xFFFFFFFFFFFFFFFF DUP3 GT ISZERO PUSH2 0x8B0 JUMPI PUSH2 0x8AF PUSH2 0x81E JUMP JUMPDEST JUMPDEST PUSH2 0x8B9 DUP3 PUSH2 0x7AE JUMP JUMPDEST SWAP1 POP PUSH1 0x20 DUP2 ADD SWAP1 POP SWAP2 SWAP1 POP JUMP JUMPDEST DUP3 DUP2 DUP4 CALLDATACOPY PUSH0 DUP4 DUP4 ADD MSTORE POP POP POP JUMP JUMPDEST PUSH0 PUSH2 0x8E6 PUSH2 0x8E1 DUP5 PUSH2 0x896 JUMP JUMPDEST PUSH2 0x87C JUMP JUMPDEST SWAP1 POP DUP3 DUP2 MSTORE PUSH1 0x20 DUP2 ADD DUP5 DUP5 DUP5 ADD GT ISZERO PUSH2 0x902 JUMPI PUSH2 0x901 PUSH2 0x81A JUMP JUMPDEST JUMPDEST PUSH2 0x90D DUP5 DUP3 DUP6 PUSH2 0x8C6 JUMP JUMPDEST POP SWAP4 SWAP3 POP POP POP JUMP JUMPDEST PUSH0 DUP3 PUSH1 0x1F DUP4 ADD SLT PUSH2 0x929 JUMPI PUSH2 0x928 PUSH2 0x816 JUMP JUMPDEST JUMPDEST DUP2 CALLDATALOAD PUSH2 0x939 DUP5 DUP3 PUSH1 0x20 DUP7 ADD PUSH2 0x8D4 JUMP JUMPDEST SWAP2 POP POP SWAP3 SWAP2 POP POP JUMP JUMPDEST PUSH0 PUSH1 0x20 DUP3 DUP5 SUB SLT ISZERO PUSH2 0x957 JUMPI PUSH2 0x956 PUSH2 0x6BE JUMP JUMPDEST JUMPDEST PUSH0 DUP3 ADD CALLDATALOAD PUSH8 0xFFFFFFFFFFFFFFFF DUP2 GT ISZERO PUSH2 0x974 JUMPI PUSH2 0x973 PUSH2 0x6C2 JUMP JUMPDEST JUMPDEST PUSH2 0x980 DUP5 DUP3 DUP6 ADD PUSH2 0x915 JUMP JUMPDEST SWAP2 POP POP SWAP3 SWAP2 POP POP JUMP JUMPDEST PUSH0 DUP2 ISZERO ISZERO SWAP1 POP SWAP2 SWAP1 POP JUMP JUMPDEST PUSH2 0x99D DUP2 PUSH2 0x989 JUMP JUMPDEST DUP3 MSTORE POP POP JUMP JUMPDEST PUSH0 PUSH1 0x20 DUP3 ADD SWAP1 POP PUSH2 0x9B6 PUSH0 DUP4 ADD DUP5 PUSH2 0x994 JUMP JUMPDEST SWAP3 SWAP2 POP POP JUMP JUMPDEST PUSH0 PUSH1 0xFF DUP3 AND SWAP1 POP SWAP2 SWAP1 POP JUMP JUMPDEST PUSH2 0x9D1 DUP2 PUSH2 0x9BC JUMP JUMPDEST DUP3 MSTORE POP POP JUMP JUMPDEST PUSH0 PUSH1 0x20 DUP3 ADD SWAP1 POP PUSH2 0x9EA PUSH0 DUP4 ADD DUP5 PUSH2 0x9C8 JUMP JUMPDEST SWAP3 SWAP2 POP POP JUMP JUMPDEST PUSH2 0x9F9 DUP2 PUSH2 0x9BC JUMP JUMPDEST DUP2 EQ PUSH2 0xA03 JUMPI PUSH0 DUP1 REVERT JUMPDEST POP JUMP JUMPDEST PUSH0 DUP2 CALLDATALOAD SWAP1 POP PUSH2 0xA14 DUP2 PUSH2 0x9F0 JUMP JUMPDEST SWAP3 SWAP2 POP POP JUMP JUMPDEST PUSH0 PUSH1 0x20 DUP3 DUP5 SUB SLT ISZERO PUSH2 0xA2F JUMPI PUSH2 0xA2E PUSH2 0x6BE JUMP JUMPDEST JUMPDEST PUSH0 PUSH2 0xA3C DUP5 DUP3 DUP6 ADD PUSH2 0xA06 JUMP JUMPDEST SWAP2 POP POP SWAP3 SWAP2 POP POP JUMP JUMPDEST PUSH2 0xA4E DUP2 PUSH2 0x74D JUMP JUMPDEST DUP2 EQ PUSH2 0xA58 JUMPI PUSH0 DUP1 REVERT JUMPDEST POP JUMP JUMPDEST PUSH0 DUP2 CALLDATALOAD SWAP1 POP PUSH2 0xA69 DUP2 PUSH2 0xA45 JUMP JUMPDEST SWAP3 SWAP2 POP POP JUMP JUMPDEST PUSH0 PUSH1 0x20 DUP3 DUP5 SUB SLT ISZERO PUSH2 0xA84 JUMPI PUSH2 0xA83 PUSH2 0x6BE JUMP JUMPDEST JUMPDEST PUSH0 PUSH2 0xA91 DUP5 DUP3 DUP6 ADD PUSH2 0xA5B JUMP JUMPDEST SWAP2 POP POP SWAP3 SWAP2 POP POP JUMP JUMPDEST PUSH0 PUSH1 0x20 DUP3 DUP5 SUB SLT ISZERO PUSH2 0xAAF JUMPI PUSH2 0xAAE PUSH2 0x6BE JUMP JUMPDEST JUMPDEST PUSH0 PUSH2 0xABC DUP5 DUP3 DUP6 ADD PUSH2 0x6DC JUMP JUMPDEST SWAP2 POP POP SWAP3 SWAP2 POP POP JUMP JUMPDEST PUSH2 0xACE DUP2 PUSH2 0x989 JUMP JUMPDEST DUP2 EQ PUSH2 0xAD8 JUMPI PUSH0 DUP1 REVERT JUMPDEST POP JUMP JUMPDEST PUSH0 DUP2 CALLDATALOAD SWAP1 POP PUSH2 0xAE9 DUP2 PUSH2 0xAC5 JUMP JUMPDEST SWAP3 SWAP2 POP POP JUMP JUMPDEST PUSH0 PUSH1 0x20 DUP3 DUP5 SUB SLT ISZERO PUSH2 0xB04 JUMPI PUSH2 0xB03 PUSH2 0x6BE JUMP JUMPDEST JUMPDEST PUSH0 PUSH2 0xB11 DUP5 DUP3 DUP6 ADD PUSH2 0xADB JUMP JUMPDEST SWAP2 POP POP SWAP3 SWAP2 POP POP JUMP JUMPDEST PUSH32 0x4E487B7100000000000000000000000000000000000000000000000000000000 PUSH0 MSTORE PUSH1 0x11 PUSH1 0x4 MSTORE PUSH1 0x24 PUSH0 REVERT JUMPDEST PUSH0 PUSH2 0xB51 DUP3 PUSH2 0x684 JUMP JUMPDEST SWAP2 POP PUSH2 0xB5C DUP4 PUSH2 0x684 JUMP JUMPDEST SWAP3 POP DUP3 DUP3 ADD SWAP1 POP DUP1 DUP3 GT ISZERO PUSH2 0xB74 JUMPI PUSH2 0xB73 PUSH2 0xB1A JUMP JUMPDEST JUMPDEST SWAP3 SWAP2 POP POP JUMP JUMPDEST PUSH32 0x4E487B7100000000000000000000000000000000000000000000000000000000 PUSH0 MSTORE PUSH1 0x22 PUSH1 0x4 MSTORE PUSH1 0x24 PUSH0 REVERT JUMPDEST PUSH0 PUSH1 0x2 DUP3 DIV SWAP1 POP PUSH1 0x1 DUP3 AND DUP1 PUSH2 0xBBE JUMPI PUSH1 0x7F DUP3 AND SWAP2 POP JUMPDEST PUSH1 0x20 DUP3 LT DUP2 SUB PUSH2 0xBD1 JUMPI PUSH2 0xBD0 PUSH2 0xB7A JUMP JUMPDEST JUMPDEST POP SWAP2 SWAP1 POP JUMP JUMPDEST PUSH0 DUP2 SWAP1 POP SWAP3 SWAP2 POP POP JUMP JUMPDEST PUSH0 PUSH2 0xBEB DUP3 PUSH2 0x786 JUMP JUMPDEST PUSH2 0xBF5 DUP2 DUP6 PUSH2 0xBD7 JUMP JUMPDEST SWAP4 POP PUSH2 0xC05 DUP2 DUP6 PUSH1 0x20 DUP7 ADD PUSH2 0x7A0 JUMP JUMPDEST DUP1 DUP5 ADD SWAP2 POP POP SWAP3 SWAP2 POP POP JUMP JUMPDEST PUSH0 PUSH2 0xC1C DUP3 DUP5 PUSH2 0xBE1 JUMP JUMPDEST SWAP2 POP DUP2 SWAP1 POP SWAP3 SWAP2 POP POP JUMP JUMPDEST PUSH0 DUP2 SWAP1 POP DUP2 PUSH0 MSTORE PUSH1 0x20 PUSH0 KECCAK256 SWAP1 POP SWAP2 SWAP1 POP JUMP JUMPDEST PUSH0 DUP2 SLOAD PUSH2 0xC45 DUP2 PUSH2 0xBA7 JUMP JUMPDEST PUSH2 0xC4F DUP2 DUP7 PUSH2 0xBD7 JUMP JUMPDEST SWAP5 POP PUSH1 0x1 DUP3 AND PUSH0 DUP2 EQ PUSH2 0xC69 JUMPI PUSH1 0x1 DUP2 EQ PUSH2 0xC7E JUMPI PUSH2 0xCB0 JUMP JUMPDEST PUSH1 0xFF NOT DUP4 AND DUP7 MSTORE DUP2 ISZERO ISZERO DUP3 MUL DUP7 ADD SWAP4 POP PUSH2 0xCB0 JUMP JUMPDEST PUSH2 0xC87 DUP6 PUSH2 0xC27 JUMP JUMPDEST PUSH0 JUMPDEST DUP4 DUP2 LT ISZERO PUSH2 0xCA8 JUMPI DUP2 SLOAD DUP2 DUP10 ADD MSTORE PUSH1 0x1 DUP3 ADD SWAP2 POP PUSH1 0x20 DUP2 ADD SWAP1 POP PUSH2 0xC89 JUMP JUMPDEST DUP4 DUP9 ADD SWAP6 POP POP POP JUMPDEST POP POP POP SWAP3 SWAP2 POP POP JUMP JUMPDEST PUSH0 PUSH2 0xCC4 DUP3 DUP5 PUSH2 0xC39 JUMP JUMPDEST SWAP2 POP DUP2 SWAP1 POP SWAP3 SWAP2 POP POP JUMP JUMPDEST PUSH0 PUSH1 0x20 PUSH1 0x1F DUP4 ADD DIV SWAP1 POP SWAP2 SWAP1 POP JUMP JUMPDEST PUSH0 DUP3 DUP3 SHL SWAP1 POP SWAP3 SWAP2 POP POP JUMP JUMPDEST PUSH0 PUSH1 0x8 DUP4 MUL PUSH2 0xD19 PUSH32 0xFFFFFFFFFFFFFFFFFFFFFFFFFFFFFFFFFFFFFFFFFFFFFFFFFFFFFFFFFFFFFFFF DUP3 PUSH2 0xCDE JUMP JUMPDEST PUSH2 0xD23 DUP7 DUP4 PUSH2 0xCDE JUMP JUMPDEST SWAP6 POP DUP1 NOT DUP5 AND SWAP4 POP DUP1 DUP7 AND DUP5 OR SWAP3 POP POP POP SWAP4 SWAP3 POP POP POP JUMP JUMPDEST PUSH0 DUP2 SWAP1 POP SWAP2 SWAP1 POP JUMP JUMPDEST PUSH0 PUSH2 0xD5E PUSH2 0xD59 PUSH2 0xD54 DUP5 PUSH2 0x684 JUMP JUMPDEST PUSH2 0xD3B JUMP JUMPDEST PUSH2 0x684 JUMP JUMPDEST SWAP1 POP SWAP2 SWAP1 POP JUMP JUMPDEST PUSH0 DUP2 SWAP1 POP SWAP2 SWAP1 POP JUMP JUMPDEST PUSH2 0xD77 DUP4 PUSH2 0xD44 JUMP JUMPDEST PUSH2 0xD8B PUSH2 0xD83 DUP3 PUSH2 0xD65 JUMP JUMPDEST DUP5 DUP5 SLOAD PUSH2 0xCEA JUMP JUMPDEST DUP3 SSTORE POP POP POP POP JUMP JUMPDEST PUSH0 SWAP1 JUMP JUMPDEST PUSH2 0xD9F PUSH2 0xD93 JUMP JUMPDEST PUSH2 0xDAA DUP2 DUP5 DUP5 PUSH2 0xD6E JUMP JUMPDEST POP POP POP JUMP JUMPDEST JUMPDEST DUP2 DUP2 LT ISZERO PUSH2 0xDCD JUMPI PUSH2 0xDC2 PUSH0 DUP3 PUSH2 0xD97 JUMP JUMPDEST PUSH1 0x1 DUP2 ADD SWAP1 POP PUSH2 0xDB0 JUMP JUMPDEST POP POP JUMP JUMPDEST PUSH1 0x1F DUP3 GT ISZERO PUSH2 0xE12 JUMPI PUSH2 0xDE3 DUP2 PUSH2 0xC27 JUMP JUMPDEST PUSH2 0xDEC DUP5 PUSH2 0xCCF JUMP JUMPDEST DUP2 ADD PUSH1 0x20 DUP6 LT ISZERO PUSH2 0xDFB JUMPI DUP2 SWAP1 POP JUMPDEST PUSH2 0xE0F PUSH2 0xE07 DUP6 PUSH2 0xCCF JUMP JUMPDEST DUP4 ADD DUP3 PUSH2 0xDAF JUMP JUMPDEST POP POP JUMPDEST POP POP POP JUMP JUMPDEST PUSH0 DUP3 DUP3 SHR SWAP1 POP SWAP3 SWAP2 POP POP JUMP JUMPDEST PUSH0 PUSH2 0xE32 PUSH0 NOT DUP5 PUSH1 0x8 MUL PUSH2 0xE17 JUMP JUMPDEST NOT DUP1 DUP4 AND SWAP2 POP POP SWAP3 SWAP2 POP POP JUMP JUMPDEST PUSH0 PUSH2 0xE4A DUP4 DUP4 PUSH2 0xE23 JUMP JUMPDEST SWAP2 POP DUP3 PUSH1 0x2 MUL DUP3 OR SWAP1 POP SWAP3 SWAP2 POP POP JUMP JUMPDEST PUSH2 0xE63 DUP3 PUSH2 0x786 JUMP JUMPDEST PUSH8 0xFFFFFFFFFFFFFFFF DUP2 GT ISZERO PUSH2 0xE7C JUMPI PUSH2 0xE7B PUSH2 0x81E JUMP JUMPDEST JUMPDEST PUSH2 0xE86 DUP3 SLOAD PUSH2 0xBA7 JUMP JUMPDEST PUSH2 0xE91 DUP3 DUP3 DUP6 PUSH2 0xDD1 JUMP JUMPDEST PUSH0 PUSH1 0x20 SWAP1 POP PUSH1 0x1F DUP4 GT PUSH1 0x1 DUP2 EQ PUSH2 0xEC2 JUMPI PUSH0 DUP5 ISZERO PUSH2 0xEB0 JUMPI DUP3 DUP8 ADD MLOAD SWAP1 POP JUMPDEST PUSH2 0xEBA DUP6 DUP3 PUSH2 0xE3F JUMP JUMPDEST DUP7 SSTORE POP PUSH2 0xF21 JUMP JUMPDEST PUSH1 0x1F NOT DUP5 AND PUSH2 0xED0 DUP7 PUSH2 0xC27 JUMP JUMPDEST PUSH0 JUMPDEST DUP3 DUP2 LT ISZERO PUSH2 0xEF7 JUMPI DUP5 DUP10 ADD MLOAD DUP3 SSTORE PUSH1 0x1 DUP3 ADD SWAP2 POP PUSH1 0x20 DUP6 ADD SWAP5 POP PUSH1 0x20 DUP2 ADD SWAP1 POP PUSH2 0xED2 JUMP JUMPDEST DUP7 DUP4 LT ISZERO PUSH2 0xF14 JUMPI DUP5 DUP10 ADD MLOAD PUSH2 0xF10 PUSH1 0x1F DUP10 AND DUP3 PUSH2 0xE23 JUMP JUMPDEST DUP4 SSTORE POP JUMPDEST PUSH1 0x1 PUSH1 0x2 DUP9 MUL ADD DUP9 SSTORE POP POP POP JUMPDEST POP POP POP POP POP POP JUMP JUMPDEST PUSH0 PUSH2 0xF33 DUP3 PUSH2 0x684 JUMP JUMPDEST SWAP2 POP PUSH0 DUP3 SUB PUSH2 0xF45 JUMPI PUSH2 0xF44 PUSH2 0xB1A JUMP JUMPDEST JUMPDEST PUSH1 0x1 DUP3 SUB SWAP1 POP SWAP2 SWAP1 POP JUMP INVALID LOG2 PUSH5 0x6970667358 0x22 SLT KECCAK256 DUP16 DUP14 PUSH10 0x558A7CF22EF426C0DA5B PUSH23 0x11E9DCAC9E1288ADDBE4B1563FD31B3A456564736F6C63 NUMBER STOP ADDMOD BYTE STOP CALLER "
				},
				"gasEstimates": {
					"creation": {
						"codeDepositCost": "794800",
						"executionCost": "infinite",
						"totalCost": "infinite"
					},
					"external": {
						"compareTwoStrings(string)": "infinite",
						"decrementUint()": "24540",
						"decrementUintUnchecked()": "24449",
						"getAddition(uint256,uint256)": "infinite",
						"getAddressBalance()": "5184",
						"getMyStorageVariable()": "2547",
						"muUint8()": "2532",
						"myBool()": "2530",
						"myEthAddress()": "2597",
						"myStorageVariable()": "2606",
						"myString()": "infinite",
						"myUint()": "2449",
						"setMyAddress(address)": "24737",
						"setMyBool(bool)": "24783",
						"setMyStorageVariable(uint8)": "24945",
						"setMyString(string)": "infinite",
						"setMyUint(uint256)": "22603",
						"someAddress()": "2576",
						"testerAddress()": "2553",
						"updateSomeAddress()": "24519"
					}
				},
				"methodIdentifiers": {
					"compareTwoStrings(string)": "5ce25353",
					"decrementUint()": "da50eaee",
					"decrementUintUnchecked()": "8b1f61c8",
					"getAddition(uint256,uint256)": "08b9e850",
					"getAddressBalance()": "75eb2ad1",
					"getMyStorageVariable()": "5f6a36da",
					"muUint8()": "dc928e4b",
					"myBool()": "6deecdbe",
					"myEthAddress()": "91aba7a1",
					"myStorageVariable()": "6e5ca88d",
					"myString()": "492bfa18",
					"myUint()": "06540f7e",
					"setMyAddress(address)": "a8a7b895",
					"setMyBool(bool)": "eb1b30d9",
					"setMyStorageVariable(uint8)": "777d850f",
					"setMyString(string)": "82180568",
					"setMyUint(uint256)": "e492fd84",
					"someAddress()": "18e5f16b",
					"testerAddress()": "64e813a2",
					"updateSomeAddress()": "9b57e711"
				}
			},
			"storageLayout": {
				"storage": [
					{
						"astId": 3,
						"contract": "contracts/MyLearningEnv.sol:ExampleVariables",
						"label": "myBool",
						"offset": 0,
						"slot": "0",
						"type": "t_bool"
					},
					{
						"astId": 5,
						"contract": "contracts/MyLearningEnv.sol:ExampleVariables",
						"label": "myUint",
						"offset": 0,
						"slot": "1",
						"type": "t_uint256"
					},
					{
						"astId": 7,
						"contract": "contracts/MyLearningEnv.sol:ExampleVariables",
						"label": "muUint8",
						"offset": 0,
						"slot": "2",
						"type": "t_uint8"
					},
					{
						"astId": 45,
						"contract": "contracts/MyLearningEnv.sol:ExampleVariables",
						"label": "myString",
						"offset": 0,
						"slot": "3",
						"type": "t_string_storage"
					},
					{
						"astId": 79,
						"contract": "contracts/MyLearningEnv.sol:ExampleVariables",
						"label": "myEthAddress",
						"offset": 0,
						"slot": "4",
						"type": "t_address"
					},
					{
						"astId": 81,
						"contract": "contracts/MyLearningEnv.sol:ExampleVariables",
						"label": "someAddress",
						"offset": 0,
						"slot": "5",
						"type": "t_address"
					},
					{
						"astId": 111,
						"contract": "contracts/MyLearningEnv.sol:ExampleVariables",
						"label": "myStorageVariable",
						"offset": 20,
						"slot": "5",
						"type": "t_uint8"
					},
					{
						"astId": 149,
						"contract": "contracts/MyLearningEnv.sol:ExampleVariables",
						"label": "testerAddress",
						"offset": 0,
						"slot": "6",
						"type": "t_address"
					}
				],
				"types": {
					"t_address": {
						"encoding": "inplace",
						"label": "address",
						"numberOfBytes": "20"
					},
					"t_bool": {
						"encoding": "inplace",
						"label": "bool",
						"numberOfBytes": "1"
					},
					"t_string_storage": {
						"encoding": "bytes",
						"label": "string",
						"numberOfBytes": "32"
					},
					"t_uint256": {
						"encoding": "inplace",
						"label": "uint256",
						"numberOfBytes": "32"
					},
					"t_uint8": {
						"encoding": "inplace",
						"label": "uint8",
						"numberOfBytes": "1"
					}
				}
			},
			"userdoc": {
				"kind": "user",
				"methods": {},
				"version": 1
			}
		}
	}
}