{
	"data": {
		"bytecode": {
			"linkReferences": {},
			"object": "608060405234801561000f575f80fd5b506040516115d43803806115d4833981810160405281019061003191906101f2565b3360025f6101000a81548173ffffffffffffffffffffffffffffffffffffffff021916908373ffffffffffffffffffffffffffffffffffffffff16021790555066038d7ea4c68000600381905550815f908161008d9190610475565b50806001908161009d9190610475565b505050610544565b5f604051905090565b5f80fd5b5f80fd5b5f80fd5b5f80fd5b5f601f19601f8301169050919050565b7f4e487b71000000000000000000000000000000000000000000000000000000005f52604160045260245ffd5b610104826100be565b810181811067ffffffffffffffff82111715610123576101226100ce565b5b80604052505050565b5f6101356100a5565b905061014182826100fb565b919050565b5f67ffffffffffffffff8211156101605761015f6100ce565b5b610169826100be565b9050602081019050919050565b8281835e5f83830152505050565b5f61019661019184610146565b61012c565b9050828152602081018484840111156101b2576101b16100ba565b5b6101bd848285610176565b509392505050565b5f82601f8301126101d9576101d86100b6565b5b81516101e9848260208601610184565b91505092915050565b5f8060408385031215610208576102076100ae565b5b5f83015167ffffffffffffffff811115610225576102246100b2565b5b610231858286016101c5565b925050602083015167ffffffffffffffff811115610252576102516100b2565b5b61025e858286016101c5565b9150509250929050565b5f81519050919050565b7f4e487b71000000000000000000000000000000000000000000000000000000005f52602260045260245ffd5b5f60028204905060018216806102b657607f821691505b6020821081036102c9576102c8610272565b5b50919050565b5f819050815f5260205f209050919050565b5f6020601f8301049050919050565b5f82821b905092915050565b5f6008830261032b7fffffffffffffffffffffffffffffffffffffffffffffffffffffffffffffffff826102f0565b61033586836102f0565b95508019841693508086168417925050509392505050565b5f819050919050565b5f819050919050565b5f61037961037461036f8461034d565b610356565b61034d565b9050919050565b5f819050919050565b6103928361035f565b6103a661039e82610380565b8484546102fc565b825550505050565b5f90565b6103ba6103ae565b6103c5818484610389565b505050565b5b818110156103e8576103dd5f826103b2565b6001810190506103cb565b5050565b601f82111561042d576103fe816102cf565b610407846102e1565b81016020851015610416578190505b61042a610422856102e1565b8301826103ca565b50505b505050565b5f82821c905092915050565b5f61044d5f1984600802610432565b1980831691505092915050565b5f610465838361043e565b9150826002028217905092915050565b61047e82610268565b67ffffffffffffffff811115610497576104966100ce565b5b6104a1825461029f565b6104ac8282856103ec565b5f60209050601f8311600181146104dd575f84156104cb578287015190505b6104d5858261045a565b86555061053c565b601f1984166104eb866102cf565b5f5b82811015610512578489015182556001820191506020850194506020810190506104ed565b8683101561052f578489015161052b601f89168261043e565b8355505b6001600288020188555050505b505050505050565b611083806105515f395ff3fe608060405260043610610054575f3560e01c80631b5adcb01461005857806332c715b3146100825780633f2a2930146100aa5780636d63d69d146100c85780636ea538a3146100de578063e7631de414610106575b5f80fd5b348015610063575f80fd5b5061006c610130565b60405161007991906107a6565b60405180910390f35b34801561008d575f80fd5b506100a860048036038101906100a39190610903565b6101bf565b005b6100b26102a3565b6040516100bf91906107a6565b60405180910390f35b3480156100d3575f80fd5b506100dc61048e565b005b3480156100e9575f80fd5b5061010460048036038101906100ff9190610903565b610584565b005b348015610111575f80fd5b5061011a610636565b6040516101279190610a7c565b60405180910390f35b60605f805461013e90610ac9565b80601f016020809104026020016040519081016040528092919081815260200182805461016a90610ac9565b80156101b55780601f1061018c576101008083540402835291602001916101b5565b820191905f5260205f20905b81548152906001019060200180831161019857829003601f168201915b5050505050905090565b60025f9054906101000a900473ffffffffffffffffffffffffffffffffffffffff1673ffffffffffffffffffffffffffffffffffffffff163373ffffffffffffffffffffffffffffffffffffffff161461024e576040517f08c379a000000000000000000000000000000000000000000000000000000000815260040161024590610b69565b60405180910390fd5b60045f908060018154018082558091505060019003905f5260205f20015f90919091909150908161027f9190610d54565b50815f908161028e9190610e39565b50806001908161029e9190610e39565b505050565b6060600354341015610313573373ffffffffffffffffffffffffffffffffffffffff166108fc3490811502906040515f60405180830381858888f193505050501580156102f2573d5f803e3d5ffd5b5060405180606001604052806033815260200161101b60339139905061048b565b60035434111561036f573373ffffffffffffffffffffffffffffffffffffffff166108fc600354346103459190610f35565b90811502906040515f60405180830381858888f1935050505015801561036d573d5f803e3d5ffd5b505b6104885f805461037e90610ac9565b80601f01602080910402602001604051908101604052809291908181526020018280546103aa90610ac9565b80156103f55780601f106103cc576101008083540402835291602001916103f5565b820191905f5260205f20905b8154815290600101906020018083116103d857829003601f168201915b50505050506001805461040790610ac9565b80601f016020809104026020016040519081016040528092919081815260200182805461043390610ac9565b801561047e5780601f106104555761010080835404028352916020019161047e565b820191905f5260205f20905b81548152906001019060200180831161046157829003601f168201915b505050505061070a565b90505b90565b60025f9054906101000a900473ffffffffffffffffffffffffffffffffffffffff1673ffffffffffffffffffffffffffffffffffffffff163373ffffffffffffffffffffffffffffffffffffffff161461051d576040517f08c379a000000000000000000000000000000000000000000000000000000000815260040161051490610b69565b60405180910390fd5b60025f9054906101000a900473ffffffffffffffffffffffffffffffffffffffff1673ffffffffffffffffffffffffffffffffffffffff166108fc4790811502906040515f60405180830381858888f19350505050158015610581573d5f803e3d5ffd5b50565b60025f9054906101000a900473ffffffffffffffffffffffffffffffffffffffff1673ffffffffffffffffffffffffffffffffffffffff163373ffffffffffffffffffffffffffffffffffffffff1614610613576040517f08c379a000000000000000000000000000000000000000000000000000000000815260040161060a90610b69565b60405180910390fd5b815f90816106219190610e39565b5080600190816106319190610e39565b505050565b60606004805480602002602001604051908101604052809291908181526020015f905b82821015610701578382905f5260205f2001805461067690610ac9565b80601f01602080910402602001604051908101604052809291908181526020018280546106a290610ac9565b80156106ed5780601f106106c4576101008083540402835291602001916106ed565b820191905f5260205f20905b8154815290600101906020018083116106d057829003601f168201915b505050505081526020019060010190610659565b50505050905090565b6060828260405160200161071f929190610fec565b604051602081830303815290604052905092915050565b5f81519050919050565b5f82825260208201905092915050565b8281835e5f83830152505050565b5f601f19601f8301169050919050565b5f61077882610736565b6107828185610740565b9350610792818560208601610750565b61079b8161075e565b840191505092915050565b5f6020820190508181035f8301526107be818461076e565b905092915050565b5f604051905090565b5f80fd5b5f80fd5b5f80fd5b5f80fd5b7f4e487b71000000000000000000000000000000000000000000000000000000005f52604160045260245ffd5b6108158261075e565b810181811067ffffffffffffffff82111715610834576108336107df565b5b80604052505050565b5f6108466107c6565b9050610852828261080c565b919050565b5f67ffffffffffffffff821115610871576108706107df565b5b61087a8261075e565b9050602081019050919050565b828183375f83830152505050565b5f6108a76108a284610857565b61083d565b9050828152602081018484840111156108c3576108c26107db565b5b6108ce848285610887565b509392505050565b5f82601f8301126108ea576108e96107d7565b5b81356108fa848260208601610895565b91505092915050565b5f8060408385031215610919576109186107cf565b5b5f83013567ffffffffffffffff811115610936576109356107d3565b5b610942858286016108d6565b925050602083013567ffffffffffffffff811115610963576109626107d3565b5b61096f858286016108d6565b9150509250929050565b5f81519050919050565b5f82825260208201905092915050565b5f819050602082019050919050565b5f82825260208201905092915050565b5f6109bc82610736565b6109c681856109a2565b93506109d6818560208601610750565b6109df8161075e565b840191505092915050565b5f6109f583836109b2565b905092915050565b5f602082019050919050565b5f610a1382610979565b610a1d8185610983565b935083602082028501610a2f85610993565b805f5b85811015610a6a5784840389528151610a4b85826109ea565b9450610a56836109fd565b925060208a01995050600181019050610a32565b50829750879550505050505092915050565b5f6020820190508181035f830152610a948184610a09565b905092915050565b7f4e487b71000000000000000000000000000000000000000000000000000000005f52602260045260245ffd5b5f6002820490506001821680610ae057607f821691505b602082108103610af357610af2610a9c565b5b50919050565b7f4f6e6c792074686520636f6e7472616374206465706c6f7965722063616e20655f8201527f646974207468652073746f636b20746970000000000000000000000000000000602082015250565b5f610b53603183610740565b9150610b5e82610af9565b604082019050919050565b5f6020820190508181035f830152610b8081610b47565b9050919050565b5f81549050610b9581610ac9565b9050919050565b5f819050815f5260205f209050919050565b5f819050815f5260205f209050919050565b5f6020601f8301049050919050565b5f82821b905092915050565b5f60088302610c0a7fffffffffffffffffffffffffffffffffffffffffffffffffffffffffffffffff82610bcf565b610c148683610bcf565b95508019841693508086168417925050509392505050565b5f819050919050565b5f819050919050565b5f610c58610c53610c4e84610c2c565b610c35565b610c2c565b9050919050565b5f819050919050565b610c7183610c3e565b610c85610c7d82610c5f565b848454610bdb565b825550505050565b5f90565b610c99610c8d565b610ca4818484610c68565b505050565b5b81811015610cc757610cbc5f82610c91565b600181019050610caa565b5050565b601f821115610d0c57610cdd81610b9c565b610ce684610bc0565b81016020851015610cf5578190505b610d09610d0185610bc0565b830182610ca9565b50505b505050565b5f82821c905092915050565b5f610d2c5f1984600802610d11565b1980831691505092915050565b5f610d448383610d1d565b9150826002028217905092915050565b818103610d62575050610e37565b610d6b82610b87565b67ffffffffffffffff811115610d8457610d836107df565b5b610d8e8254610ac9565b610d99828285610ccb565b5f601f831160018114610dc6575f8415610db4578287015490505b610dbe8582610d39565b865550610e30565b601f198416610dd487610bae565b9650610ddf86610b9c565b5f5b82811015610e0657848901548255600182019150600185019450602081019050610de1565b86831015610e235784890154610e1f601f891682610d1d565b8355505b6001600288020188555050505b5050505050505b565b610e4282610736565b67ffffffffffffffff811115610e5b57610e5a6107df565b5b610e658254610ac9565b610e70828285610ccb565b5f60209050601f831160018114610ea1575f8415610e8f578287015190505b610e998582610d39565b865550610f00565b601f198416610eaf86610b9c565b5f5b82811015610ed657848901518255600182019150602085019450602081019050610eb1565b86831015610ef35784890151610eef601f891682610d1d565b8355505b6001600288020188555050505b505050505050565b7f4e487b71000000000000000000000000000000000000000000000000000000005f52601160045260245ffd5b5f610f3f82610c2c565b9150610f4a83610c2c565b9250828203905081811115610f6257610f61610f08565b5b92915050565b5f81905092915050565b5f610f7c82610736565b610f868185610f68565b9350610f96818560208601610750565b80840191505092915050565b7f202d2000000000000000000000000000000000000000000000000000000000005f82015250565b5f610fd6600383610f68565b9150610fe182610fa2565b600382019050919050565b5f610ff78285610f72565b915061100282610fca565b915061100e8284610f72565b9150819050939250505056fe56616c756520726566756e64656421204e6f7420656e6f7567682045544820746f20756e6c6f636b2073746f636b207469702ea2646970667358221220f8039723fdeaee0469448a706b4d07bf5673eab4621fd80977038528a307e63a64736f6c634300081a0033",
			"opcodes": "PUSH1 0x80 PUSH1 0x40 MSTORE CALLVALUE DUP1 ISZERO PUSH2 0xF JUMPI PUSH0 DUP1 REVERT JUMPDEST POP PUSH1 0x40 MLOAD PUSH2 0x15D4 CODESIZE SUB DUP1 PUSH2 0x15D4 DUP4 CODECOPY DUP2 DUP2 ADD PUSH1 0x40 MSTORE DUP2 ADD SWAP1 PUSH2 0x31 SWAP2 SWAP1 PUSH2 0x1F2 JUMP JUMPDEST CALLER PUSH1 0x2 PUSH0 PUSH2 0x100 EXP DUP2 SLOAD DUP2 PUSH20 0xFFFFFFFFFFFFFFFFFFFFFFFFFFFFFFFFFFFFFFFF MUL NOT AND SWAP1 DUP4 PUSH20 0xFFFFFFFFFFFFFFFFFFFFFFFFFFFFFFFFFFFFFFFF AND MUL OR SWAP1 SSTORE POP PUSH7 0x38D7EA4C68000 PUSH1 0x3 DUP2 SWAP1 SSTORE POP DUP2 PUSH0 SWAP1 DUP2 PUSH2 0x8D SWAP2 SWAP1 PUSH2 0x475 JUMP JUMPDEST POP DUP1 PUSH1 0x1 SWAP1 DUP2 PUSH2 0x9D SWAP2 SWAP1 PUSH2 0x475 JUMP JUMPDEST POP POP POP PUSH2 0x544 JUMP JUMPDEST PUSH0 PUSH1 0x40 MLOAD SWAP1 POP SWAP1 JUMP JUMPDEST PUSH0 DUP1 REVERT JUMPDEST PUSH0 DUP1 REVERT JUMPDEST PUSH0 DUP1 REVERT JUMPDEST PUSH0 DUP1 REVERT JUMPDEST PUSH0 PUSH1 0x1F NOT PUSH1 0x1F DUP4 ADD AND SWAP1 POP SWAP2 SWAP1 POP JUMP JUMPDEST PUSH32 0x4E487B7100000000000000000000000000000000000000000000000000000000 PUSH0 MSTORE PUSH1 0x41 PUSH1 0x4 MSTORE PUSH1 0x24 PUSH0 REVERT JUMPDEST PUSH2 0x104 DUP3 PUSH2 0xBE JUMP JUMPDEST DUP2 ADD DUP2 DUP2 LT PUSH8 0xFFFFFFFFFFFFFFFF DUP3 GT OR ISZERO PUSH2 0x123 JUMPI PUSH2 0x122 PUSH2 0xCE JUMP JUMPDEST JUMPDEST DUP1 PUSH1 0x40 MSTORE POP POP POP JUMP JUMPDEST PUSH0 PUSH2 0x135 PUSH2 0xA5 JUMP JUMPDEST SWAP1 POP PUSH2 0x141 DUP3 DUP3 PUSH2 0xFB JUMP JUMPDEST SWAP2 SWAP1 POP JUMP JUMPDEST PUSH0 PUSH8 0xFFFFFFFFFFFFFFFF DUP3 GT ISZERO PUSH2 0x160 JUMPI PUSH2 0x15F PUSH2 0xCE JUMP JUMPDEST JUMPDEST PUSH2 0x169 DUP3 PUSH2 0xBE JUMP JUMPDEST SWAP1 POP PUSH1 0x20 DUP2 ADD SWAP1 POP SWAP2 SWAP1 POP JUMP JUMPDEST DUP3 DUP2 DUP4 MCOPY PUSH0 DUP4 DUP4 ADD MSTORE POP POP POP JUMP JUMPDEST PUSH0 PUSH2 0x196 PUSH2 0x191 DUP5 PUSH2 0x146 JUMP JUMPDEST PUSH2 0x12C JUMP JUMPDEST SWAP1 POP DUP3 DUP2 MSTORE PUSH1 0x20 DUP2 ADD DUP5 DUP5 DUP5 ADD GT ISZERO PUSH2 0x1B2 JUMPI PUSH2 0x1B1 PUSH2 0xBA JUMP JUMPDEST JUMPDEST PUSH2 0x1BD DUP5 DUP3 DUP6 PUSH2 0x176 JUMP JUMPDEST POP SWAP4 SWAP3 POP POP POP JUMP JUMPDEST PUSH0 DUP3 PUSH1 0x1F DUP4 ADD SLT PUSH2 0x1D9 JUMPI PUSH2 0x1D8 PUSH2 0xB6 JUMP JUMPDEST JUMPDEST DUP2 MLOAD PUSH2 0x1E9 DUP5 DUP3 PUSH1 0x20 DUP7 ADD PUSH2 0x184 JUMP JUMPDEST SWAP2 POP POP SWAP3 SWAP2 POP POP JUMP JUMPDEST PUSH0 DUP1 PUSH1 0x40 DUP4 DUP6 SUB SLT ISZERO PUSH2 0x208 JUMPI PUSH2 0x207 PUSH2 0xAE JUMP JUMPDEST JUMPDEST PUSH0 DUP4 ADD MLOAD PUSH8 0xFFFFFFFFFFFFFFFF DUP2 GT ISZERO PUSH2 0x225 JUMPI PUSH2 0x224 PUSH2 0xB2 JUMP JUMPDEST JUMPDEST PUSH2 0x231 DUP6 DUP3 DUP7 ADD PUSH2 0x1C5 JUMP JUMPDEST SWAP3 POP POP PUSH1 0x20 DUP4 ADD MLOAD PUSH8 0xFFFFFFFFFFFFFFFF DUP2 GT ISZERO PUSH2 0x252 JUMPI PUSH2 0x251 PUSH2 0xB2 JUMP JUMPDEST JUMPDEST PUSH2 0x25E DUP6 DUP3 DUP7 ADD PUSH2 0x1C5 JUMP JUMPDEST SWAP2 POP POP SWAP3 POP SWAP3 SWAP1 POP JUMP JUMPDEST PUSH0 DUP2 MLOAD SWAP1 POP SWAP2 SWAP1 POP JUMP JUMPDEST PUSH32 0x4E487B7100000000000000000000000000000000000000000000000000000000 PUSH0 MSTORE PUSH1 0x22 PUSH1 0x4 MSTORE PUSH1 0x24 PUSH0 REVERT JUMPDEST PUSH0 PUSH1 0x2 DUP3 DIV SWAP1 POP PUSH1 0x1 DUP3 AND DUP1 PUSH2 0x2B6 JUMPI PUSH1 0x7F DUP3 AND SWAP2 POP JUMPDEST PUSH1 0x20 DUP3 LT DUP2 SUB PUSH2 0x2C9 JUMPI PUSH2 0x2C8 PUSH2 0x272 JUMP JUMPDEST JUMPDEST POP SWAP2 SWAP1 POP JUMP JUMPDEST PUSH0 DUP2 SWAP1 POP DUP2 PUSH0 MSTORE PUSH1 0x20 PUSH0 KECCAK256 SWAP1 POP SWAP2 SWAP1 POP JUMP JUMPDEST PUSH0 PUSH1 0x20 PUSH1 0x1F DUP4 ADD DIV SWAP1 POP SWAP2 SWAP1 POP JUMP JUMPDEST PUSH0 DUP3 DUP3 SHL SWAP1 POP SWAP3 SWAP2 POP POP JUMP JUMPDEST PUSH0 PUSH1 0x8 DUP4 MUL PUSH2 0x32B PUSH32 0xFFFFFFFFFFFFFFFFFFFFFFFFFFFFFFFFFFFFFFFFFFFFFFFFFFFFFFFFFFFFFFFF DUP3 PUSH2 0x2F0 JUMP JUMPDEST PUSH2 0x335 DUP7 DUP4 PUSH2 0x2F0 JUMP JUMPDEST SWAP6 POP DUP1 NOT DUP5 AND SWAP4 POP DUP1 DUP7 AND DUP5 OR SWAP3 POP POP POP SWAP4 SWAP3 POP POP POP JUMP JUMPDEST PUSH0 DUP2 SWAP1 POP SWAP2 SWAP1 POP JUMP JUMPDEST PUSH0 DUP2 SWAP1 POP SWAP2 SWAP1 POP JUMP JUMPDEST PUSH0 PUSH2 0x379 PUSH2 0x374 PUSH2 0x36F DUP5 PUSH2 0x34D JUMP JUMPDEST PUSH2 0x356 JUMP JUMPDEST PUSH2 0x34D JUMP JUMPDEST SWAP1 POP SWAP2 SWAP1 POP JUMP JUMPDEST PUSH0 DUP2 SWAP1 POP SWAP2 SWAP1 POP JUMP JUMPDEST PUSH2 0x392 DUP4 PUSH2 0x35F JUMP JUMPDEST PUSH2 0x3A6 PUSH2 0x39E DUP3 PUSH2 0x380 JUMP JUMPDEST DUP5 DUP5 SLOAD PUSH2 0x2FC JUMP JUMPDEST DUP3 SSTORE POP POP POP POP JUMP JUMPDEST PUSH0 SWAP1 JUMP JUMPDEST PUSH2 0x3BA PUSH2 0x3AE JUMP JUMPDEST PUSH2 0x3C5 DUP2 DUP5 DUP5 PUSH2 0x389 JUMP JUMPDEST POP POP POP JUMP JUMPDEST JUMPDEST DUP2 DUP2 LT ISZERO PUSH2 0x3E8 JUMPI PUSH2 0x3DD PUSH0 DUP3 PUSH2 0x3B2 JUMP JUMPDEST PUSH1 0x1 DUP2 ADD SWAP1 POP PUSH2 0x3CB JUMP JUMPDEST POP POP JUMP JUMPDEST PUSH1 0x1F DUP3 GT ISZERO PUSH2 0x42D JUMPI PUSH2 0x3FE DUP2 PUSH2 0x2CF JUMP JUMPDEST PUSH2 0x407 DUP5 PUSH2 0x2E1 JUMP JUMPDEST DUP2 ADD PUSH1 0x20 DUP6 LT ISZERO PUSH2 0x416 JUMPI DUP2 SWAP1 POP JUMPDEST PUSH2 0x42A PUSH2 0x422 DUP6 PUSH2 0x2E1 JUMP JUMPDEST DUP4 ADD DUP3 PUSH2 0x3CA JUMP JUMPDEST POP POP JUMPDEST POP POP POP JUMP JUMPDEST PUSH0 DUP3 DUP3 SHR SWAP1 POP SWAP3 SWAP2 POP POP JUMP JUMPDEST PUSH0 PUSH2 0x44D PUSH0 NOT DUP5 PUSH1 0x8 MUL PUSH2 0x432 JUMP JUMPDEST NOT DUP1 DUP4 AND SWAP2 POP POP SWAP3 SWAP2 POP POP JUMP JUMPDEST PUSH0 PUSH2 0x465 DUP4 DUP4 PUSH2 0x43E JUMP JUMPDEST SWAP2 POP DUP3 PUSH1 0x2 MUL DUP3 OR SWAP1 POP SWAP3 SWAP2 POP POP JUMP JUMPDEST PUSH2 0x47E DUP3 PUSH2 0x268 JUMP JUMPDEST PUSH8 0xFFFFFFFFFFFFFFFF DUP2 GT ISZERO PUSH2 0x497 JUMPI PUSH2 0x496 PUSH2 0xCE JUMP JUMPDEST JUMPDEST PUSH2 0x4A1 DUP3 SLOAD PUSH2 0x29F JUMP JUMPDEST PUSH2 0x4AC DUP3 DUP3 DUP6 PUSH2 0x3EC JUMP JUMPDEST PUSH0 PUSH1 0x20 SWAP1 POP PUSH1 0x1F DUP4 GT PUSH1 0x1 DUP2 EQ PUSH2 0x4DD JUMPI PUSH0 DUP5 ISZERO PUSH2 0x4CB JUMPI DUP3 DUP8 ADD MLOAD SWAP1 POP JUMPDEST PUSH2 0x4D5 DUP6 DUP3 PUSH2 0x45A JUMP JUMPDEST DUP7 SSTORE POP PUSH2 0x53C JUMP JUMPDEST PUSH1 0x1F NOT DUP5 AND PUSH2 0x4EB DUP7 PUSH2 0x2CF JUMP JUMPDEST PUSH0 JUMPDEST DUP3 DUP2 LT ISZERO PUSH2 0x512 JUMPI DUP5 DUP10 ADD MLOAD DUP3 SSTORE PUSH1 0x1 DUP3 ADD SWAP2 POP PUSH1 0x20 DUP6 ADD SWAP5 POP PUSH1 0x20 DUP2 ADD SWAP1 POP PUSH2 0x4ED JUMP JUMPDEST DUP7 DUP4 LT ISZERO PUSH2 0x52F JUMPI DUP5 DUP10 ADD MLOAD PUSH2 0x52B PUSH1 0x1F DUP10 AND DUP3 PUSH2 0x43E JUMP JUMPDEST DUP4 SSTORE POP JUMPDEST PUSH1 0x1 PUSH1 0x2 DUP9 MUL ADD DUP9 SSTORE POP POP POP JUMPDEST POP POP POP POP POP POP JUMP JUMPDEST PUSH2 0x1083 DUP1 PUSH2 0x551 PUSH0 CODECOPY PUSH0 RETURN INVALID PUSH1 0x80 PUSH1 0x40 MSTORE PUSH1 0x4 CALLDATASIZE LT PUSH2 0x54 JUMPI PUSH0 CALLDATALOAD PUSH1 0xE0 SHR DUP1 PUSH4 0x1B5ADCB0 EQ PUSH2 0x58 JUMPI DUP1 PUSH4 0x32C715B3 EQ PUSH2 0x82 JUMPI DUP1 PUSH4 0x3F2A2930 EQ PUSH2 0xAA JUMPI DUP1 PUSH4 0x6D63D69D EQ PUSH2 0xC8 JUMPI DUP1 PUSH4 0x6EA538A3 EQ PUSH2 0xDE JUMPI DUP1 PUSH4 0xE7631DE4 EQ PUSH2 0x106 JUMPI JUMPDEST PUSH0 DUP1 REVERT JUMPDEST CALLVALUE DUP1 ISZERO PUSH2 0x63 JUMPI PUSH0 DUP1 REVERT JUMPDEST POP PUSH2 0x6C PUSH2 0x130 JUMP JUMPDEST PUSH1 0x40 MLOAD PUSH2 0x79 SWAP2 SWAP1 PUSH2 0x7A6 JUMP JUMPDEST PUSH1 0x40 MLOAD DUP1 SWAP2 SUB SWAP1 RETURN JUMPDEST CALLVALUE DUP1 ISZERO PUSH2 0x8D JUMPI PUSH0 DUP1 REVERT JUMPDEST POP PUSH2 0xA8 PUSH1 0x4 DUP1 CALLDATASIZE SUB DUP2 ADD SWAP1 PUSH2 0xA3 SWAP2 SWAP1 PUSH2 0x903 JUMP JUMPDEST PUSH2 0x1BF JUMP JUMPDEST STOP JUMPDEST PUSH2 0xB2 PUSH2 0x2A3 JUMP JUMPDEST PUSH1 0x40 MLOAD PUSH2 0xBF SWAP2 SWAP1 PUSH2 0x7A6 JUMP JUMPDEST PUSH1 0x40 MLOAD DUP1 SWAP2 SUB SWAP1 RETURN JUMPDEST CALLVALUE DUP1 ISZERO PUSH2 0xD3 JUMPI PUSH0 DUP1 REVERT JUMPDEST POP PUSH2 0xDC PUSH2 0x48E JUMP JUMPDEST STOP JUMPDEST CALLVALUE DUP1 ISZERO PUSH2 0xE9 JUMPI PUSH0 DUP1 REVERT JUMPDEST POP PUSH2 0x104 PUSH1 0x4 DUP1 CALLDATASIZE SUB DUP2 ADD SWAP1 PUSH2 0xFF SWAP2 SWAP1 PUSH2 0x903 JUMP JUMPDEST PUSH2 0x584 JUMP JUMPDEST STOP JUMPDEST CALLVALUE DUP1 ISZERO PUSH2 0x111 JUMPI PUSH0 DUP1 REVERT JUMPDEST POP PUSH2 0x11A PUSH2 0x636 JUMP JUMPDEST PUSH1 0x40 MLOAD PUSH2 0x127 SWAP2 SWAP1 PUSH2 0xA7C JUMP JUMPDEST PUSH1 0x40 MLOAD DUP1 SWAP2 SUB SWAP1 RETURN JUMPDEST PUSH1 0x60 PUSH0 DUP1 SLOAD PUSH2 0x13E SWAP1 PUSH2 0xAC9 JUMP JUMPDEST DUP1 PUSH1 0x1F ADD PUSH1 0x20 DUP1 SWAP2 DIV MUL PUSH1 0x20 ADD PUSH1 0x40 MLOAD SWAP1 DUP2 ADD PUSH1 0x40 MSTORE DUP1 SWAP3 SWAP2 SWAP1 DUP2 DUP2 MSTORE PUSH1 0x20 ADD DUP3 DUP1 SLOAD PUSH2 0x16A SWAP1 PUSH2 0xAC9 JUMP JUMPDEST DUP1 ISZERO PUSH2 0x1B5 JUMPI DUP1 PUSH1 0x1F LT PUSH2 0x18C JUMPI PUSH2 0x100 DUP1 DUP4 SLOAD DIV MUL DUP4 MSTORE SWAP2 PUSH1 0x20 ADD SWAP2 PUSH2 0x1B5 JUMP JUMPDEST DUP3 ADD SWAP2 SWAP1 PUSH0 MSTORE PUSH1 0x20 PUSH0 KECCAK256 SWAP1 JUMPDEST DUP2 SLOAD DUP2 MSTORE SWAP1 PUSH1 0x1 ADD SWAP1 PUSH1 0x20 ADD DUP1 DUP4 GT PUSH2 0x198 JUMPI DUP3 SWAP1 SUB PUSH1 0x1F AND DUP3 ADD SWAP2 JUMPDEST POP POP POP POP POP SWAP1 POP SWAP1 JUMP JUMPDEST PUSH1 0x2 PUSH0 SWAP1 SLOAD SWAP1 PUSH2 0x100 EXP SWAP1 DIV PUSH20 0xFFFFFFFFFFFFFFFFFFFFFFFFFFFFFFFFFFFFFFFF AND PUSH20 0xFFFFFFFFFFFFFFFFFFFFFFFFFFFFFFFFFFFFFFFF AND CALLER PUSH20 0xFFFFFFFFFFFFFFFFFFFFFFFFFFFFFFFFFFFFFFFF AND EQ PUSH2 0x24E JUMPI PUSH1 0x40 MLOAD PUSH32 0x8C379A000000000000000000000000000000000000000000000000000000000 DUP2 MSTORE PUSH1 0x4 ADD PUSH2 0x245 SWAP1 PUSH2 0xB69 JUMP JUMPDEST PUSH1 0x40 MLOAD DUP1 SWAP2 SUB SWAP1 REVERT JUMPDEST PUSH1 0x4 PUSH0 SWAP1 DUP1 PUSH1 0x1 DUP2 SLOAD ADD DUP1 DUP3 SSTORE DUP1 SWAP2 POP POP PUSH1 0x1 SWAP1 SUB SWAP1 PUSH0 MSTORE PUSH1 0x20 PUSH0 KECCAK256 ADD PUSH0 SWAP1 SWAP2 SWAP1 SWAP2 SWAP1 SWAP2 POP SWAP1 DUP2 PUSH2 0x27F SWAP2 SWAP1 PUSH2 0xD54 JUMP JUMPDEST POP DUP2 PUSH0 SWAP1 DUP2 PUSH2 0x28E SWAP2 SWAP1 PUSH2 0xE39 JUMP JUMPDEST POP DUP1 PUSH1 0x1 SWAP1 DUP2 PUSH2 0x29E SWAP2 SWAP1 PUSH2 0xE39 JUMP JUMPDEST POP POP POP JUMP JUMPDEST PUSH1 0x60 PUSH1 0x3 SLOAD CALLVALUE LT ISZERO PUSH2 0x313 JUMPI CALLER PUSH20 0xFFFFFFFFFFFFFFFFFFFFFFFFFFFFFFFFFFFFFFFF AND PUSH2 0x8FC CALLVALUE SWAP1 DUP2 ISZERO MUL SWAP1 PUSH1 0x40 MLOAD PUSH0 PUSH1 0x40 MLOAD DUP1 DUP4 SUB DUP2 DUP6 DUP9 DUP9 CALL SWAP4 POP POP POP POP ISZERO DUP1 ISZERO PUSH2 0x2F2 JUMPI RETURNDATASIZE PUSH0 DUP1 RETURNDATACOPY RETURNDATASIZE PUSH0 REVERT JUMPDEST POP PUSH1 0x40 MLOAD DUP1 PUSH1 0x60 ADD PUSH1 0x40 MSTORE DUP1 PUSH1 0x33 DUP2 MSTORE PUSH1 0x20 ADD PUSH2 0x101B PUSH1 0x33 SWAP2 CODECOPY SWAP1 POP PUSH2 0x48B JUMP JUMPDEST PUSH1 0x3 SLOAD CALLVALUE GT ISZERO PUSH2 0x36F JUMPI CALLER PUSH20 0xFFFFFFFFFFFFFFFFFFFFFFFFFFFFFFFFFFFFFFFF AND PUSH2 0x8FC PUSH1 0x3 SLOAD CALLVALUE PUSH2 0x345 SWAP2 SWAP1 PUSH2 0xF35 JUMP JUMPDEST SWAP1 DUP2 ISZERO MUL SWAP1 PUSH1 0x40 MLOAD PUSH0 PUSH1 0x40 MLOAD DUP1 DUP4 SUB DUP2 DUP6 DUP9 DUP9 CALL SWAP4 POP POP POP POP ISZERO DUP1 ISZERO PUSH2 0x36D JUMPI RETURNDATASIZE PUSH0 DUP1 RETURNDATACOPY RETURNDATASIZE PUSH0 REVERT JUMPDEST POP JUMPDEST PUSH2 0x488 PUSH0 DUP1 SLOAD PUSH2 0x37E SWAP1 PUSH2 0xAC9 JUMP JUMPDEST DUP1 PUSH1 0x1F ADD PUSH1 0x20 DUP1 SWAP2 DIV MUL PUSH1 0x20 ADD PUSH1 0x40 MLOAD SWAP1 DUP2 ADD PUSH1 0x40 MSTORE DUP1 SWAP3 SWAP2 SWAP1 DUP2 DUP2 MSTORE PUSH1 0x20 ADD DUP3 DUP1 SLOAD PUSH2 0x3AA SWAP1 PUSH2 0xAC9 JUMP JUMPDEST DUP1 ISZERO PUSH2 0x3F5 JUMPI DUP1 PUSH1 0x1F LT PUSH2 0x3CC JUMPI PUSH2 0x100 DUP1 DUP4 SLOAD DIV MUL DUP4 MSTORE SWAP2 PUSH1 0x20 ADD SWAP2 PUSH2 0x3F5 JUMP JUMPDEST DUP3 ADD SWAP2 SWAP1 PUSH0 MSTORE PUSH1 0x20 PUSH0 KECCAK256 SWAP1 JUMPDEST DUP2 SLOAD DUP2 MSTORE SWAP1 PUSH1 0x1 ADD SWAP1 PUSH1 0x20 ADD DUP1 DUP4 GT PUSH2 0x3D8 JUMPI DUP3 SWAP1 SUB PUSH1 0x1F AND DUP3 ADD SWAP2 JUMPDEST POP POP POP POP POP PUSH1 0x1 DUP1 SLOAD PUSH2 0x407 SWAP1 PUSH2 0xAC9 JUMP JUMPDEST DUP1 PUSH1 0x1F ADD PUSH1 0x20 DUP1 SWAP2 DIV MUL PUSH1 0x20 ADD PUSH1 0x40 MLOAD SWAP1 DUP2 ADD PUSH1 0x40 MSTORE DUP1 SWAP3 SWAP2 SWAP1 DUP2 DUP2 MSTORE PUSH1 0x20 ADD DUP3 DUP1 SLOAD PUSH2 0x433 SWAP1 PUSH2 0xAC9 JUMP JUMPDEST DUP1 ISZERO PUSH2 0x47E JUMPI DUP1 PUSH1 0x1F LT PUSH2 0x455 JUMPI PUSH2 0x100 DUP1 DUP4 SLOAD DIV MUL DUP4 MSTORE SWAP2 PUSH1 0x20 ADD SWAP2 PUSH2 0x47E JUMP JUMPDEST DUP3 ADD SWAP2 SWAP1 PUSH0 MSTORE PUSH1 0x20 PUSH0 KECCAK256 SWAP1 JUMPDEST DUP2 SLOAD DUP2 MSTORE SWAP1 PUSH1 0x1 ADD SWAP1 PUSH1 0x20 ADD DUP1 DUP4 GT PUSH2 0x461 JUMPI DUP3 SWAP1 SUB PUSH1 0x1F AND DUP3 ADD SWAP2 JUMPDEST POP POP POP POP POP PUSH2 0x70A JUMP JUMPDEST SWAP1 POP JUMPDEST SWAP1 JUMP JUMPDEST PUSH1 0x2 PUSH0 SWAP1 SLOAD SWAP1 PUSH2 0x100 EXP SWAP1 DIV PUSH20 0xFFFFFFFFFFFFFFFFFFFFFFFFFFFFFFFFFFFFFFFF AND PUSH20 0xFFFFFFFFFFFFFFFFFFFFFFFFFFFFFFFFFFFFFFFF AND CALLER PUSH20 0xFFFFFFFFFFFFFFFFFFFFFFFFFFFFFFFFFFFFFFFF AND EQ PUSH2 0x51D JUMPI PUSH1 0x40 MLOAD PUSH32 0x8C379A000000000000000000000000000000000000000000000000000000000 DUP2 MSTORE PUSH1 0x4 ADD PUSH2 0x514 SWAP1 PUSH2 0xB69 JUMP JUMPDEST PUSH1 0x40 MLOAD DUP1 SWAP2 SUB SWAP1 REVERT JUMPDEST PUSH1 0x2 PUSH0 SWAP1 SLOAD SWAP1 PUSH2 0x100 EXP SWAP1 DIV PUSH20 0xFFFFFFFFFFFFFFFFFFFFFFFFFFFFFFFFFFFFFFFF AND PUSH20 0xFFFFFFFFFFFFFFFFFFFFFFFFFFFFFFFFFFFFFFFF AND PUSH2 0x8FC SELFBALANCE SWAP1 DUP2 ISZERO MUL SWAP1 PUSH1 0x40 MLOAD PUSH0 PUSH1 0x40 MLOAD DUP1 DUP4 SUB DUP2 DUP6 DUP9 DUP9 CALL SWAP4 POP POP POP POP ISZERO DUP1 ISZERO PUSH2 0x581 JUMPI RETURNDATASIZE PUSH0 DUP1 RETURNDATACOPY RETURNDATASIZE PUSH0 REVERT JUMPDEST POP JUMP JUMPDEST PUSH1 0x2 PUSH0 SWAP1 SLOAD SWAP1 PUSH2 0x100 EXP SWAP1 DIV PUSH20 0xFFFFFFFFFFFFFFFFFFFFFFFFFFFFFFFFFFFFFFFF AND PUSH20 0xFFFFFFFFFFFFFFFFFFFFFFFFFFFFFFFFFFFFFFFF AND CALLER PUSH20 0xFFFFFFFFFFFFFFFFFFFFFFFFFFFFFFFFFFFFFFFF AND EQ PUSH2 0x613 JUMPI PUSH1 0x40 MLOAD PUSH32 0x8C379A000000000000000000000000000000000000000000000000000000000 DUP2 MSTORE PUSH1 0x4 ADD PUSH2 0x60A SWAP1 PUSH2 0xB69 JUMP JUMPDEST PUSH1 0x40 MLOAD DUP1 SWAP2 SUB SWAP1 REVERT JUMPDEST DUP2 PUSH0 SWAP1 DUP2 PUSH2 0x621 SWAP2 SWAP1 PUSH2 0xE39 JUMP JUMPDEST POP DUP1 PUSH1 0x1 SWAP1 DUP2 PUSH2 0x631 SWAP2 SWAP1 PUSH2 0xE39 JUMP JUMPDEST POP POP POP JUMP JUMPDEST PUSH1 0x60 PUSH1 0x4 DUP1 SLOAD DUP1 PUSH1 0x20 MUL PUSH1 0x20 ADD PUSH1 0x40 MLOAD SWAP1 DUP2 ADD PUSH1 0x40 MSTORE DUP1 SWAP3 SWAP2 SWAP1 DUP2 DUP2 MSTORE PUSH1 0x20 ADD PUSH0 SWAP1 JUMPDEST DUP3 DUP3 LT ISZERO PUSH2 0x701 JUMPI DUP4 DUP3 SWAP1 PUSH0 MSTORE PUSH1 0x20 PUSH0 KECCAK256 ADD DUP1 SLOAD PUSH2 0x676 SWAP1 PUSH2 0xAC9 JUMP JUMPDEST DUP1 PUSH1 0x1F ADD PUSH1 0x20 DUP1 SWAP2 DIV MUL PUSH1 0x20 ADD PUSH1 0x40 MLOAD SWAP1 DUP2 ADD PUSH1 0x40 MSTORE DUP1 SWAP3 SWAP2 SWAP1 DUP2 DUP2 MSTORE PUSH1 0x20 ADD DUP3 DUP1 SLOAD PUSH2 0x6A2 SWAP1 PUSH2 0xAC9 JUMP JUMPDEST DUP1 ISZERO PUSH2 0x6ED JUMPI DUP1 PUSH1 0x1F LT PUSH2 0x6C4 JUMPI PUSH2 0x100 DUP1 DUP4 SLOAD DIV MUL DUP4 MSTORE SWAP2 PUSH1 0x20 ADD SWAP2 PUSH2 0x6ED JUMP JUMPDEST DUP3 ADD SWAP2 SWAP1 PUSH0 MSTORE PUSH1 0x20 PUSH0 KECCAK256 SWAP1 JUMPDEST DUP2 SLOAD DUP2 MSTORE SWAP1 PUSH1 0x1 ADD SWAP1 PUSH1 0x20 ADD DUP1 DUP4 GT PUSH2 0x6D0 JUMPI DUP3 SWAP1 SUB PUSH1 0x1F AND DUP3 ADD SWAP2 JUMPDEST POP POP POP POP POP DUP2 MSTORE PUSH1 0x20 ADD SWAP1 PUSH1 0x1 ADD SWAP1 PUSH2 0x659 JUMP JUMPDEST POP POP POP POP SWAP1 POP SWAP1 JUMP JUMPDEST PUSH1 0x60 DUP3 DUP3 PUSH1 0x40 MLOAD PUSH1 0x20 ADD PUSH2 0x71F SWAP3 SWAP2 SWAP1 PUSH2 0xFEC JUMP JUMPDEST PUSH1 0x40 MLOAD PUSH1 0x20 DUP2 DUP4 SUB SUB DUP2 MSTORE SWAP1 PUSH1 0x40 MSTORE SWAP1 POP SWAP3 SWAP2 POP POP JUMP JUMPDEST PUSH0 DUP2 MLOAD SWAP1 POP SWAP2 SWAP1 POP JUMP JUMPDEST PUSH0 DUP3 DUP3 MSTORE PUSH1 0x20 DUP3 ADD SWAP1 POP SWAP3 SWAP2 POP POP JUMP JUMPDEST DUP3 DUP2 DUP4 MCOPY PUSH0 DUP4 DUP4 ADD MSTORE POP POP POP JUMP JUMPDEST PUSH0 PUSH1 0x1F NOT PUSH1 0x1F DUP4 ADD AND SWAP1 POP SWAP2 SWAP1 POP JUMP JUMPDEST PUSH0 PUSH2 0x778 DUP3 PUSH2 0x736 JUMP JUMPDEST PUSH2 0x782 DUP2 DUP6 PUSH2 0x740 JUMP JUMPDEST SWAP4 POP PUSH2 0x792 DUP2 DUP6 PUSH1 0x20 DUP7 ADD PUSH2 0x750 JUMP JUMPDEST PUSH2 0x79B DUP2 PUSH2 0x75E JUMP JUMPDEST DUP5 ADD SWAP2 POP POP SWAP3 SWAP2 POP POP JUMP JUMPDEST PUSH0 PUSH1 0x20 DUP3 ADD SWAP1 POP DUP2 DUP2 SUB PUSH0 DUP4 ADD MSTORE PUSH2 0x7BE DUP2 DUP5 PUSH2 0x76E JUMP JUMPDEST SWAP1 POP SWAP3 SWAP2 POP POP JUMP JUMPDEST PUSH0 PUSH1 0x40 MLOAD SWAP1 POP SWAP1 JUMP JUMPDEST PUSH0 DUP1 REVERT JUMPDEST PUSH0 DUP1 REVERT JUMPDEST PUSH0 DUP1 REVERT JUMPDEST PUSH0 DUP1 REVERT JUMPDEST PUSH32 0x4E487B7100000000000000000000000000000000000000000000000000000000 PUSH0 MSTORE PUSH1 0x41 PUSH1 0x4 MSTORE PUSH1 0x24 PUSH0 REVERT JUMPDEST PUSH2 0x815 DUP3 PUSH2 0x75E JUMP JUMPDEST DUP2 ADD DUP2 DUP2 LT PUSH8 0xFFFFFFFFFFFFFFFF DUP3 GT OR ISZERO PUSH2 0x834 JUMPI PUSH2 0x833 PUSH2 0x7DF JUMP JUMPDEST JUMPDEST DUP1 PUSH1 0x40 MSTORE POP POP POP JUMP JUMPDEST PUSH0 PUSH2 0x846 PUSH2 0x7C6 JUMP JUMPDEST SWAP1 POP PUSH2 0x852 DUP3 DUP3 PUSH2 0x80C JUMP JUMPDEST SWAP2 SWAP1 POP JUMP JUMPDEST PUSH0 PUSH8 0xFFFFFFFFFFFFFFFF DUP3 GT ISZERO PUSH2 0x871 JUMPI PUSH2 0x870 PUSH2 0x7DF JUMP JUMPDEST JUMPDEST PUSH2 0x87A DUP3 PUSH2 0x75E JUMP JUMPDEST SWAP1 POP PUSH1 0x20 DUP2 ADD SWAP1 POP SWAP2 SWAP1 POP JUMP JUMPDEST DUP3 DUP2 DUP4 CALLDATACOPY PUSH0 DUP4 DUP4 ADD MSTORE POP POP POP JUMP JUMPDEST PUSH0 PUSH2 0x8A7 PUSH2 0x8A2 DUP5 PUSH2 0x857 JUMP JUMPDEST PUSH2 0x83D JUMP JUMPDEST SWAP1 POP DUP3 DUP2 MSTORE PUSH1 0x20 DUP2 ADD DUP5 DUP5 DUP5 ADD GT ISZERO PUSH2 0x8C3 JUMPI PUSH2 0x8C2 PUSH2 0x7DB JUMP JUMPDEST JUMPDEST PUSH2 0x8CE DUP5 DUP3 DUP6 PUSH2 0x887 JUMP JUMPDEST POP SWAP4 SWAP3 POP POP POP JUMP JUMPDEST PUSH0 DUP3 PUSH1 0x1F DUP4 ADD SLT PUSH2 0x8EA JUMPI PUSH2 0x8E9 PUSH2 0x7D7 JUMP JUMPDEST JUMPDEST DUP2 CALLDATALOAD PUSH2 0x8FA DUP5 DUP3 PUSH1 0x20 DUP7 ADD PUSH2 0x895 JUMP JUMPDEST SWAP2 POP POP SWAP3 SWAP2 POP POP JUMP JUMPDEST PUSH0 DUP1 PUSH1 0x40 DUP4 DUP6 SUB SLT ISZERO PUSH2 0x919 JUMPI PUSH2 0x918 PUSH2 0x7CF JUMP JUMPDEST JUMPDEST PUSH0 DUP4 ADD CALLDATALOAD PUSH8 0xFFFFFFFFFFFFFFFF DUP2 GT ISZERO PUSH2 0x936 JUMPI PUSH2 0x935 PUSH2 0x7D3 JUMP JUMPDEST JUMPDEST PUSH2 0x942 DUP6 DUP3 DUP7 ADD PUSH2 0x8D6 JUMP JUMPDEST SWAP3 POP POP PUSH1 0x20 DUP4 ADD CALLDATALOAD PUSH8 0xFFFFFFFFFFFFFFFF DUP2 GT ISZERO PUSH2 0x963 JUMPI PUSH2 0x962 PUSH2 0x7D3 JUMP JUMPDEST JUMPDEST PUSH2 0x96F DUP6 DUP3 DUP7 ADD PUSH2 0x8D6 JUMP JUMPDEST SWAP2 POP POP SWAP3 POP SWAP3 SWAP1 POP JUMP JUMPDEST PUSH0 DUP2 MLOAD SWAP1 POP SWAP2 SWAP1 POP JUMP JUMPDEST PUSH0 DUP3 DUP3 MSTORE PUSH1 0x20 DUP3 ADD SWAP1 POP SWAP3 SWAP2 POP POP JUMP JUMPDEST PUSH0 DUP2 SWAP1 POP PUSH1 0x20 DUP3 ADD SWAP1 POP SWAP2 SWAP1 POP JUMP JUMPDEST PUSH0 DUP3 DUP3 MSTORE PUSH1 0x20 DUP3 ADD SWAP1 POP SWAP3 SWAP2 POP POP JUMP JUMPDEST PUSH0 PUSH2 0x9BC DUP3 PUSH2 0x736 JUMP JUMPDEST PUSH2 0x9C6 DUP2 DUP6 PUSH2 0x9A2 JUMP JUMPDEST SWAP4 POP PUSH2 0x9D6 DUP2 DUP6 PUSH1 0x20 DUP7 ADD PUSH2 0x750 JUMP JUMPDEST PUSH2 0x9DF DUP2 PUSH2 0x75E JUMP JUMPDEST DUP5 ADD SWAP2 POP POP SWAP3 SWAP2 POP POP JUMP JUMPDEST PUSH0 PUSH2 0x9F5 DUP4 DUP4 PUSH2 0x9B2 JUMP JUMPDEST SWAP1 POP SWAP3 SWAP2 POP POP JUMP JUMPDEST PUSH0 PUSH1 0x20 DUP3 ADD SWAP1 POP SWAP2 SWAP1 POP JUMP JUMPDEST PUSH0 PUSH2 0xA13 DUP3 PUSH2 0x979 JUMP JUMPDEST PUSH2 0xA1D DUP2 DUP6 PUSH2 0x983 JUMP JUMPDEST SWAP4 POP DUP4 PUSH1 0x20 DUP3 MUL DUP6 ADD PUSH2 0xA2F DUP6 PUSH2 0x993 JUMP JUMPDEST DUP1 PUSH0 JUMPDEST DUP6 DUP2 LT ISZERO PUSH2 0xA6A JUMPI DUP5 DUP5 SUB DUP10 MSTORE DUP2 MLOAD PUSH2 0xA4B DUP6 DUP3 PUSH2 0x9EA JUMP JUMPDEST SWAP5 POP PUSH2 0xA56 DUP4 PUSH2 0x9FD JUMP JUMPDEST SWAP3 POP PUSH1 0x20 DUP11 ADD SWAP10 POP POP PUSH1 0x1 DUP2 ADD SWAP1 POP PUSH2 0xA32 JUMP JUMPDEST POP DUP3 SWAP8 POP DUP8 SWAP6 POP POP POP POP POP POP SWAP3 SWAP2 POP POP JUMP JUMPDEST PUSH0 PUSH1 0x20 DUP3 ADD SWAP1 POP DUP2 DUP2 SUB PUSH0 DUP4 ADD MSTORE PUSH2 0xA94 DUP2 DUP5 PUSH2 0xA09 JUMP JUMPDEST SWAP1 POP SWAP3 SWAP2 POP POP JUMP JUMPDEST PUSH32 0x4E487B7100000000000000000000000000000000000000000000000000000000 PUSH0 MSTORE PUSH1 0x22 PUSH1 0x4 MSTORE PUSH1 0x24 PUSH0 REVERT JUMPDEST PUSH0 PUSH1 0x2 DUP3 DIV SWAP1 POP PUSH1 0x1 DUP3 AND DUP1 PUSH2 0xAE0 JUMPI PUSH1 0x7F DUP3 AND SWAP2 POP JUMPDEST PUSH1 0x20 DUP3 LT DUP2 SUB PUSH2 0xAF3 JUMPI PUSH2 0xAF2 PUSH2 0xA9C JUMP JUMPDEST JUMPDEST POP SWAP2 SWAP1 POP JUMP JUMPDEST PUSH32 0x4F6E6C792074686520636F6E7472616374206465706C6F7965722063616E2065 PUSH0 DUP3 ADD MSTORE PUSH32 0x646974207468652073746F636B20746970000000000000000000000000000000 PUSH1 0x20 DUP3 ADD MSTORE POP JUMP JUMPDEST PUSH0 PUSH2 0xB53 PUSH1 0x31 DUP4 PUSH2 0x740 JUMP JUMPDEST SWAP2 POP PUSH2 0xB5E DUP3 PUSH2 0xAF9 JUMP JUMPDEST PUSH1 0x40 DUP3 ADD SWAP1 POP SWAP2 SWAP1 POP JUMP JUMPDEST PUSH0 PUSH1 0x20 DUP3 ADD SWAP1 POP DUP2 DUP2 SUB PUSH0 DUP4 ADD MSTORE PUSH2 0xB80 DUP2 PUSH2 0xB47 JUMP JUMPDEST SWAP1 POP SWAP2 SWAP1 POP JUMP JUMPDEST PUSH0 DUP2 SLOAD SWAP1 POP PUSH2 0xB95 DUP2 PUSH2 0xAC9 JUMP JUMPDEST SWAP1 POP SWAP2 SWAP1 POP JUMP JUMPDEST PUSH0 DUP2 SWAP1 POP DUP2 PUSH0 MSTORE PUSH1 0x20 PUSH0 KECCAK256 SWAP1 POP SWAP2 SWAP1 POP JUMP JUMPDEST PUSH0 DUP2 SWAP1 POP DUP2 PUSH0 MSTORE PUSH1 0x20 PUSH0 KECCAK256 SWAP1 POP SWAP2 SWAP1 POP JUMP JUMPDEST PUSH0 PUSH1 0x20 PUSH1 0x1F DUP4 ADD DIV SWAP1 POP SWAP2 SWAP1 POP JUMP JUMPDEST PUSH0 DUP3 DUP3 SHL SWAP1 POP SWAP3 SWAP2 POP POP JUMP JUMPDEST PUSH0 PUSH1 0x8 DUP4 MUL PUSH2 0xC0A PUSH32 0xFFFFFFFFFFFFFFFFFFFFFFFFFFFFFFFFFFFFFFFFFFFFFFFFFFFFFFFFFFFFFFFF DUP3 PUSH2 0xBCF JUMP JUMPDEST PUSH2 0xC14 DUP7 DUP4 PUSH2 0xBCF JUMP JUMPDEST SWAP6 POP DUP1 NOT DUP5 AND SWAP4 POP DUP1 DUP7 AND DUP5 OR SWAP3 POP POP POP SWAP4 SWAP3 POP POP POP JUMP JUMPDEST PUSH0 DUP2 SWAP1 POP SWAP2 SWAP1 POP JUMP JUMPDEST PUSH0 DUP2 SWAP1 POP SWAP2 SWAP1 POP JUMP JUMPDEST PUSH0 PUSH2 0xC58 PUSH2 0xC53 PUSH2 0xC4E DUP5 PUSH2 0xC2C JUMP JUMPDEST PUSH2 0xC35 JUMP JUMPDEST PUSH2 0xC2C JUMP JUMPDEST SWAP1 POP SWAP2 SWAP1 POP JUMP JUMPDEST PUSH0 DUP2 SWAP1 POP SWAP2 SWAP1 POP JUMP JUMPDEST PUSH2 0xC71 DUP4 PUSH2 0xC3E JUMP JUMPDEST PUSH2 0xC85 PUSH2 0xC7D DUP3 PUSH2 0xC5F JUMP JUMPDEST DUP5 DUP5 SLOAD PUSH2 0xBDB JUMP JUMPDEST DUP3 SSTORE POP POP POP POP JUMP JUMPDEST PUSH0 SWAP1 JUMP JUMPDEST PUSH2 0xC99 PUSH2 0xC8D JUMP JUMPDEST PUSH2 0xCA4 DUP2 DUP5 DUP5 PUSH2 0xC68 JUMP JUMPDEST POP POP POP JUMP JUMPDEST JUMPDEST DUP2 DUP2 LT ISZERO PUSH2 0xCC7 JUMPI PUSH2 0xCBC PUSH0 DUP3 PUSH2 0xC91 JUMP JUMPDEST PUSH1 0x1 DUP2 ADD SWAP1 POP PUSH2 0xCAA JUMP JUMPDEST POP POP JUMP JUMPDEST PUSH1 0x1F DUP3 GT ISZERO PUSH2 0xD0C JUMPI PUSH2 0xCDD DUP2 PUSH2 0xB9C JUMP JUMPDEST PUSH2 0xCE6 DUP5 PUSH2 0xBC0 JUMP JUMPDEST DUP2 ADD PUSH1 0x20 DUP6 LT ISZERO PUSH2 0xCF5 JUMPI DUP2 SWAP1 POP JUMPDEST PUSH2 0xD09 PUSH2 0xD01 DUP6 PUSH2 0xBC0 JUMP JUMPDEST DUP4 ADD DUP3 PUSH2 0xCA9 JUMP JUMPDEST POP POP JUMPDEST POP POP POP JUMP JUMPDEST PUSH0 DUP3 DUP3 SHR SWAP1 POP SWAP3 SWAP2 POP POP JUMP JUMPDEST PUSH0 PUSH2 0xD2C PUSH0 NOT DUP5 PUSH1 0x8 MUL PUSH2 0xD11 JUMP JUMPDEST NOT DUP1 DUP4 AND SWAP2 POP POP SWAP3 SWAP2 POP POP JUMP JUMPDEST PUSH0 PUSH2 0xD44 DUP4 DUP4 PUSH2 0xD1D JUMP JUMPDEST SWAP2 POP DUP3 PUSH1 0x2 MUL DUP3 OR SWAP1 POP SWAP3 SWAP2 POP POP JUMP JUMPDEST DUP2 DUP2 SUB PUSH2 0xD62 JUMPI POP POP PUSH2 0xE37 JUMP JUMPDEST PUSH2 0xD6B DUP3 PUSH2 0xB87 JUMP JUMPDEST PUSH8 0xFFFFFFFFFFFFFFFF DUP2 GT ISZERO PUSH2 0xD84 JUMPI PUSH2 0xD83 PUSH2 0x7DF JUMP JUMPDEST JUMPDEST PUSH2 0xD8E DUP3 SLOAD PUSH2 0xAC9 JUMP JUMPDEST PUSH2 0xD99 DUP3 DUP3 DUP6 PUSH2 0xCCB JUMP JUMPDEST PUSH0 PUSH1 0x1F DUP4 GT PUSH1 0x1 DUP2 EQ PUSH2 0xDC6 JUMPI PUSH0 DUP5 ISZERO PUSH2 0xDB4 JUMPI DUP3 DUP8 ADD SLOAD SWAP1 POP JUMPDEST PUSH2 0xDBE DUP6 DUP3 PUSH2 0xD39 JUMP JUMPDEST DUP7 SSTORE POP PUSH2 0xE30 JUMP JUMPDEST PUSH1 0x1F NOT DUP5 AND PUSH2 0xDD4 DUP8 PUSH2 0xBAE JUMP JUMPDEST SWAP7 POP PUSH2 0xDDF DUP7 PUSH2 0xB9C JUMP JUMPDEST PUSH0 JUMPDEST DUP3 DUP2 LT ISZERO PUSH2 0xE06 JUMPI DUP5 DUP10 ADD SLOAD DUP3 SSTORE PUSH1 0x1 DUP3 ADD SWAP2 POP PUSH1 0x1 DUP6 ADD SWAP5 POP PUSH1 0x20 DUP2 ADD SWAP1 POP PUSH2 0xDE1 JUMP JUMPDEST DUP7 DUP4 LT ISZERO PUSH2 0xE23 JUMPI DUP5 DUP10 ADD SLOAD PUSH2 0xE1F PUSH1 0x1F DUP10 AND DUP3 PUSH2 0xD1D JUMP JUMPDEST DUP4 SSTORE POP JUMPDEST PUSH1 0x1 PUSH1 0x2 DUP9 MUL ADD DUP9 SSTORE POP POP POP JUMPDEST POP POP POP POP POP POP JUMPDEST JUMP JUMPDEST PUSH2 0xE42 DUP3 PUSH2 0x736 JUMP JUMPDEST PUSH8 0xFFFFFFFFFFFFFFFF DUP2 GT ISZERO PUSH2 0xE5B JUMPI PUSH2 0xE5A PUSH2 0x7DF JUMP JUMPDEST JUMPDEST PUSH2 0xE65 DUP3 SLOAD PUSH2 0xAC9 JUMP JUMPDEST PUSH2 0xE70 DUP3 DUP3 DUP6 PUSH2 0xCCB JUMP JUMPDEST PUSH0 PUSH1 0x20 SWAP1 POP PUSH1 0x1F DUP4 GT PUSH1 0x1 DUP2 EQ PUSH2 0xEA1 JUMPI PUSH0 DUP5 ISZERO PUSH2 0xE8F JUMPI DUP3 DUP8 ADD MLOAD SWAP1 POP JUMPDEST PUSH2 0xE99 DUP6 DUP3 PUSH2 0xD39 JUMP JUMPDEST DUP7 SSTORE POP PUSH2 0xF00 JUMP JUMPDEST PUSH1 0x1F NOT DUP5 AND PUSH2 0xEAF DUP7 PUSH2 0xB9C JUMP JUMPDEST PUSH0 JUMPDEST DUP3 DUP2 LT ISZERO PUSH2 0xED6 JUMPI DUP5 DUP10 ADD MLOAD DUP3 SSTORE PUSH1 0x1 DUP3 ADD SWAP2 POP PUSH1 0x20 DUP6 ADD SWAP5 POP PUSH1 0x20 DUP2 ADD SWAP1 POP PUSH2 0xEB1 JUMP JUMPDEST DUP7 DUP4 LT ISZERO PUSH2 0xEF3 JUMPI DUP5 DUP10 ADD MLOAD PUSH2 0xEEF PUSH1 0x1F DUP10 AND DUP3 PUSH2 0xD1D JUMP JUMPDEST DUP4 SSTORE POP JUMPDEST PUSH1 0x1 PUSH1 0x2 DUP9 MUL ADD DUP9 SSTORE POP POP POP JUMPDEST POP POP POP POP POP POP JUMP JUMPDEST PUSH32 0x4E487B7100000000000000000000000000000000000000000000000000000000 PUSH0 MSTORE PUSH1 0x11 PUSH1 0x4 MSTORE PUSH1 0x24 PUSH0 REVERT JUMPDEST PUSH0 PUSH2 0xF3F DUP3 PUSH2 0xC2C JUMP JUMPDEST SWAP2 POP PUSH2 0xF4A DUP4 PUSH2 0xC2C JUMP JUMPDEST SWAP3 POP DUP3 DUP3 SUB SWAP1 POP DUP2 DUP2 GT ISZERO PUSH2 0xF62 JUMPI PUSH2 0xF61 PUSH2 0xF08 JUMP JUMPDEST JUMPDEST SWAP3 SWAP2 POP POP JUMP JUMPDEST PUSH0 DUP2 SWAP1 POP SWAP3 SWAP2 POP POP JUMP JUMPDEST PUSH0 PUSH2 0xF7C DUP3 PUSH2 0x736 JUMP JUMPDEST PUSH2 0xF86 DUP2 DUP6 PUSH2 0xF68 JUMP JUMPDEST SWAP4 POP PUSH2 0xF96 DUP2 DUP6 PUSH1 0x20 DUP7 ADD PUSH2 0x750 JUMP JUMPDEST DUP1 DUP5 ADD SWAP2 POP POP SWAP3 SWAP2 POP POP JUMP JUMPDEST PUSH32 0x202D200000000000000000000000000000000000000000000000000000000000 PUSH0 DUP3 ADD MSTORE POP JUMP JUMPDEST PUSH0 PUSH2 0xFD6 PUSH1 0x3 DUP4 PUSH2 0xF68 JUMP JUMPDEST SWAP2 POP PUSH2 0xFE1 DUP3 PUSH2 0xFA2 JUMP JUMPDEST PUSH1 0x3 DUP3 ADD SWAP1 POP SWAP2 SWAP1 POP JUMP JUMPDEST PUSH0 PUSH2 0xFF7 DUP3 DUP6 PUSH2 0xF72 JUMP JUMPDEST SWAP2 POP PUSH2 0x1002 DUP3 PUSH2 0xFCA JUMP JUMPDEST SWAP2 POP PUSH2 0x100E DUP3 DUP5 PUSH2 0xF72 JUMP JUMPDEST SWAP2 POP DUP2 SWAP1 POP SWAP4 SWAP3 POP POP POP JUMP INVALID JUMP PUSH2 0x6C75 PUSH6 0x20726566756E PUSH5 0x656421204E PUSH16 0x7420656E6F7567682045544820746F20 PUSH22 0x6E6C6F636B2073746F636B207469702EA26469706673 PC 0x22 SLT KECCAK256 0xF8 SUB SWAP8 0x23 REVERT 0xEA 0xEE DIV PUSH10 0x448A706B4D07BF5673EA 0xB4 PUSH3 0x1FD809 PUSH24 0x38528A307E63A64736F6C634300081A0033000000000000 "
		},
		"gasEstimates": {
			"creation": {
				"codeDepositCost": "845400",
				"executionCost": "infinite",
				"totalCost": "infinite"
			},
			"external": {
				"GetDetailedStockTip()": "infinite",
				"GetFreeStockTip()": "infinite",
				"GetPreviousFreeTips()": "infinite",
				"SetNewStockTip(string,string)": "infinite",
				"SetNewStockTipAdv(string,string)": "infinite",
				"WithdrawIncome()": "infinite"
			},
			"internal": {
				"GetStockTipFullText(string memory,string memory)": "infinite"
			}
		},
		"methodIdentifiers": {
			"GetDetailedStockTip()": "3f2a2930",
			"GetFreeStockTip()": "1b5adcb0",
			"GetPreviousFreeTips()": "e7631de4",
			"SetNewStockTip(string,string)": "6ea538a3",
			"SetNewStockTipAdv(string,string)": "32c715b3",
			"WithdrawIncome()": "6d63d69d"
		}
	},
	"abi": [
		{
			"inputs": [
				{
					"internalType": "string",
					"name": "_initialTip",
					"type": "string"
				},
				{
					"internalType": "string",
					"name": "_initialDesc",
					"type": "string"
				}
			],
			"stateMutability": "nonpayable",
			"type": "constructor"
		},
		{
			"inputs": [],
			"name": "GetDetailedStockTip",
			"outputs": [
				{
					"internalType": "string",
					"name": "",
					"type": "string"
				}
			],
			"stateMutability": "payable",
			"type": "function"
		},
		{
			"inputs": [],
			"name": "GetFreeStockTip",
			"outputs": [
				{
					"internalType": "string",
					"name": "",
					"type": "string"
				}
			],
			"stateMutability": "view",
			"type": "function"
		},
		{
			"inputs": [],
			"name": "GetPreviousFreeTips",
			"outputs": [
				{
					"internalType": "string[]",
					"name": "",
					"type": "string[]"
				}
			],
			"stateMutability": "view",
			"type": "function"
		},
		{
			"inputs": [
				{
					"internalType": "string",
					"name": "_newStockTip",
					"type": "string"
				},
				{
					"internalType": "string",
					"name": "_explanation",
					"type": "string"
				}
			],
			"name": "SetNewStockTip",
			"outputs": [],
			"stateMutability": "nonpayable",
			"type": "function"
		},
		{
			"inputs": [
				{
					"internalType": "string",
					"name": "_newStockTip",
					"type": "string"
				},
				{
					"internalType": "string",
					"name": "_explanation",
					"type": "string"
				}
			],
			"name": "SetNewStockTipAdv",
			"outputs": [],
			"stateMutability": "nonpayable",
			"type": "function"
		},
		{
			"inputs": [],
			"name": "WithdrawIncome",
			"outputs": [],
			"stateMutability": "nonpayable",
			"type": "function"
		}
	]
}